:020000040000FA
:20000000001F0010791700005B1400005D1400005F1400006114000063140000AC63FFEFE5
:20002000000000000000000000000000651400006714000000000000691400000304000048
:200040006D1400006F14000071140000731400007514000077140000791400007B14000060
:200060007D1400007F14000081140000831400008514000087140000891400008B140000C0
:200080008D1400008F1400009114000093140000951400001705000000000000000000000B
:2000A000991400009B1400009D140000000000009F140000A1140000A3140000A51400005B
:2000C0006E573CF15A23D87EC2BD9E4DE73B68B36351E1B7B979379E000000000000000061
:2000E000000000000000000000000000000000000000000000000000000000000000000000
:200100000000000000000000000000000000000000000000000000000000000000000000DF
:200120000000000000000000000000000000000000000000000000000000000000000000BF
:2001400000000000000000000000000000000000000000000000000000000000000000009F
:2001600000000000000000000000000000000000000000000000000000000000000000007F
:2001800000000000000000000000000000000000000000000000000000000000000000005F
:2001A00000000000000000000000000000000000000000000000000000000000000000003F
:2001C00000000000000000000000000000000000000000000000000000000000000000001F
:2001E0000000000000000000000000000000000000000000000000000000000000000000FF
:200200000000000000000000000000000000000000000000000000000000000000000000DE
:200220000000000000000000000000000000000000000000000000000000000000000000BE
:2002400000000000000000000000000000000000000000000000000000000000000000009E
:2002600000000000000000000000000000000000000000000000000000000000000000007E
:2002800000000000000000000000000000000000000000000000000000000000000000005E
:2002A00000000000000000000000000000000000000000000000000000000000000000003E
:2002C00000000000000000000000000000000000000000000000000000000000000000001E
:2002E0000000000000000000000000000000000000000000000000000000000021436587AE
:200300000121C006C00E81407848016070470121C006C00E8140BA48016070470121C00615
:20032000C00E8140B7480160704780B570480068202188436E49086000206E490860002038
:20034000009003E000BF0098401C00900098C828F8D3012068490860012068490860002000
:200360006649086001206549086064480068C007FBD52320624908605D48006880218843B5
:200380005B4908605F480068C007FBD503205E49086001205D49086000205C4908600120FC
:2003A0005A49086059480068C007FBD50120C149086001BD10B50400002C00D1012492487C
:2003C000210000F0F3FF9149884203D20021904A116009E08F49884203D201218C4A11606C
:2003E00002E002218A4A1160E1B2B24A116010BD80B5FFF79AFF0120FFF7DCFFB0490860CF
:2004000001BD80B584480068401C8349086083480068401C81490860AA480068002804D00E
:20042000A8480068401EA74908600020C043FFF775FF01BD80B50A000021BA4B1960002164
:20044000002301F031F89C4A002301F046F8002903D1002801D101200021401E0002000A84
:20046000964908600020C043FFF74AFF0720AD49086001BD80B59349086001E000F058F9F5
:20048000904800680028F9D101BD80B51848006843218843164908608B4800688021090292
:2004A0000143894801602320884908600220884908600F208749086000208749086001200F
:2004C000854908609848994908600320A149086000F001F801BD72B6AA209F4908605520E9
:2004E0009D49086062B670470000000000E100E03882044020800440408004404480044030
:20050000088004400C800440708004407480044000B572B6FEE780B58C480068C0B24008E6
:200520004007400FC0B2032823D1894800789E21084207D089480078694608701520FFF7D0
:20054000EDFE5CE0C00757D5844800788449854A1268885483480068401C824908608148C0
:2005600000688021C900884246D300207D49086042E0C0B2022814D1784800787849794A19
:200580001268885477480068401C76490860754800688021C90088422ED3002071490860BF
:2005A0002AE0C0B2062827D0C0B2012824D168480078800620D56C4800686C49096888425B
:2005C00014D06B4868490968405C67490968491C654A116061490870634800688021C90081
:2005E000884209D300206049086005E061480068022188435F4908601520FFF78FFE01BDBA
:2006000080E100E080E200E0006CDC02012D310110C00340015A6202E81A0010EC1A0010B3
:2006200010B50C005449096807229143524A11605149096801220A434F490A604F4909684B
:20064000072291434D4A11604C49096801220A434A490A601A214A4A11601A2100F0A6FE13
:200660008321484A11700009210000F09FFE010A404A11608021490000F098FE37480170A6
:200680000320404908700720304908601520FFF737FE00203349086000203B49086000209E
:2006A0003249086000203049086005203149086010BD00007880044040420F0014E000E0E1
:2006C000E01A0010E41A00108080044024800440D0800440D8800440D480044000B572B631
:2006E00024490968890708D42249096802220A4320490A601949087011E01D491B4A126880
:2007000088541A480068401C18490860174800688021C900884202D300201449086062B641
:2007200000BD000010E000E08814000004400040364800680221884334490860344800686F
:20074000042188433249086030BF70470880004014800040004000400840004000800040BC
:2007600018120010F01A0010FC1A0010F81A00101816001004800040A4400440A840044087
:20078000988004400C800040F41A0010F2B584B00024002802D54742012400E0070000265A
:2007A00000E0761C0A2E12D23D0028000A2100F0FDFD070028000A2100F0F8FD30316846E3
:2007C00081550020694689194870002FE9D1684600F0B8FE0500002C07D02D20694648553C
:2007E00000206946491948706D1C0020691E05E06A46125C049B5A54401C491EA842F7D319
:2008000000200499485505B0F0BD00000080034010ED00E080B5C0B2FFF760FF01BD10B5FD
:20082000040003E02078FFF7F5FF641C20780028F8D110BD10B504003020FFF7EBFF7820E8
:20084000FFF7E8FF6848210F405CFFF7E3FF6648210E0907090F405CFFF7DCFF6248210D1D
:200860000907090F405CFFF7D5FF5F48210C0907090F405CFFF7CEFF5B48210B0907090F98
:20088000405CFFF7C7FF5848210A0907090F405CFFF7C0FF544821090907090F405CFFF73C
:2008A000B9FF51482107090F405CFFF7B3FF10BDE0B56946FFF76AFF6846FFF7B0FF07BDDC
:2008C00010B50C00002801D0FFF7A9FF002C02D02000FFF7A4FF9848FFF7A1FF10BD10B5F1
:2008E0000C00FFF79CFF2000FFF7E2FF9248FFF796FF10BD38B50C001500002801D0FFF735
:200900008EFF002C02D02000FFF789FF2800FFF7CFFF8948FFF783FF31BD000000B59249FB
:20092000096812220A40022AF9D1C0B2A34908608D480068142101400429F9D19F48006813
:20094000C0B200BD96480068964901439448016001209B4908609B480068012101439948C3
:2009600001600020984908600120984908600120A04908600120A049086001209F490860EE
:200980009F4800688021C90001439D4801609D4800688021C90001439A4801600020AB49C2
:2009A00008600720A74908600220A74908600220A6490860704710B50300080011004A1E5D
:2009C00000290FD00100186848401B1D002101E04000491C2029F1D20028F9D54400A548F4
:2009E0006040F6E710BD0000C81600000A00D206D20EC906C90E4942C84170470A00D2063A
:200A0000D20EC906C90ED0417047F4B507004C680D68182615E029000220704304225043C5
:200A200038184068201AFFF7E9FF04006C402100082070433858281AFFF7E0FF05006540A9
:200A4000761E002EE7D17868201A009948603868281A00990860F1BDF1B586B00D0004261D
:200A60000F240020049015E02000310000F09EFC0421484301AF00902000310000F096FCFC
:200A80000421484301A908580002295D411800983950641E0020C0438442E5D1A848006821
:200AA0000699086001240DE00698042161434018001F0068A34909684018069904226243B8
:200AC0008850641C322CEFD3002400942700260025002AE0032106980422624380584019AC
:200AE0008019FFF783FF06990422624388500500A91901A804227A43805840198019FFF790
:200B000075FF01A904227A43885006000098401C0090641C2000322100F048FC0C007F1CA4
:200B20003800042100F042FC0F0000989628D1D307B0F0BD00000000C81700007CB50500A8
:200B40000E00022E0ED300240AE028680090686801902A0069467C48FFF757FFA41C083501
:200B6000B442F2D373BD00000C000440E0207A4908607A4800688021C90001437748016017
:200B80007748006877490140754801607047744909688022D2001040084371490860704742
:200BA00080800440400801006D4909688022D200104081436A4801607047000008000440E3
:200BC00094800440048004406C4004406040044080B50C480068634901400A480160B920B7
:200BE000FFF79CFE074800688021C90001430548016001BD64400440B04004407040044084
:200C000000800150FC3F015080B5574800685549014055480160AB20FFF780FE524800681D
:200C20008021C9000143504801600020009002E00098401C00900098B42189008842F7D36D
:200C400001BD000000000440100004400400044080B54548006843490140434801600420EF
:200C6000FFF75CFE404800688021C90001433E48016001BDB71DC10438B504003A4800686D
:200C800038490140384801600520FFF747FE002505E0FFF720FC0120FFF7ECFB6D1CA542C7
:200CA0000FD20020FFF73AFE00900098C007F0D42D4800688021C90001432B4801600120D2
:200CC00007E0294800688021C900014326480160002032BDF4B504000F001D00FFF794FF66
:200CE000002680204000474300983E181E4800681C4901401C4801600320FFF70FFE3000E7
:200D0000000CC0B2FFF70AFE300AC0B2FFF706FE3000C0B2FFF702FE04E00020FFF7FEFD24
:200D20002070641C2800451E0028F6D10E4800688021C90001430C480160FFF749FFF1BD1C
:200D40001002001014020010181A001080B5FFF77FFFFFF73DFF01BD5840044000800250C2
:200D6000FC3F0250FFFBFFFFFC3F015080B57F4A904701BD00B585B03222019202900391D8
:200D8000694601A8FFF7F2FF009805B000BD10B586B033240194029103920493FA218900C0
:200DA00000F004FB0590694601A8FFF7DFFF009806B010BD00B585B034230193029103926B
:200DC000FA21890000F0F2FA0490694601A8FFF7CDFF009805B000BD10B504008908002958
:200DE00003D02000FFF7AAFE241D10BD80B580208001C02252010021C943FFF7DCFD02BD0E
:200E0000F0B5C3B08024A4018020800101900026F6430025ED4301270020009019E0401CDE
:200E2000FF2808D821000C00641C097802AA125C9142F4D00027402229000198FFF7BBFDD3
:200E40000500019880214900401801900098401C0090009860281AD2FFF73DFB80235B0065
:200E600000220098C0218900411802A8FFF732FF8021490002A8FFF7AFFF4022310002A8AF
:200E8000FFF799FD0600002FD5D00020C8E7914800680090002E02D1012069460870002DD6
:200EA00002D1012069464870002F02D0012069468870009843B0F0BD10B50400002072B6C5
:200EC00021002000FFF756FF62B6002801D000200CE072B6220021007F480068FFF76AFF70
:200EE00062B6002801D0002000E0012010BD70B50500080014001E00002172B60100FFF74F
:200F000039FF010062B6002901D000200EE072B633002A00210070480068FFF738FF010084
:200F200062B6002901D0002000E0012070BD38B50224002508E021006848FFF7D0FC0A2074
:200F4000FFF798FA641C6D1C062D0CD2FFF7C3FA2000FFF7B1FF0028EDD121006048FFF7D1
:200F6000BEFC002000E0012032BD0000F11FFF1FF8B5FFF7DCFF002802D10020C04363E09A
:200F800002278025AD01002604E07F1C802040012D181036602E4FD200241BE0FFF79BFA6B
:200FA00080235B0000223019C021890041188C464C4980204000604308186146FFF78AFED6
:200FC0008021490047488022520062438018FFF703FF641C102CE1D380235B012A0039009D
:200FE0004048FFF784FF0400002C03D03E48FFF716FC02E03D48FFF712FC2800FFF71AFCC0
:201000003B48FFF70CFC002C02D10120C0431BE028003449002200E0521C8023DB009A42C2
:20102000B3D204235343C358042454430C59A342F2D00220C04307E0FFF7D8FE002802D0B6
:201040000320C04300E00120F2BD000080F3088880F309888F46704710B58020C000FFF70C
:20106000A3FD2448026824492448FFF743FC2048FFF7D5FB1E492248FFF722FCFFF72BFABE
:201080006420FFF7F7F90020C043FFF740F91520FFF73DF972B680204005802189010022D9
:2010A00006E004235343CB58042454430351521C302AF6D301209C4908609C489C49086027
:2010C00062B69C480168802080010068FFF7BEFF10BD0000D4170000E01A00108417000012
:2010E0008C17000018020010B4170000BC170000C8170000EC1A00103C1700000017000026
:201100005C16000010B5002424E0FFF7E4F98020C000FFF73CFDFA20FFF7ACF9FFF7DBF98F
:201120008020C000FFF740FDFA20FFF7A3F9FFF7D2F98020C000FFF72AFDFA20FFF79AF98F
:20114000FFF7C9F98020C000FFF72EFDFA20FFF791F9641C962080008442D6D3FFF7D8F9D0
:2011600010BD38B572B6FFF743F9714800688821490201436E480160FFF787F9FA218900D1
:201180006D480068FFF756F9E12149026A480068FFF746FAFFF7D6FBFFF7D8FDFFF7E6FCE6
:2011A0008020C000FFF7F3FC64496548FFF754FC62B66448FFF733FB63496448FFF780FB99
:2011C0005D4801686248FFF78AFB5E48FFF727FB6048006800906048FFF721FB0098C00765
:2011E00003D500215DA0FFF76BFB0098800703D500215B48FFF764FB0098400703D50021B5
:201200005848FFF75DFB0098000703D500215648FFF756FB0098C00603D5002153A0FFF723
:201220004FFB4848FFF7FBFA002405E0FFF753F96420FFF71FF9641C0A2CF7D3FFF7E4FCB6
:20124000FA208000FFF718FDFFF7C2FC00214848FFF736FBFFF7D4FD00904648026846497F
:201260004648FFF747FB68460078002844D044494448FFF725FB68464078002813D040491D
:201280004148FFF71DFB68468078002806D000213E48FFF715FBFFF7DFFE08E000213C4806
:2012A000FFF70EFB03E03B493748FFF709FB3AA13A48FFF705FB2F480568FFF759FE0400C7
:2012C0002C480068421B2C493448FFF713FB220033493248FFF70EFB012C06D131492F48D4
:2012E000FFF7EEFAFFF7B8FE1BE02F492B48FFF7E7FAFFF707FF14E026492248FFF7E0FA0E
:2013000068464078002806D01D491F48FFF7D8FAFFF7A2FE05E01F491B48FFF7D1FAFFF7D7
:20132000F1FEFFF7D8F8FCE7008004405F8001008080044004200000E01A001000020010ED
:20134000181A0010C8170000F01600008C160000301700003080044020170000504F520061
:20136000941700009C170000A417000053595300A0160000E81A00103C170000B416000070
:20138000601700004817000054170000DC16000074160000AC1700002E2E2E00101700001C
:2013A0006C170000CC170000D01700000022030A8B420BD203098B4219D243088B422ED22B
:2013C000411A00D20146524110467047FF2209023FD012068B4205D3121209028B4201D331
:2013E0001212090203098B4219D300E0090AC3098B4201D3CB01C01A524183098B4201D333
:201400008B01C01A524143098B4201D34B01C01A524103098B4201D30B01C01A5241C3083C
:201420008B4201D3CB00C01A524183088B4201D38B00C01A524143088B4201D34B00C01A9E
:201440005241884200D3401A5241CFD201461046704708B500F07EF808BDFEE7FEE7FEE7E3
:20146000FEE7FEE7FEE7FEE7FEE7FEE7FEE7FEE7FEE7FEE7FEE7FEE7FEE7FEE7FEE7FEE71C
:20148000FEE7FEE7FEE7FEE7FEE7FEE7FEE7FEE7FEE7FEE7FEE7FEE7FEE7FEE7FEE7FEE7FC
:2014A000FEE7FEE7FEE7FEE730B4434351435D18010C0C00130C5C432D1980B2434392B20C
:2014C00051430024C918644124040B04090C09195043C018694130BC7047124224D0994285
:2014E00028D970B500251B4202D00C00002109E00024012649186441944200D3A41A7641ED
:20150000F8D33100012601E0764109D2001864416D41A41A9D41F7D2A4185D41B619F5D374
:20152000300022002B0070BD1B42D8D108B500F013F808BD01D19042D3D202000B00002107
:2015400000207047010000E0491C0A78002AFBD1081A704770470000704770B40121002346
:2015600013E00468001D0C4202D04D466D1E64192360241D121F042AFAD22500960701D5AD
:201580002380AD1C0A4000D02B700268001D002AE7D170BC704730B401210268001D002A27
:2015A0000FD00368C318446808300C4202D04D466D1E64191D6825601B1D241D121FECD0F7
:2015C000F8E730BC7047000010B5074979441831064C7C44163404E0081D0A688918884727
:2015E0000100A142F8D110BD08000000280000006BFFFFFFE81800001802001000000000AF
:2016000097FFFFFF18000000B8EAFFFF000200100000000000F00BF8002801D0FFF7D4FFB7
:201620000020C046C046FFF79CFD00F002F80120704780B500F002F801BD00000746384685
:2016400000F002F8FBE7000080B5C046C046024A11001820ABBEFBE726000200535441523B
:2016600054204150504C49434154494F4E2E2E2E00000000464C415348204E4F54204D410B
:2016800054434820424F4F5400000000535441525420424F4F544C4F414445523A20000024
:2016A000434845434B20424F4F542F464C41534800000000424F4F542F464C4153482043A7
:2016C0004845434B454420003031323334353637383941424344454600000000464C41537E
:2016E00048204D4154434820424F4F5400000000524C3031205645522E20312E30000000D8
:20170000424F4F5420434F4D504C45542000000055504441544520464C41534820000000D0
:20172000524553455420534F555243453A20000046434C4B2056414C3A2000002041542089
:20174000286D53293A200000424F4F54204D454D3A200000464C415348204D454D3A2000CA
:201760004E4F5420454D5054590000005354415455533A2000000000C046C046C046C04673
:20178000FFF748FF654F4B3A200000006545523A20000000455854520000000057445452D9
:2017A00000000000424F445200000000454D505459000000774F4B3A200000007745523AC0
:2017C00020000000FFFFFFFF0D0A00004F4B00004552520000000000FFFFFFFFFFFFFFFF5B
:2017E000FFFFFFFFFFFFFFFFFFFFFFFFFFFFFFFFFFFFFFFFFFFFFFFFFFFFFFFFFFFFFFFF09
:20180000FFFFFFFFFFFFFFFFFFFFFFFFFFFFFFFFFFFFFFFFFFFFFFFFFFFFFFFFFFFFFFFFE8
:20182000FFFFFFFFFFFFFFFFFFFFFFFFFFFFFFFFFFFFFFFFFFFFFFFFFFFFFFFFFFFFFFFFC8
:20184000FFFFFFFFFFFFFFFFFFFFFFFFFFFFFFFFFFFFFFFFFFFFFFFFFFFFFFFFFFFFFFFFA8
:20200000900A001095670000F1670000F1670000F1670000F1670000F16700002686FDEFCA
:20202000000000000000000000000000F1670000F167000000000000F1670000BB6300007A
:20204000F1670000F1670000F1670000F1670000F1670000F1670000F1670000F1670000C0
:20206000F1670000F1670000F1670000F1670000F1670000D9210000F1670000F1670000FE
:20208000F1670000F1670000715C0000F1670000F16700003D4A0000F1670000F1670000DC
:2020A000F1670000F1670000F1670000F1670000F1670000F1670000F1670000F167000060
:2020C000564D3032206876320000000000000000303130322E30372E32303138000000007A
:2020E00033B6F3E038BB317B33C1CA3706C07E1FBA51FB48989D9947E58AC44646787457C8
:202100002C482D49096808220A432B490A602B490968802292020A4328490A604121016009
:202120000221C022520081502549C160002181610B21016080208001224908604020224999
:2021400008708020800121490860704700B5194801680122914301600178C907FCD400BDB0
:202160000EB470B51A4904AC124A00231BE00D7A2668B54201D160680834F02555628D8828
:202180009562CD88D5620D88054315634D88060C2E4356630F4D95630D7A1562156A2D0454
:2021A000FCD40C315B1C1B2BE1D3039870BC04B0004700000000054004800440808004408E
:2021C000833A000080E200E00DE400E000E100E0505F000088140000F8B5454F454C4648C3
:2021E0000090464E19E006203056002815D1A089A8210902884210D1607A414909788842B1
:202200000BD16079B07120000C3800783D49087000203D4908700120B0803869002800D105
:2022200090E3202808D22F218422B95080217850802179580904FBD400990968009A5268F5
:20224000D204D20C15040D4310285FD000D26FE3122800D1EEE000D2A2E0142800D1A3E118
:2022600000D231E1162800D132E200D2E6E1182800D1C9E200D275E21A28B4D000D20DE351
:202280001B2800D054E30620305600282ED01D48017820000C380078814227D10120B0805C
:2022A000012500E0ED1C102D0FD2615DAB4800F023FC605D3B2804D113480078401C1249B2
:2022C0000870E807EED46D1CEDE7B079401EB07106203056002809D1B0890B4909784018BC
:2022E000B081084801789E4800F006FC95E700BF000005409C00054090000540340300108F
:20230000280C0010F7190010F81900102200954801789548007800F00DFC94490860042108
:20232000924801F05FF89249087092480078924901438D422FD1207861780902014320798F
:20234000000408436179090601438C484160207A617A09020143207B00040843617B0906F3
:20236000014386480160207861780902014320790004084361790906014381480160207A51
:20238000617A09020143207B00040843617B090601437C4801602100280000F057FF3CE723
:2023A0002200794801787948007800F0C3FB784908600421764801F015F8764908706D48E4
:2023C00000786D4901438D422FD12078617809020143207900040843617909060143674838
:2023E0004160207A617A09020143207B00040843617B0906014361480160207861780902D9
:2024000001432079000408436179090601435C480160207A617A09020143207B00040843B0
:20242000617B09060143574801602100280000F00DFFF2E62200584801785848007800F00D
:2024400079FB574908600421554800F0CBFF5549087048480078484901438D422FD120782A
:2024600061780902014320790004084361790906014342484160207A617A09020143207B95
:2024800000040843617B090601433C48016020786178090201432079000408436179090648
:2024A000014337480160207A617A09020143207B00040843617B090601433248016021001F
:2024C000280000F0C3FEA8E62200CB480178CB48007800F02FFBCA4908600421C84800F0A2
:2024E00081FFC849087023480078234901438D422FD12078617809020143207900040843C9
:202500006179090601431D484160207A617A09020143207B00040843617B0906014317484C
:202520000160207861780902014320790004084361790906014312480160207A617A09022A
:202540000143207B00040843617B090601430D4801602100280000F079FE5EE6F40200106E
:20256000000300103C0C00103E0C0010300B0010340B00102C0C001000F3FE18D0190010B2
:20258000180B0010200B0010500C0010520C0010380B00103C0B0010640C0010660C001047
:2025A000400B0010440B00102200E7480178E748007800F0BFFAE64908600421E44800F06F
:2025C00011FFE4490870E4480078E44901438D422FD12078617809020143207900040843BA
:2025E000617909060143DE484160207A617A09020143207B00040843617B09060143D848EA
:2026000001602078617809020143207900040843617909060143E1480160207A617A09027A
:202620000143207B00040843617B09060143DC4801602100280000F009FEEEE52200C94872
:202640000178C948007800F075FAC84908600421C64800F0C7FEC6490870BF480078BF49AA
:2026600001438D422FD12078617809020143207900040843617909060143B9484160207A36
:20268000617A09020143207B00040843617B09060143B34801602078617809020143207942
:2026A00000040843617909060143BC480160207A617A09020143207B00040843617B0906A0
:2026C0000143B74801602100280000F0BFFDA4E52200B4480178B448007800F02BFAB349BC
:2026E00008600421B14800F07DFEB14908709A4800789A4901438D422FD1207861780902AB
:20270000014320790004084361790906014394484160207A617A09020143207B0004084335
:20272000617B090601438E480160207861780902014320790004084361790906014397487F
:202740000160207A617A09020143207B00040843617B09060143924801602100280000F0C7
:2027600075FD5AE52200A5480178A548007800F0E1F9A44908600421A24800F033FEA24981
:20278000087075480078754901438D422FD12078617809020143207900040843617909062A
:2027A00001436F484160207A617A09020143207B00040843617B09060143694801602078F6
:2027C00061780902014320790004084361790906014372480160207A617A09020143207B42
:2027E00000040843617B090601436D4801602100280000F02BFD10E5780C00107A0C0010C5
:20280000480B00104C0B00102200A2480178A248007800F08FF9A149086004219F4800F041
:20282000E1FD9F4908704C4800784C4901438D422FD12078617809020143207900040843FE
:2028400061790906014346484160207A617A09020143207B00040843617B090601434048B7
:202860000160207861780902014320790004084361790906014349480160207A617A0902B0
:202880000143207B00040843617B09060143444801602100280000F0D9FCBEE42200814853
:2028A00001788148007800F045F98049086004217E4800F097FD7E490870274800782749FA
:2028C00001438D422FD1207861780902014320790004084361790906014321484160207A6C
:2028E000617A09020143207B00040843617B090601431B4801602078617809020143207978
:202900000004084361790906014324480160207A617A09020143207B00040843617B0906D5
:2029200001431F4801602100280000F08FFC74E43879A0210140002903D0386801210143BA
:2029400039606AE4F1BD00BF8C0C00108E0C0010D80B0010DC0B00102C0C001000F3FE1896
:20296000D0190010B40C0010B60C0010E00B0010E40B00101CB54F4C4F48006800904E4831
:20298000006901900121684600F014F80221200000F010F82068401D206013BD180B0010CE
:2029A000200B0010C80C0010CA0C0010E80B0010EC0B001030B5414A13003C33404C1579FC
:2029C0006D076D0F002D10D1042403E005881D60801C1B1D25006C1E002DF7D18720506213
:2029E0001162106A0004FCD407E006202056002801D1012020600320A07130BDDC0C0010DF
:202A0000DE0C0010F00B0010F40B00107CB56C462C4E3068002821D131002B4800F05CF8AB
:202A200001207060306800022021014321603068072100F0F3FCE0703068072100F0EEFC7C
:202A4000002902D0E078401CE07020486060641D21001F4800F040F8032116E0706801002B
:202A6000491C7160207001250CE0FF2060553068002806D06119174800F02EF83068401E2F
:202A800030606D1C082DF0D304216846FFF792FF73BD0000F00C0010F20C0010F80B00106E
:202AA000FC0B0010040D0010060D0010000C0010040C0010D8190010C02000000000054059
:202AC0002C030010C81900100C030010FF0000A800030010180300101EB572B6C288002A53
:202AE00024D0521EC2808288531C44891C4084800023048900680EE01EB572B6C288448972
:202B0000A24213D8511CC18083889B1823400022048901686846A74400BF805CC85403E0CC
:202B200052005B00805AC852012000E0002062B61EBD000070B504000B0010785178090250
:202B40000143107905040D43507900062843117A557A2D020D43117B0E042E43517B090652
:202B600031434022D21A121B00F0B0FC4022121B00F0BEFC70BD70B514000E000500B069FF
:202B80000078002806D0012825D0022844D007286CD0C3E003CD083D7268126800239942EE
:202BA00015D301D8904212D330680268002303CD083D8B420BD301D8824208D3287C012873
:202BC00001D10220ABE0012028740120A7E0002028740020A3E003CD083D72681268002326
:202BE00099420CD301D8904209D330680268002303CD083D8B420BD801D3824208D2287C94
:202C0000012801D102208AE001202874012086E000202874002082E003CD083D7268126842
:202C2000002399420CD301D8904209D330680268002303CD083D8B420DD801D382420AD2D0
:202C4000287C012805D10020607100202874012065E0022063E0287C012801D102205EE05A
:202C60000020607101202874012058E0280020300CC8083803CD083D8B4223D801D382424C
:202C800020D203CD083D20350CCD083D801A994132681268002399420DD301D890420AD3CC
:202CA0006079022803DA00206071012037E002206071022033E0607902282FDB03206071E2
:202CC00003202CE0280020300CC8083803CD083D8B4223D301D8824220D32800203003C88E
:202CE0000CCD083D801A994132681268002399420DD301D890420AD36079022803DA0020C8
:202D0000607101200BE002206071022007E06079022803DB03206071032000E0642070BD51
:202D200070B50C001E00BB49E4B228236343C9184969002900D115E1B749C0B20223584304
:202D40000818CC214900405C002800D10AE1B148E4B22821614340184069001FAD49E4B275
:202D600028236343C9184861AB4892B2022151434018CC214900405CFA2189004843A749A1
:202D80004018A749E4B2082262438850A548E4B2082161434218A448E4B220216143411844
:202DA0009C48E4B228236343C018FFF7E4FE049DC0B2002851D0022800D19BE000D3D1E0A2
:202DC0009848E4B20821614340184079002834D102209049E4B228226243891808769349F7
:202DE000934800F095FB8C48ADB2022169434018CC214900405C002806D101208949E4B2C4
:202E000008226243885010E08348ADB2022169434018CC214900405CFA2189004843401E6B
:202E20008049E4B208226243885002207D49E4B208225443091948710EE07A48E4B2082103
:202E4000614340184079032806D102207549E4B2082254430919487184E07248E4B20821CC
:202E6000614340184079012834D17249704800F04FFB03206749E4B228226243891808764B
:202E80006548ADB2022169434018CC214900405C002806D101206349E4B208226243885024
:202EA00010E05D48ADB2022169434018CC214900405CFA2189004843401E5A49E4B2082235
:202EC0006243885003205749E4B208225443091948710EE05348E4B2082161434018407983
:202EE000022806D103204F49E4B2082254430919487137E0D348E4B208216143401840793E
:202F000000282ED14448B6B2042171434018B049405A01280DD10120CA49E4B20822624332
:202F200088500120C749E4B2082254430919487117E03948B6B2042171434018A449405ABE
:202F4000FA218900414335480818BE49E4B20822624388500120BB49E4B2082254430919CA
:202F60004871FFE770BD38B504002D48E4B2082565434019007900284BD0DBB20093264811
:202F8000D2B202235A438018CC225200835C2248C9B2022251434018CC214900425CAA4978
:202FA000234800F0B5FA00201D49E4B2082262438918087100201749E4B22822624389185C
:202FC000087400209F49E4B2082262438918087101209C49E4B20822624389184871002009
:202FE0009849E4B20822624388500020CF49E4B208226243891848710020CC49E4B20822C7
:203000006243891808710020C849E4B208225443085131BDD0000010900A001017FCFFFF87
:203020003C190010EC18001094600000DC6500007C040010F0650000F8B582B004000F000B
:203040001600BA48E4B20821614340180079002800D1BBE00020B549E4B20822624389186C
:203060000871089DB148E4B2082161434018407902284DD1AE48E4B2282161434018007E2E
:2030800002283DD16846007A0090AA48F6B202214E438019CC214900435CA648FFB20221C2
:2030A0004F43C019CC214900425C6749A24800F02FFA9F48E4B228216143401803C89C4AAB
:2030C000E4B228236343D218203203C2083A01209849EDB202226A438918CC2252008854F7
:2030E0009D209449EDB2022255434919FF229A32885400205349E4B2082262438918487135
:2031000001208A49E4B208225443091948715DE08648E4B20821614340184079032855D1B9
:203120008649854800F0F4F96846007A00908148F6B202214E438019CC214900435C7D4806
:20314000FFB202214F43C019CC214900425C7C49794800F0DDF97648E4B228216143401877
:2031600003C8734AE4B228236343D218203203C2083A00206F49EDB202226A438918CC2226
:2031800052008854AC206B49EDB2022255434919FF229A32885400206449E4B208226243C9
:2031A0008918487100202749E4B2082262438918487100202349E4B208226243891808715B
:2031C00000202049E4B2082254430851F7BD00008E02000070B582B01A4CC0B2082545438E
:2031E00064192479002C2BD0164CC0B20825454364196479012C23D10024124DC0B2082667
:203200004643AD192C7100240E4DC0B20826704328184471DBB200934648D2B202235A4307
:203220008018CC225200835C4248C9B2022251434018CC214900425C03493F4800F068F9CA
:2032400073BD00008C030010E064000070B506000D003C480078002866D000242FE034481A
:2032600028216143401803C8314A28236343D218083203C2083A2A003348202161434018C5
:2032800080680178304820236343C018C0680078FFF750FC264A28236343D21803C2083A60
:2032A00023482821614340184069001D20492822624389184861012024498887641C0A2CA3
:2032C00032DA21482021614340184069006800021D492022624389180969097801438E4234
:2032E000ECD11348282161434018407E0028B6D02A00154820216143401880680178124886
:2033000020236343C018C0680078FFF713FC084A28236343D21803C2083A0020044928225C
:20332000624389184876BBE770BD0000EC180010D0000010900A00107C0400107C650000AB
:20334000FC640000FD190010946000002403001030B583B06B460024002530C3083B002351
:2033600008E004006D46DBB2EC54000A0C062043090A5B1CDBB2072BF3DBD2B21100684608
:20338000FFF718FB37BD10B50400002000210BE00A22002300F030F902000B0020783038C6
:2033A000C11780185941641C2278002AF0D110BD10B5030010000A00511E002A10D00200D4
:2033C0001878000250405B1C002201E04000521C082AF0D20404F9D544000F486040F6E7C1
:2033E00080B210BD10B50200FF200B00591E002B0FD0030010785840521C002301E0400087
:203400005B1C082BF1D20406F9D5440031206040F6E7C0B210BD0000211000000022030AB6
:203420008B420BD203098B4219D243088B422ED2411A00D20146524110467047FF220902C6
:203440003FD012068B4205D3121209028B4201D31212090203098B4219D300E0090AC3091D
:203460008B4201D3CB01C01A524183098B4201D38B01C01A524143098B4201D34B01C01A39
:20348000524103098B4201D30B01C01A5241C3088B4201D3CB00C01A524183088B4201D3A3
:2034A0008B00C01A524143088B4201D34B00C01A5241884200D3401A5241CFD201461046A8
:2034C000704708B500F0B2F808BD0000D2B2203A03D301009140002070475242D041524283
:2034E000203291404140D0409040414070470000D2B2203A03D30800D0400021704720321A
:20350000D141D04048409140D1404840704700000EB47EB506000020029007AD2D1DFFE74F
:203520000798007800283ED0002200236C460A340798007820700798007825282CD105E01C
:203540000A204343079800781B18303B0798401C07900798007830380A28F1D307980078E8
:20356000732804D0752804D0782804D0D8E72C6802E00A2200E01022002A06D069460A319A
:20358000286800F015F8401E241A2D1D04E021783000FFF7B1FA641C20780028F7D10798C3
:2035A000401C0790BCE703B0039870BC04B00047FCB504000D00160000270E4800902000FB
:2035C0003100FFF72BFF0098405C28706D1E7F1C20003100FFF722FF0400002CEDD10198B9
:2035E000874204D2302028706D1E7F1CF7E73800F6BD00000466000030B4434351435D1878
:20360000010C0C00130C5C432D1980B2434392B251430024C918644124040B04090C0919E5
:203620005043C018694130BC704700007047000010B59A4C002000F0F3FC00209849086008
:2036400000F09AFF002807D000229649002000F0F9FD0120A08011E006202056002804D011
:20366000904800F09FFF0020A071C8482060A088002803D00020A080FA20A06010BD30B5F4
:2036800093B0904D0024012000F0CAFCC04801F065F88D480068C00703D5FEF757FDFA2476
:2036A00074E006202856002804D0884CA879401EA8716BE000201190854800680002854999
:2036C00009780143109119200F90834800680002B049097801430E9118200D90AE480068E7
:2036E0000002AE49097801430C9117200B90AC4800680002AB49097801430A91162009901C
:20370000A94800680002A94909780143089115200790A748806A0002A6490978014306910C
:2037200014200590A248006A0002A349097801430491132003909E4880690002C149097802
:203740000143029112200190994800690002BE490978014300911123954880680002BB4927
:203760000A7802431021BA480078FEF7F9FC0120A861012028620120A8630120286401201E
:20378000A86401202865824800F0E5FF2C6013B030BD10B5AF4C022000F042FCA088002835
:2037A00004D00020A0803220206004E00020A0710020D549C88010BDF8B5D44ED44CB5888F
:2037C0000020B080032000F02BFC002D10D0E788D0492000FFF79CFE2100CB4800F07CFC7E
:2037E0006D1E002DF8D1E088C11BCB48FFF784F9FFF70CF9E088002801D005203060F1BDBF
:2038000080B5042000F00CFCFFF7B4F8C3482349086201BD80B5052000F002FC0123352253
:2038200007210020FFF7D6FC0223362211210120FFF7D0FC032337221B210220FFF7CAFC4D
:203840000423382225210320FFF7C4FC052339222F210420FFF7BEFC0623712243210520DC
:20386000FFF7B8FC072372224D210620FFF7B2FC0823732257210720FFF7ACFC09237422E9
:2038800061210820FFF7A6FC0A2375226B210920FFF7A0FCFA200149886201BD2403001098
:2038A000F01900107C04001080B5062000F0B8FB9B499C4800F010FC9B48808E401E9A496B
:2038C000888601BD2C03001000000540C4090000800B0010020D0010780B001080B5072022
:2038E00000F09EFB0020904988870620009001230C2200210320FFF713FA10200090022303
:20390000162201210D20FFF70BFA1A2000900323202202211720FFF703FA242000900423AB
:203920002A2203212120FFF7FBF92E2000900523342204212B20FFF7F3F942200090062323
:20394000482205213F20FFF7EBF94C2000900723522206214920FFF7E3F956200090082371
:203960005C2207215320FFF7DBF9602000900923662208215D20FFF7D3F96A2000900A23F1
:20398000702209216720FFF7CBF901BDEFFE000020000250EE0C0010700B0010DA0C001082
:2039A000680B0010C60C0010600B0010B20C0010900A00108A0C0010760C001080B508201A
:2039C00000F02EFB0123352207210020FFF7CBFA0223362211210120FFF7C5FA032337224C
:2039E0001B210220FFF7BFFA0423382225210320FFF7B9FA052339222F210420FFF7B3FA8D
:203A00000623712243210520FFF7ADFA072372224D210620FFF7A7FA08237322572107207C
:203A2000FFF7A1FA0923742261210820FFF79BFA0A2375226B210920FFF795FA94483A49A1
:203A4000086401BD620C00104E0C00103A0C0010280C00103403001080B5092000F0E0FA4B
:203A60003A2000900123352207210020FFF7E4FA3B2000900223362211210120FFF7DCFA3E
:203A80003C200090032337221B210220FFF7D4FA3D2000900423382225210320FFF7CCFA06
:203AA0003E200090052339222F210420FFF7C4FA762000900623712243210520FFF7BCFA56
:203AC00077200090072372224D210620FFF7B4FA782000900823732257210720FFF7ACFAA6
:203AE000792000900923742261210820FFF7A4FA7A2000900A2375226B210920FFF79CFA6E
:203B000063480949886401BDF40200103C03001018030010A86700000C03001088130000B5
:203B20007C040010700400102403001080B50A2000F076FA7548FFF726FC754A0CCA8B4244
:203B400001D1824207D0724A03C2083A0522704803C8FFF7FDFB6F48FFF715FC6E4A0CCA51
:203B60008B4201D1824207D06B4A03C2083A0622694803C8FFF7ECFB6848FFF704FC684A76
:203B80000CCA8B4201D1824207D0654A03C2083A0722634803C8FFF7DBFB6248FFF7F3FB66
:203BA000614A0CCA8B4201D1824207D05E4A03C2083A08225C4803C8FFF7CAFB5B48FFF7AE
:203BC000E2FB5B4A0CCA8B4201D1824207D0584A03C2083A0922564803C8FFF7B9FB5548CF
:203BE000FFF7D1FB544A0CCA8B4201D1824207D0514A03C2083A0A224F4803C8FFF7A8FB8C
:203C00004E48FFF7C0FB4E4A0CCA8B4201D1824207D04B4A03C2083A0B22494803C8FFF79A
:203C200097FB8F48FFF7AFFB8E4A0CCA8B4201D1824207D08B4A03C2083A0C22894803C8ED
:203C4000FFF786FB8848FFF79EFB884A0CCA8B4201D1824207D0854A03C2083A0D228348DC
:203C600003C8FFF775FB8248FFF78DFB814A0CCA8B4201D1824207D07E4A03C2083A0E22F1
:203C80007C4803C8FFF764FB01487B49086501BDE70300001CB50B2000F0C2F968460021A8
:203CA000002206C008387548046875480068022815D101207249086004217148FFF792FBD9
:203CC00070490870012069460870684644700020694688700F216846FEF76CFE11E0684864
:203CE0000068012803D066480068002809D1002063490860D720634908700F216846FEF726
:203D000059FE6148A149886513BD0000AA0D001060020010CA0D001068020010EA0D00105B
:203D2000700200100A0E0010780200102A0E0010800200104A0E0010880200106A0E0010EB
:203D400090020010F8B50C2000F06AF900F053FD070000F064FD060000F06DFD040000F0A9
:203D600076FD05008A48076004218948FFF73AFB884908708848066004218748FFF732FBDB
:203D8000864908708648046004218548FFF72AFB844908708448056004218348FFF722FB24
:203DA00082490870794866214056012824D1804887421DDB00207F49087000F0E6FC7E4843
:203DC0000078401C7C4908703B007B4802787B497B48FFF79DFB7848007805281ED100F001
:203DE00063FD78486949086000207749087015E000207149087011E0644866214056022806
:203E000009D172496E48FFF783FB00F0BAFC01206D49087002E00020674908706C48874247
:203E200019DA64480078002811D13A0069496448FFF76EFB002068490870022062490870DC
:203E400066485249086601205A49087006E05D484E49086602E05B484C490866F1BD0000A9
:203E60008A0E001098020010AA0E0010A0020010CA0E0010A802001024030010500B001032
:203E8000580B00105C0B00105FEA0000F0B583B03E4C53480090534F534D00F093FD72B678
:203EA0005248066800205149086062B6002001900EE0002008600120A188002901D100282C
:203EC00002D0E07900F0CBF80198401C0190083401980D280DD200202100002EECD00A68F8
:203EE000002AE9D00A689642E3D20A68921B0A60E2E7002008E000220A600121009A1171BC
:203F0000401C0099083100910A280CD20099002EF6D00A68002AF3D00A689642EBD20A686D
:203F2000921B0A60ECE7002005E000220A6001212971401C08350A280CD22900002EF8D082
:203F40000A68002AF5D00A689642EED20A68921B0A60EEE7002005E000220A60012139713B
:203F6000401C08370A280CD23900002EF8D00A68002AF5D00A689642EED20A68921B0A6073
:203F8000EEE70F4800F090FDF7BD000024030010280B00102C0B0010100C0010140C0010A7
:203FA000180C00101C0C0010200C0010240C0010411F0000FC190010FB190010906600007A
:203FC0007C040010E70300008A030010A066000088130000E0660000FD1900102F75000019
:203FE000EC1800103C1900108C030010EC1900102C482D490978415C2A482C4AC9B2525C7B
:20400000805CC9B2C900C0B2081829490870294827490978042251434058274908607047C1
:2040200000B52249C0B2C210895C244AC0B243075B0FD25C91431D4AC0B2C310D1541B496C
:20404000C0B2C210895C002908D1174909781B4AC0B2C010105C81431348017000BD124999
:204060000978164AC0B2C310D25C0A430E490A700E49C0B2C210895C104AC0B243075B0FCE
:20408000D25C0A430949C0B2C0100A5470470C49C0B2042242438958064AC0B20423584325
:2040A00011507047D4610000F9190010E0190010FA190010DC030010E8190010A06700005E
:2040C0001404001000B5BFF34F8F9948B1490860BFF34F8F00BFFDE7F8B505000F00954E59
:2040E00001207070FFE77078002832D09949280000F0F8FC040000282BD03078002801D110
:20410000032C24D10D2C02D3012093498880032C13D202236A460620011B280000F00EFD1A
:204120002100A1408842DED1009800F00BFA00900028D8D00098401E0090009A3900280096
:204140000500AE4B042060431B5828009847062CC9D3F1BD70B582B006008F4C754D00208A
:20416000009000E0641C69463000FEF7B5FC207800998842F6D000983B280DD10020687038
:204180002078002808D12878002800D100BF012028709B487049086073BD80B508001100F3
:2041A000984A00F009FD01BDF7B58AB001AD0A9800680A998988405C20283DD192480C99A6
:2041C0000C2251434018476801784907490F00918678761E009C083401A90A98FEF77CFC41
:2041E0000098002800D11F24009B2A0021000A9800F0A4FC05281FD20024E443052E04D261
:2042000004203100401AC000C4402868844213D331002800FFF7E6F8B85503E0287838708A
:204220006D1C7F1C3000461E0028F7D1774A0C990B9800F0C1FC03E0BF490B98FFF768F93B
:204240000DB0F0BD70B506000C00002500E06D1C0A2D12D26E4800880121A9400842F6D0BB
:2042600022002900684800F0E5F90028EFD100222100300000F050F803E0BC492000FFF7E4
:2042800047F970BD38B50C002100002000F0DDFC002500E06D1C0A2D11D25D4800880121B7
:2042A000A9400842F6D022002900574800F0F6F90028EFD1A1492000FFF72AF903E0C54940
:2042C0002000FFF725F931BD80B508009C4AC249FFF71EF901BD80B50800A549FFF718F991
:2042E0000120BE49087001BD80B50220A14908600521A048FFF776F8A8490870012016495C
:20430000886501BD80B5A649C548FFF701F901BD80B5FFF7D7FE01BD10B50C002100FF2044
:2043200000F062F9BF492000FFF7F2F810BD00000400FA05F019001080B50800A849A94A20
:204340009278002A00D0091D0A68B749FFF7E0F801BD0000DC6300002403001038B50C00C6
:20436000B24DAF49002000F070FCAD49032000F06CFC2100032000F08AFC002803D0012083
:20438000984988702D1D2A68C0492000FFF7C0F831BD00000CED00E04A0D001070B582B00C
:2043A000060008008F4C0025A149FFF7B1F869463000FEF791FB09E068460178B448FEF705
:2043C0009BFB6D1C69463000FEF786FB684600783B28F1D1684600783B2801D100206070D3
:2043E000EDB22900AB48FEF787FBFD21AA48FEF783FB0120C249886173BD00001C64000043
:2044000060EA0000D8670000CC4E000088670000E0670000F7B5C6B0BA4F03AC241D03ADF8
:20442000704EB9482860012348AA0821469800F085FB082818D1489800BA20600823102218
:204440006946C91D4898FFF7B3F82A6808216846FEF7AEFF286020000400241D03A98422FC
:20446000520089188842DED13620009028684899884258D1049800BA48900823102269464C
:20448000C91D4898FFF794F8A0480290B078002849D04898002811D103A89D4944189D4D30
:2044A00002E0B078401CB07020000400241D29000D002D1D006809688842F2D0B0780328D9
:2044C0002EDB4898602827D24898F17888421FD1822292004898C02189004018010203A8E9
:2044E00000F090FB00280FD0F078401CF0703F1F0020029088488249086048985F2812D1B9
:2045000001207F4908600EE03120694648720AE034206946487206E032206946487202E078
:204520003320694648726B463A687C494798FEF7EFFF49B0F0BD00001866000094650000C8
:20454000D020000000B50100754A01200C234343D35A9BB2DB089BB2994204D0401CC6287D
:20456000F4D3002000E0401C00BD00002C66000018650000580B001038B5694C002501E031
:204580006D1C0C34C62D07D2A1786068FEF72AFF0028F5D0012000E0002032BD5C0B001013
:2045A000C066000010B504005E480068401C5D4908605C4800685C49486004215948FEF780
:2045C00011FF58490871002221000020FFF75AFE10BD000040660000B0660000FD19001051
:2045E00088660000F019001030B54D49002209E08C68E45C4D68EC541C00631E002CF7D174
:20460000521C0C31C62A09D2FF2801D1CB7800E00300CC789C42F3D18B78EDE730BD00005B
:204620007C04001054660000AC6500007C660000D066000070B5C2B005006C460834CEB2FD
:204640003A4A0902684600F0DDFA2F4A802149002000FEF7ADFE002801D0002013E0002007
:2046600009E022786B685A54641C491CAA789142F7D3401C0C35C62804D2E978B142F8D114
:204680000021F3E7012042B070BD000068660000180300100C0300100003001030B5C3B05C
:2046A0000C006A460832E1B208E04568ED5C15705B1C521C8578AB42F7D30C30C378994223
:2046C00004D3C3788B42F8D10023F3E70E4AFE2168460830FEF76CFE80B240BA69468322F9
:2046E00052008852822292002102684600F08AFA002801D1002000E0012043B030BD000018
:204700002403001084660000FFFF00002C300000C8000000E020000091130000C465000089
:20472000CC4E0000900A0010D8190010090200001848006808210143164801600020164936
:20474000086016480068012101431448016000201349086070471349016070470168114A35
:204760004A40026070470D480068082101430B48016000200C49086070470A480B49086016
:20478000704700200A490860704706480849086070470000008002508C400440008003505D
:2047A00084400440FF0F0000AC400440200003500400035002202C49086002202B490860EC
:2047C00002202B49086002202A4908602A48006880218901014328480160284800681021BB
:2047E0008843264908602648264908602848006827490860704780B523480068234988422D
:20480000FAD32148006880098005800D00F05CFA20A20CCA00F070FA00F030FB02BD00B598
:204820001E48006819498842FAD31C48006880098005800D00BD00B51948006813498842E9
:20484000FAD31748006880098005800D00BD00B5144800680D498842FAD3124800688009BB
:204860008005800D00BD000074400440784004407C4004408040044080800440388204402F
:204880000F0B010000C0014010C00140FFFFFF7F0CC0014052B81E85EB313E4014C0014006
:2048A00018C001401CC0014080B52F48D0212F4A11602F4909688022D2000A432C490A60B2
:2048C0002C492D4A116001212C4A116001212C4A116001212B4A11602B49096801220A430C
:2048E00029490A6029490968802212010A4327490A600121264A1160002141600221416094
:204900000168FF22C8320A43026002214160FFE7017B4907FCD400F0B1F901BDF0B51D4ABA
:204920001D4B0400072901D20D0000E007250026114F3E6002E006781E60401C2E00751ED0
:20494000002EF8D115786D07FCD5082902D305781D60401C1D682570641C491E0029F1D146
:20496000044805490860F0BD000004406C40044000800150FF0F0000001001506040044030
:2049800064400440704004400480044080800440948004400C0004400800044080B50520E1
:2049A0006946087002216846FFF7B8FF6846407802BD80B506206946087001216846FFF7E5
:2049C000ADFF01BD034872B6AA2101605521016062B670470840004000B538483849D122F7
:2049E000384B1A60D122384B1A6001229823CA5080228A5880235B01134380310B6080213C
:204A0000C1600021416017210160F2218162072181600321C160017A06220A40002AFAD1F4
:204A2000432141608020800328490860802028490870802080032749086000BD38B51F4CDC
:204A4000207A0E210140022904D004290ED00C290CD024E00F252800451E002805D0210050
:204A60001D48FEF739F80028F5D11CE01B4840891A49C988884203D269461848FEF72CF81A
:204A80002068009000991548FEF736F800983B2804D11348808E401C1149888603E060693C
:204AA00000902068009031BD80B504490A7D520601D5FEF711F801BD0000000000800040AD
:204AC00000800440A8400440A440044080E200E015E400E000E100E07C04001070040010CE
:204AE00024030010FCB5828800273B00002400260568AD5C002C02D10CB43B2E17D0CE596C
:204B0000365D002E09D1002C0ED10CBC00275B1C521C468932402E00EAE7AE4202D00CBC51
:204B20003F1DE3E7641CF2E7BF087F1C00E00027C188CB1AC38082800097FFBDF0B5868814
:204B400047890025156002B406E01470521C00241470002923D0C0BC0468345D761C3E4010
:204B6000491EC0B43B2C13D0002BEED0303C0A2C05D3022B0AD0113C052C07D80A340C4FB0
:204B8000FF5C16687E4334191460E2E7042506E0002900D1AD1E2D1F064C002262701CBCB3
:204BA000611AC488611AC180828008352800F0BDEC670000F0190010FFB513000F4A0C24A2
:204BC00061435618B478641E6408A4003188CA08766849074F0F06D0A74400BF367802E0DE
:204BE000368800E036680649CC19E47FCC730C76029601920096FEF78BFCFFBDCC4E00000E
:204C00004C040010F8B504000F0015000026002600E0761CFFF7C2FEC00705D58020400268
:204C20008642F6D300200FE0E80701D5032602E00226FFF7BEFE38BA606026716908241D2F
:204C40002000FFF76BFE0120F2BD10B582B00400FFF7AFFE2004D7210143009104216846A3
:204C6000FFF75CFEFFF79AFEC00705D5002015498842F7D2401CFAE7012016BD80B5AB2073
:204C80006946087001216846FFF748FE01BD10B582B00400FFF78DFE2002D82101430091B7
:204CA00004216846FFF73AFEFFF778FEC00705D5002004498842F7D2401CFAE7012016BDB5
:204CC00000000000FF0F0000010007D5F446404200F004F80122D2071143604742221201D3
:204CE000D21E004207D002D4521E0018FCD5C10A4005120589187047F0B50E005E40012586
:204D0000ED072E40B446AE0ADF184C18F44208D2F7420ED2640D01D07F0D12D10020614683
:204D2000F0BD05D1F74201D87F0D05D10020C143F0BDFBD1640DF9D00020C14349054908E2
:204D40008FE0E419C902DB0229432B43DB0A460DC00231438E4630B487B295B27D432E0CC5
:204D6000ADB2140C7C43A419260C240425439CB27C43A419190C7943270CC919A4B20F044D
:204D80003C43090C000C97B247432E0CBE193543ADB2170C4743360CBF19A6B2BF193E047F
:204DA0003543240C3E0C36199FB24743BF19BCB23E0C89191F0C47437F183E043443390C5B
:204DC000704680B297B247432E0CBE193543ADB2170C4743360CBF19A6B2BF193E0435437F
:204DE000240C3E0C36199FB24743BF19BCB23E0C89191F0C47437F183E043443390C7746D6
:204E00003F0C90B278432E0C80190604ADB22E43050CA0B22D18120C7A435019020C80B271
:204E2000240CA4189AB27A43121914042043120C89181B0C7B43C91830BCEF0A394203D11E
:204E4000B61940414941641E6F12BF0DE41B0BDBFF19BC4211DA240500274208AE41784181
:204E6000614166463143F0BD641C05D1401C6141CF0201D34908F4E750E75DE7F4464A1887
:204E800005D200F00DF801D580174008604700F007F80121C907884200D908004042604735
:204EA000400DC90208430121C9070843520D40210901521A521C06D452421F3201D4D0400A
:204EC0007047C017704700207047000082030500900A00101458000042060202280C001086
:204EE000AC5900004A0602022A0C0010AE590000520602022C0C0010B0590000429C02027D
:204F00002E0C0010B25900004A9C0202300C0010B4590000629C0202320C0010B65900009A
:204F20006A9C0202340C0010B85900007A9C0202360C0010BA590000C2DA0202380C001093
:204F4000BC59000002E102023A0C0010BE59000042E702023C0C0010C059000082ED0202D7
:204F60003E0C0010C259000002FA0202400C0010C4590000929C0202420C0010C659000094
:204F80009A9C0202440C0010C8590000B29C0202460C0010CA590000BA9C0202480C0010C1
:204FA000CC590000CA9C02024A0C0010CE590000CADA02024C0C0010D05900000AE10202AD
:204FC0004E0C0010D25900004AE70202500C0010D45900008AED0202520C0010D659000056
:204FE0000AFA0202540C0010D8590000E29C0202560C0010DA590000EA9C0202580C0010E3
:20500000DC590000029D02025A0C0010DE5900000A9D02025C0C0010E05900001A9D0202F4
:205020005E0C0010E2590000D2DA0202600C0010E459000012E10202620C0010E65900009E
:2050400052E70202640C0010E859000092ED0202660C0010EA59000012FA0202680C001076
:20506000EC590000329D02026A0C0010EE5900003A9D02026C0C0010F0590000529D0202AC
:205080006E0C0010F25900005A9D0202700C0010F45900006A9D0202720C0010F65900007F
:2050A000DADA0202740C0010F85900001AE10202760C0010FA5900005AE70202780C00109A
:2050C000FC5900009AED02027A0C0010FE5900001AFA02027C0C0010005A0000829D0202D6
:2050E0007E0C0010025A00008A9D0202800C0010045A0000A29D0202820C0010065A000054
:20510000AA9D0202840C0010085A0000BA9D0202860C00100A5A0000E2DA0202880C00107D
:205120000C5A000022E102028A0C00100E5A000062E702028C0C0010105A0000A2ED020202
:205140008E0C0010125A000022FA0202900C0010145A0000CA5D0202920C0010165A0000B6
:20516000D25D0202940C0010185A0000DA5D0202960C00101A5A0000E25D0202980C001082
:205180001C5A0000EA5D02029A0C00101E5A00001A5E02029C0C0010205A0000225E0202EE
:2051A0009E0C0010225A00002A5E0202A00C0010245A0000325E0202A20C0010265A000021
:2051C0003A5E0202A40C0010285A0000D29D0202A60C00102A5A0000DA9D0202A80C0010F9
:2051E0002C5A0000F29D0202AA0C00102E5A0000FA9D0202AC0C0010305A00000A9E0202AF
:20520000AE0C0010325A0000EADA0202B00C0010345A00002AE10202B20C0010365A0000A9
:205220006AE70202B40C0010385A0000AAED0202B60C00103A5A00002AFA0202B80C0010BA
:205240003C5A0000229E0202BA0C00103E5A00002A9E0202BC0C0010405A0000429E020264
:20526000BE0C0010425A00004A9E0202C00C0010445A00005A9E0202C20C0010465A0000D8
:20528000F2DA0202C40C0010485A000032E10202C60C00104A5A000072E70202C80C0010DE
:2052A0004C5A0000B2ED0202CA0C00104E5A000032FA0202CC0C0010505A0000729E020241
:2052C000CE0C0010525A00007A9E0202580C0010545A0000929E0202D20C0010565A000028
:2052E0009A9E0202D40C0010585A0000AA9E0202D60C00105A5A0000FADA0202D80C001012
:205300005C5A00003AE10202DA0C00105E5A00007AE70202DC0C0010605A0000BAED020248
:20532000DE0C0010625A00003AFA0202E00C0010645A0000C29E0202E20C0010665A0000A3
:20534000CA9E0202E40C0010685A0000E29E0202E60C00106A5A0000EA9E0202E80C001045
:205360006C5A0000FA9E0202EA0C00106E5A000002DB0202EC0C0010705A000042E1020223
:20538000EE0C0010725A000082E70202F00C0010745A0000C2ED0202F20C0010765A00005F
:2053A00042FA0202F40C0010785A0000129F0202F60C00107A5A00001A9F0202F80C00105F
:2053C0007C5A0000329F0202FA0C00107E5A00003A9F0202FC0C0010805A00004A9F020278
:2053E000FE0C0010825A00000ADB0202000D0010845A00004AE10202020D0010865A0000A5
:205400008AE70202040D0010885A0000CAED0202060D00108A5A00004AFA0202080D0010E5
:205420008C5A0000F25D02020A0D00108E5A0000FA5D02020C0D0010905A0000025E020252
:205440000E0D0010925A00000A5E0202100D0010945A0000125E0202120D0010965A00001B
:20546000425E0202140D0010985A00004A5E0202160D00109A5A0000525E0202180D0010A9
:205480009C5A00005A5E02021A0D00109E5A0000625E02021C0D0010A05A0000E215030436
:2054A0001E0D0010A25A0000729C0304220D0010A65A0000C29C0304260D0010AA5A0000B5
:2054C000129D03042A0D0010AE5A0000629D03042E0D0010B25A0000B29D0304320D0010C5
:2054E000B65A0000029E0304360D0010BA5A0000529E03043A0D0010BE5A0000A29E0304E1
:205500003E0D0010C25A0000F29E0304420D0010C65A0000429F0304460D0010CA5A00008F
:20552000C1F30506980A00101C580000C9F30506A00A001024580000D1F30506A80A0010F8
:205540002C580000D9F30506B00A001034580000E1F30506B80A00103C580000529C05065C
:20556000C00A0010445800005A9C0506C80A00104C580000A29C0506D00A0010545800004F
:20558000AA9C0506D80A00105C580000F29C0506E00A001064580000FA9C0506E80A001022
:2055A0006C580000429D0506F00A0010745800004A9D0506F80A00107C580000929D050655
:2055C000000B0010845800009A9D0506080B00108C58000002320506100B00109458000035
:2055E0000A320506180B00109C58000012320506200B0010A45800001A320506280B00101D
:20560000AC58000022320506300B0010B45800002A320506380B0010BC5800003232050693
:20562000400B0010C45800003A320506480B0010CC580000E9F30506600B0010E458000057
:20564000F1F30506680B0010EC580000F9F30506700B0010F458000001F40506780B001033
:20566000FC58000009F40506800B001004590000E29D0506880B00100C590000EA9D0506B2
:20568000900B001014590000329E0506980B00101C5900003A9E0506A00B001024590000D4
:2056A000829E0506A80B00102C5900008A9E0506B00B001034590000D29E0506B80B00109E
:2056C0003C590000DA9E0506C00B001044590000229F0506C80B00104C5900002A9F050612
:2056E000D00B00105459000042320506D80B00105C5900004A320506E00B001064590000AC
:2057000052320506E80B00106C5900005A320506F00B00107459000062320506F80B001011
:205720007C5900006A320506000C00108459000072320506500B0010D45800007A320506F7
:20574000580B0010DC58000082320506080C00108C5900008A320507100C001094590000F9
:2057600092320507180C00109C5900009A320507200C0010A4590000701C20084A0D001004
:20578000CE5A0000C01C20088A0D00100E5B0000F00F20086A0D0010EE5A00000019200896
:2057A000AA0D00102E5B000008192008CA0D00104E5B000010192008EA0D00106E5B00009F
:2057C000181920080A0E00108E5B0000201920092A0E0010AE5B0000281920094A0E0010DA
:2057E000CE5B0000301920096A0E0010EE5B0000381920098A0E00100E5C0000401920092F
:20580000AA0E00102E5C000048192009CA0E00104E5C000000000000D700000001F7180033
:205820000C00000002F718009000000003F718000B00000004F718009900000005F71800DE
:205840000200000000000000D700000000000000D700000000000000D700000000000000C1
:20586000D700000000000000D700000000000000D700000000000000D700000000000000CC
:20588000D700000000000000D700000000000000D700000000000000D700000000000000AC
:2058A000D700000000000000D700000000000000D700000000000000D7000000000000008C
:2058C000D700000000000000D700000000000000D700000000000000D7000000000000006C
:2058E000D700000001F718000C00000002F718009000000003F718000B00000004F71800E4
:205900009900000005F718000200000000000000D700000000000000D7000000000000002A
:20592000D700000000000000D700000000000000D700000000000000D7000000000000000B
:20594000D700000000000000D700000000000000D700000000000000D700000000000000EB
:20596000D700000000000000D700000000000000D700000000000000D700000000000000CB
:20598000D700000000000000D700000000000000D700000000000000D700000000000000AB
:2059A0000000000000000000D700000004680468046800AC00AC019D019D019D019D019D5E
:2059C00000AC08150A7700AC00AC019D019D019D019D019D00AC08150A7700AC00AC019DCF
:2059E000019D019D019D019D00AC08150A7700AC00AC019D019D019D019D019D00AC0815AE
:205A00000A7700AC00AC019D019D019D019D019D00AC08150A77019D019D019D019D019D37
:205A200000AC00AC00AC00AC00AC00AC00AC019D019D019D019D019D00AC08150A7700ACA6
:205A400000AC019D019D019D019D019D00AC08150A7700AC00AC019D019D019D019D019DCC
:205A600000AC08150A7700AC00AC019D019D019D019D019D00AC08150A7700AC00AC019D2E
:205A8000019D019D019D019D00AC08150A77019D019D019D019D019D00AC00AC00AC00AC7E
:205AA00000ACE90367000000810000008100000081000000810000008100000081000000E1
:205AC0008100000081000000810000008100313131313100000000000000000000000000CD
:205AE0000000000000000000000000000026564D3032203031303100000000000000000099
:205B000000000000000000000000000000813131313131000000000000000000000000000F
:205B200000000000000000000000000000263131313131000000000000000000000000004A
:205B400000000000000000000000000000263131313131000000000000000000000000002A
:205B600000000000000000000000000000263131313131000000000000000000000000000A
:205B80000000000000000000000000000026313131313100000000000000000000000000EA
:205BA0000000000000000000000000000026313131313100000000000000000000000000CA
:205BC0000000000000000000000000000026313131313100000000000000000000000000AA
:205BE00000000000000000000000000000263131313131000000000000000000000000008A
:205C0000000000000000000000000000002631313131310000000000000000000000000069
:205C2000000000000000000000000000002631313131310000000000000000000000000049
:205C4000000000000000000000000000002631313131310000000000000000000000000029
:205C60000000000000000000000000000026000080B59B4800689A490860012800D029E130
:205C800098480078022845D10020974800680068F021490088420CD100F049F99248006828
:205CA00000688E49086090480068001D8E49086029E08D480068006846280CD100F030F98F
:205CC0008948006800688549086087480068001D8549086017E0844800680068CD21490099
:205CE000884210D181480068C00AC0B200280AD07D4800680068794908607D487A490860DB
:205D0000012078490870022073490860012072490860DFE07348007801285FD1754800682F
:205D20000068402810D100F0FBF87248006800686A49086070480078C0B240086E49087011
:205D40006E486C49086042E06D48006800680A2810D100F0E5F86A48006800685F49086057
:205D600065480078C0B24008634908706548644908602CE064480078411E634A1170C0B22F
:205D800000281BD000F0D3F85B480078C0070AD55848006800685149086056480068001DDF
:205DA0005449086013E05648006800684B49086053480068001D5249086008E000204949C4
:205DC00008700820504908700120444908600220414908600120404908607BE0414800787A
:205DE000002876D1002049480068006809280CD100F096F845480068006838490860434856
:205E00000068001D414908605CE040480068006837281AD135480068C00A3D490978C9B2FC
:205E200049083B4A1170C0B2002805D0384800788021014336480170344800680068274914
:205E400008603448314908603CE02F480078411E2D4A1170C0B200280CD000F068F82B48E1
:205E6000006800681D49086028480068001D2749086027E028480078401C27490870264816
:205E80000078072806D164201649087000202249087014E000201349087001200F4908605D
:205EA0001E4840891D49C988884203D218491B48FCF712FE164801781848FCF71DFE082029
:205EC0001149087002200449086001200249086000E000BF01BD00000440014018400140CA
:205EE0000040014088040010F002001000200250E4020010D0020010F4190010C402001046
:205F0000CC020010BC02001089040010E0020010F5190010D4020010F6190010B002001061
:205F20000848006808490140064801607047054800688021090101430248016000200349F6
:205F40000860704700800250FFF7FFFF002002500000ECD800FFFFDF1A0000000000EBD86C
:205F600000FFFFDF1B0000000013F7F8FFFFFFDF010000000012F7F8FFFFFFDF020000006B
:205F80000000ECF8FFFFFFDF030000000000EBF8FFFFFFDF0400000000E1F7F8FFFFFFDFCF
:205FA0000500000000E2F7F8FFFFFFDF0600000000E3F7F8FFFFFFDF0700000000E4F7F8A1
:205FC000FFFFFFDF0800000000E5F7F8FFFFFFDF0900000000E6F7F8FFFFFFDF0A00000069
:205FE00000E7F7F8FFFFFFDF0B00000000E8F7F8FFFFFFDF0C00000000E9F7F8FFFFFFDF71
:206000000D00000000EAF7F8FFFFFFDF0E00000000CFF7F8FFFFFFDF0F000000000000C047
:20602000FFFFFFDF10000000000000C0FFFFFFDF11000000000000C0FFFFFFDF1200000019
:20604000000000C0FFFFFFDF13000000000000C0FFFFFFDF14000000000000C0FFFFFFDF45
:2060600015000000000000C0FFFFFFDF16000000000000C0FFFFFFDF17000000000000C0E6
:20608000FFFFFFDF18000000000000C0FFFFFFDF19000000C00A0010C80A00103C0C001043
:2060A0003E0C00103A0C0010980A0010320C0010340C0010D00A0010D80A0010500C001098
:2060C000520C00104E0C0010A00A0010460C0010480C0010E00A0010E80A0010640C0010EC
:2060E000660C0010620C0010A80A00105A0C00105C0C0010F00A0010F80A0010780C001040
:206100007A0C0010760C0010B00A00106E0C0010700C0010000B0010080B00108C0C001091
:206120008E0C00108A0C0010B80A0010820C0010840C0010880B0010900B0010B40C0010E1
:20614000B60C0010B20C0010600B0010AA0C0010AC0C0010980B0010A00B0010C80C001044
:20616000CA0C0010C60C0010680B0010BE0C0010C00C0010A80B0010B00B0010DC0C001098
:20618000DE0C0010DA0C0010700B0010D20C0010D40C0010B80B0010C00B0010F00C0010EC
:2061A000F20C0010EE0C0010780B0010E60C0010E80C0010C80B0010D00B0010040D00103F
:2061C000060D0010020D0010800B0010FA0C0010FC0C0010000001000200010003000100AC
:2061E000020001000400010002000100030001000200010005000100020001000300010080
:2062000002000100040001000200010003000100020001000600010002000100030001005E
:2062200002000100040001000200010003000100020001000500010002000100030001003F
:2062400002000100040001000200010003000100020001000700010002000100030001001D
:206260000200010004000100020001000300010002000100050001000200010003000100FF
:206280000200010004000100020001000300010002000100060001000200010003000100DE
:2062A0000200010004000100020001000300010002000100050001000200010003000100BF
:2062C0000200010004000100020001000300010002000100F8B401684218446861085118BF
:2062E0008368E40701D54C461B190C3000908A422BD01578521C03262E4002D11678F61C94
:20630000521C28090F2807D110780F30521C03E01778521C1F705B1C761EF9D10028E6D078
:206320001678521CAF0803253D40032D01D11578521C2D0275195D1B801CD8D02E786D1C60
:206340001E705B1C401ED2D0F8E70098F2BC704710B5FEF741FBFBF7D3FEFEF704FAFEF7BB
:206360000CFAFEF7E5F9FEF725FA002408E02000C0B2FDF78CFE2000C0B2FDF751FE641CBF
:206380000E2CF4D30D20FDF76AFE00F009F8FDF72FFE024800688047F9E700BFE819001038
:2063A00009480021016009494160002181600849084A116007210160704707480068401CAE
:2063C000054908607047000010E000E07FBB00000000C0C020ED00E0EC190010EC66000072
:2063E000F8660000B06700000467000010670000B86700001C67000028670000346700007A
:20640000406700004C6700005867000064670000706700007C670000322B00000000000081
:206420009B410000A9410000554100009D43000015440000C942000005430000D74200005B
:20644000E9420000114300005D4300003943000045420000854200001943000070B40121B1
:20646000002313E00468001D0C4202D04D466D1E64192360241D121F042AFAD22500960711
:2064800001D52380AD1C0A4000D02B700268001D002AE7D170BC704710B50749794418319E
:2064A000064C7C44163404E0081D0A68891888470100A142F8D110BD0800000024000000EF
:2064C0009DFFFFFF700F0000900A00100000000005FEFFFF1E030000F4010000D000001002
:2064E000736574706172616D20313430302025752C25752C312C25753B0D0A0073657470A9
:206500006172616D20313430302025752C25752C302C25753B0D0A006F706973746172748B
:20652000726563656976652031313232333334343B0D0A0000F00BF8002801D0FFF7ACFFE5
:206540000020C046C046FFF703FF00F002F80120704780B500F002F801BD000007463846AD
:2065600000F002F8FBE7000080B5C046C046024A11001820ABBEFBE7260002004D6164658F
:206580002064726562657A67206E656761746976650D0A003C466C61736820577269746519
:2065A000204572726F723E0D0A0D0A003C626F6F747374617475733A2025733E0D0A0D0A53
:2065C000000000003C626F6F7477726974653A2025732C25733E0D0A0D0A00004472656201
:2065E000657A6720506F7369746976650D0A000044726562657A67204E65676174697665B5
:206600000D0A000030313233343536373839414243444546000000003C57524F4E4720498F
:206620004E5055543E0D0A0D0A0000003C4C4F414420504152414D3E0D0A0D0A000000004E
:206640003C5341564520504152414D3E0D0A0D0A000000003C44454641554C54205041528E
:20666000414D3E0D0A0D0A003C626F6F7465726173653A2025733E0D0A0D0A00C06700009B
:20668000E4670000E8670000C8670000D0670000415244203C25752C2025753E0D0A0000F2
:2066A000737769746368206F66663B0D0A0000003C5645523A2025733E0D0A0D0A00000014
:2066C0006D616B6570686F746F3B0D0A000000005B2E2E2E5D2048595045524C494E4B0088
:2066E00073687574646F776E3B0D0A00676574706172616D20000000736574706172616DFE
:206700002000000068797065726C696E6B200000626F6F7477726974652000006D616B65C6
:2067200070686F746F3B00006F706973746172743B0000006F70697374617475733B00001C
:2067400063707572657365743B000000626F6F7465726173653B0000626F6F747374617424
:2067600075733B006C6F6164706172616D3B000073617665706172616D3B00007273746155
:206780006C6C70726F663B00204E65772056616C3A200000C046C046C046C046FFF7CAFE72
:2067A00001020408102040800D0A0D0A0000000054504153533A20006765747665723B00FF
:2067C0004552522C3000000046554C4C00000000454D5054590000002056616C3A20000015
:2067E000D50300004F4B00004552520000100A0AFEE7D20001620311F30C010001F1FF28D3
:206800006101F12F2843672B10F137084002A81900100A100117003C09120A0412060412E1
:2068200040041003BC020010C404211012090412370412D41012E09412460C129A0812E444
:206840001063EC0E447001FF03C050500107008C0C12060C83EC1224410871D961095202FA
:206860000861FB520408520508520608520708520808520908520A08420B5143010C0751C7
:2068800016F132081003313600007F0416930912B904100301380000150412A90412DD0422
:2068A000140BBD390000593A00002D3B0000954DF00429453D00008D3E381011506172619F
:2068C0006D2049443A253475257325240D0A3C0A740E2025243E0D0A0D0A00737875690038
:2068E000EC1658800100EC170C036408FFFFFFFFFFFFFFFFFFFFFFFFFFFFFFFFFFFFFFFF53
:20690000FFFFFFFFFFFFFFFFFFFFFFFFFFFFFFFFFFFFFFFFFFFFFFFFFFFFFFFFFFFFFFFF97
:20692000FFFFFFFFFFFFFFFFFFFFFFFFFFFFFFFFFFFFFFFFFFFFFFFFFFFFFFFFFFFFFFFF77
:20694000FFFFFFFFFFFFFFFFFFFFFFFFFFFFFFFFFFFFFFFFFFFFFFFFFFFFFFFFFFFFFFFF57
:20696000FFFFFFFFFFFFFFFFFFFFFFFFFFFFFFFFFFFFFFFFFFFFFFFFFFFFFFFFFFFFFFFF37
:207FE000FFFFFFFFFFFFFFFFFFFFFFFFFFFFFFFFFFFFFFFFFFFFFFFFFFFFFFFF6A7ECA0EDD
:00000001FF
