:020000040000FA
:20000000001F00105D1700008F14000091140000931400009514000097140000C462FFEFE6
:20002000000000000000000000000000991400009B140000000000009D1400000D040000A2
:20004000A1140000A3140000A5140000A7140000A9140000AB140000AD140000AF140000C0
:20006000B1140000B3140000B5140000B7140000B9140000BB140000BD140000BF14000020
:20008000C1140000C3140000C5140000C7140000C91400007B0500000000000000000000A3
:2000A000CD140000CF140000D114000000000000D3140000D5140000D7140000D9140000EF
:2000C0006E573CF15A23D87EC2BD9E4DE73B68B36351E1B7B979379EFFFFFFFFFFFFFFFF69
:2000E000FFFFFFFFFFFFFFFFFFFFFFFFFFFFFFFFFFFFFFFFFFFFFFFFFFFFFFFFFFFFFFFF20
:20010000FFFFFFFFFFFFFFFFFFFFFFFFFFFFFFFFFFFFFFFFFFFFFFFFFFFFFFFFFFFFFFFFFF
:20012000FFFFFFFFFFFFFFFFFFFFFFFFFFFFFFFFFFFFFFFFFFFFFFFFFFFFFFFFFFFFFFFFDF
:20014000FFFFFFFFFFFFFFFFFFFFFFFFFFFFFFFFFFFFFFFFFFFFFFFFFFFFFFFFFFFFFFFFBF
:20016000FFFFFFFFFFFFFFFFFFFFFFFFFFFFFFFFFFFFFFFFFFFFFFFFFFFFFFFFFFFFFFFF9F
:20018000FFFFFFFFFFFFFFFFFFFFFFFFFFFFFFFFFFFFFFFFFFFFFFFFFFFFFFFFFFFFFFFF7F
:2001A000FFFFFFFFFFFFFFFFFFFFFFFFFFFFFFFFFFFFFFFFFFFFFFFFFFFFFFFFFFFFFFFF5F
:2001C000FFFFFFFFFFFFFFFFFFFFFFFFFFFFFFFFFFFFFFFFFFFFFFFFFFFFFFFFFFFFFFFF3F
:2001E000FFFFFFFFFFFFFFFFFFFFFFFFFFFFFFFFFFFFFFFFFFFFFFFFFFFFFFFFFFFFFFFF1F
:20020000FFFFFFFFFFFFFFFFFFFFFFFFFFFFFFFFFFFFFFFFFFFFFFFFFFFFFFFFFFFFFFFFFE
:20022000FFFFFFFFFFFFFFFFFFFFFFFFFFFFFFFFFFFFFFFFFFFFFFFFFFFFFFFFFFFFFFFFDE
:20024000FFFFFFFFFFFFFFFFFFFFFFFFFFFFFFFFFFFFFFFFFFFFFFFFFFFFFFFFFFFFFFFFBE
:20026000FFFFFFFFFFFFFFFFFFFFFFFFFFFFFFFFFFFFFFFFFFFFFFFFFFFFFFFFFFFFFFFF9E
:20028000FFFFFFFFFFFFFFFFFFFFFFFFFFFFFFFFFFFFFFFFFFFFFFFFFFFFFFFFFFFFFFFF7E
:2002A000FFFFFFFFFFFFFFFFFFFFFFFFFFFFFFFFFFFFFFFFFFFFFFFFFFFFFFFFFFFFFFFF5E
:2002C000FFFFFFFFFFFFFFFFFFFFFFFFFFFFFFFFFFFFFFFFFFFFFFFFFFFFFFFFFFFFFFFF3E
:2002E000FFFFFFFFFFFFFFFFFFFFFFFFFFFFFFFFFFFFFFFFFFFFFFFFFFFFFFFF21436587CA
:200300000121C006C00E81408B48016070470121C006C00E81408948016070470121C00633
:20032000C00E814086480160704780B5854800682021884383490860834800210160002031
:20034000009003E000BF0098401C00900098C828F8D37E48012101607D48012101607C483F
:20036000002101607A480121016079480068C007FBD5784823210160724800688021884303
:200380007049086074480068C007FBD5734803210160734801210160714800210160704810
:2003A000012101606E480068C007FBD5AD480121016001BD30B504000025002D02D1002C95
:2003C00000D10124674800212200002301F02AF86549884203D2654900220A6009E06449E2
:2003E000884203D2614901220A6002E05F4902220A60E1B29B4A116030BD80B5FFF795FF7A
:200400000120FFF7D7FFC549086001BD80B596480068401C9449086094480068401C934923
:200420000860BF480068002804D0BD480068401EBB4908600020C043FFF770FF01BD80B537
:200440000A00BC4900230B600021002301F046F8874A002300F0E6FF002903D1002801D1CC
:2004600001200021401E0002000A824908600020C043FFF745FFAF480721016001BD80B5CD
:20048000A749086001E000F083F9A54800680028F9D101BD00B57849A0220A60A1490860BE
:2004A000A14801210160A048002101609E48012101609D480068C007FBD59C4801210160B2
:2004C00020480068402188431E49086000BD58B50E00140096490968802212020A43944935
:2004E0000A60FFF7D7FF300000212200002300F0F5FFFA221201002300F094FF802252047F
:200500000023994204D301D8904201D38A4800218A4A10608A4803210160A648AA210160DF
:20052000A4485521016051BDA248AA210160A148552101607047000000E100E080E100E05B
:2005400080E200E038820440208004404080044044800440088004400C800440708004409B
:2005600074800440006CDC02012D310110C00340015A620200B572B6FEE780B5834800689D
:20058000C0B240084007400FC0B2032823D1874800789E21084207D06846854909780170E5
:2005A0001520FFF7BBFE5CE0C00757D58248006882497F4A12780A547F480068401C7E4928
:2005C00008607D4800688021C900884246D37A480021016042E0C0B2022814D1764800682C
:2005E0007649734A12780A5473480068401C72490860714800688021C90088422ED36E48E9
:20060000002101602AE0C0B2062827D0C0B2012824D166480078800620D5694800686949BB
:200620000968884214D0664800686749085C64490968491C624A11605D49087060480068A3
:200640008021C900884209D35D480021016005E05E480068022188435C4908601520FFF74A
:200660005DFE01BD78800440E81A0010EC1A001040420F0014E000E02480044010B50C00DF
:200680002B490968524A0A4329490A6051490968072291434F4A11604E49096801220A4326
:2006A0004C490A604C490968072291434A4A11604949096801220A4347490A6047491A22FA
:2006C0000A601A2100F038FF454983220A700009210000F031FF0100090A3C4A11608021AB
:2006E000490000F029FF324801703D48032101702648072101601520FFF702FE2E480021DB
:2007000001603848002101602E48002101602C48002101602D480521016010BDE01A0010B5
:20072000E41A0010D0800440D4800440D88004408080044010E000E0FFFFFF00044000404E
:200740000040004000B572B620490968890708D41E49096802220A431C490A601449087009
:2007600011E018490968184A505416480068401C14490860134800688021C900884202D3FD
:2007800010480021016062B600BD0000088000403548006802218843334908603348006848
:2007A000042188433149086030BF7047148000400080004008400040F01A00101812001051
:2007C000FC1A0010F81A0010181600100480004040100100A4400440A840044098800440CE
:2007E0000C800040F41A0010F2B584B005000024002D03D5684205000124FFE7002700E045
:200800007F1C0A2F12D22E0030000A2100F094FE050030000A2100F08FFE68463031C15513
:200820006846C01900214170002DE9D1684600F09AFE0600002C07D068462D2181556846B9
:20084000801900214170761C0020711E05E0049A6B461B5C5354401C491EB042F7D304987F
:200860000021815505B0F0BD0080034010ED00E080B5C0B2FFF766FF01BD10B5040003E013
:200880002078FFF7F5FF641C20780028F8D110BD10B504003020FFF7EBFF7820FFF7E8FF92
:2008A0002000000F7349085CFFF7E2FF2000000E0007000F6F49085CFFF7DAFF2000000DB6
:2008C0000007000F6B49085CFFF7D2FF2000000C0007000F6749085CFFF7CAFF2000000BE3
:2008E0000007000F6349085CFFF7C2FF2000000A0007000F5F49085CFFF7BAFF20000009F7
:200900000007000F5B49085CFFF7B2FF2007000F5849085CFFF7ACFF10BDE0B56946FFF72F
:2009200063FF6846FFF7A9FF07BD10B50C00002801D0FFF7A2FF002C02D02000FFF79DFF34
:20094000A048FFF79AFF10BD10B50C00FFF795FF2000FFF7E2FF9B48FFF78FFF10BD38B5E0
:200960000C001500002801D0FFF787FF002C02D02000FFF782FF2800FFF7CFFF9148FFF791
:200980007CFF31BD10B50100002000221CE0AB4B1B68984C1C40A94B1C60A84B1B688024A7
:2009A000E4001C43A54B1C604000A44B1B68DB0502D5030001201843A04B1B688E4C1C40FC
:2009C0009E4B1C604900521CD2B2082A09DA0B06DDD59A4B1B688024A4001C43974B1C6032
:2009E000DBE7C0B210BD00009A4800689A490143984801609948002101609948002101607E
:200A0000A14800210160A14801210160A0480068A04901439E4801609D4800689E490140C6
:200A20009B48016085480068042101438348016082480068C021C9000140804801607047AB
:200A400010B50300080011004A1E00290FD00100186848401B1D002101E04000491C202914
:200A6000F1D20028F9D54400A3486040F6E710BD00000000AC1600000A00D206D20EC906F1
:200A8000C90E4942C84170470A00D206D20EC906C90ED0417047F4B507004C680D681826ED
:200AA00015E02900022070430422504338184068201AFFF7E9FF04006C40210008207043CE
:200AC0003858281AFFF7E0FF05006540761E002EE7D17868201A009948603868281A009975
:200AE0000860F1BDF1B586B00D0004260F240020049015E02000310000F01EFD04214843E5
:200B000001AF00902000310000F016FD0421484301A908580002295D411800983950641E03
:200B20000020C0438442E5D10698A6490968016001240DE00420604306990818001F006898
:200B4000A1490968401804216143069A5050641C322CEFD3002426002500009427002BE004
:200B6000032104206043069A1058C019009A8018FFF782FF04216143069A50500700009858
:200B800039180420684301AA1058C019009A8018FFF772FF0421694301AA50500090761C72
:200BA000641C2000322100F0C7FC0C006D1C2800042100F0C1FC0D00962ED1D307B0F0BD27
:200BC00000000000AC1700007CB505000E00022E0ED300240AE028680090686801902A0044
:200BE00069467D48FFF757FFA41C0835B442F2D373BD0000FFFDFFFFFFFBFFFF1548006896
:200C00007649014313480160754800210160754800688021C90001437248016072480068C6
:200C2000724901407048016070476F4909688022D200104008436C4908607047FC3F005051
:200C4000694909688022D20010408143664801607047000080800440400005001C400440FA
:200C60006040044080B5624800680421884360490860B920FFF786FE5D480068042101437F
:200C80005B48016001BD000064400440684004400080005004060000FFFEFFFF80B5544818
:200CA00000680421884352490860AB20FFF76AFE4F480068042101434D48016000200090A2
:200CC00002E00098401C00900098B42189008842F7D301BD80B546480068042188434449BE
:200CE00008600420FFF74EFE41480068042101433F48016001BD0000B71DC10438B504009C
:200D00003B48006804218843394908600520FFF739FE002505E0FFF707FC0120FFF7AFFBF8
:200D20006D1CA5420ED20020FFF72CFE00900098C007F0D42E480068042101432C48016054
:200D4000012006E02A4800680421014328480160002032BDF4B504000D001E00FFF79EFFFE
:200D6000002780204000454300982818070020480068042188431E4908600320FFF702FE5D
:200D80003800000CC0B2FFF7FDFD3800000AC0B2FFF7F8FD3800C0B2FFF7F4FD04E0002079
:200DA000FFF7F0FD2070641C3000461E0028F6D10F480068042101430D480160FFF752FF98
:200DC000F1BD0000100200101402001080B5FFF781FFFFF747FF01BD181A001040000100F5
:200DE0006C40044000800150FC3F0150FFFBFFFFFC3F005080B57E4A904701BD00B585B0A7
:200E00003222019202900391694601A8FFF7F2FF009805B000BD10B586B033240194029102
:200E200003920493FA21890000F086FB0590694601A8FFF7DFFF009806B010BD00B585B0AB
:200E40003423019302910392FA21890000F074FB0490694601A8FFF7CDFF009805B000BDC4
:200E600010B504008908002903D02000FFF7ACFE241D10BD80B580208001C02252010021A2
:200E8000FFF7DEFD02BDF0B5C3B08027BF018020800100900025002401200190002618E079
:200EA000401CFF2809D839000F007F1C097802AA125C9142F4D000200190402221000098ED
:200EC000FFF7BEFD040080204000009908180090761C602E1AD2FFF727FB80235B000022F0
:200EE0008020C000311802A8FFF734FF8021490002A8FFF7B5FF4022290002A8FFF7A0FD70
:200F0000050001980028D8D00020CAE7904800680090002D02D1684601210170002C02D182
:200F20006846012141700198002802D0684601218170009843B0F0BD38B50400002572B666
:200F400021002000FFF75AFF050062B6002D01D000200DE072B6220021007E480068FFF74A
:200F60006DFF050062B6002D01D0002000E0012032BDF8B50700080016001C00002572B69F
:200F80000100FFF73BFF050062B6002D01D000200EE072B623003A0031006E480068FFF72D
:200FA0003AFF050062B6002D01D0002000E00120F2BD38B50224002508E021006648FFF728
:200FC000C3FC0A20FFF75BFA641C6D1C062D0CD2FFF7AAFA2000FFF7AFFF0028EDD121005E
:200FE0005E48FFF7B1FC002000E0012032BD0000F11FFF1FF8B5FFF7DCFF002802D10020D1
:20100000C04363E002278025AD01002604E07F1C802040012D181036602E4FD200241BE02F
:20102000FFF782FA80235B00002230198021C90041188C4680214900614349484018614622
:20104000FFF788FE80214900802040006043444A1018FFF705FF641C102CE1D380235B0188
:201060002A0039003E48FFF784FF0400002C03D03C48FFF702FC02E03B48FFF7FEFB280017
:20108000FFF706FC3948FFF7F8FB002C02D10120C0431BE028003249002200E0521C80231A
:2010A000DB009A42B3D204235343C358042454430C59A342F2D00220C04307E0FFF7DAFE77
:2010C000002802D00320C04300E00120F2BD000080F3088880F309888F46704710B5802048
:2010E000C000FFF7ADFD2248026822492248FFF736FC1E48FFF7C1FB1C492048FFF715FCD3
:20110000FFF712FA6420FFF7BAF90020C043FFF7FEF81520FFF7FBF872B6802040058021C5
:201120008901002206E004235343042454430C59C450521C802AF6D39B48012101609B48FE
:201140000168802080010068FFF7C2FF10BD0000B8170000E01A001068170000701700003A
:201160001802001098170000A0170000AC170000EC1A001020170000E4160000FC150000C4
:2011800010B5002424E0FFF7CFF98020C000FFF74CFDFA20FFF773F9FFF7C6F98020C00074
:2011A000FFF74EFDFA20FFF76AF9FFF7BDF98020C000FFF73AFDFA20FFF761F9FFF7B4F935
:2011C0008020C000FFF73CFDFA20FFF758F9641C962080008442D6D3FFF7CCF910BD38B585
:2011E00072B6FFF70AF9FA225200714801680120FFF76DF9FA2189006D480068FFF71FF9F2
:20120000E12149026A480068FFF738FAFFF7ECFBFFF7DCFDFFF7F2FC8020C000FFF705FD57
:2012200064496548FFF75EFC62B66448FFF725FB63496448FFF779FB5D4801686248FFF7BA
:2012400083FB5E48FFF719FB6048006800905F481F2101605E48FFF710FB0098C00703D59A
:2012600000215CA0FFF761FB0098800703D500215948FFF75AFB0098400703D50021574884
:20128000FFF753FB0098000703D500215448FFF74CFB0098C00603D5002152A0FFF745FB1A
:2012A0004648FFF7EAFA002405E0FFF73DF96420FFF7E5F8641C0A2CF7D3FFF7EFFCFA20BF
:2012C0008000FFF71BFDFFF7CDFC00214648FFF72CFBFFF7D8FD009044480268444945488A
:2012E000FFF73DFB68460078002844D042494348FFF71BFB68464078002813D03E494048BC
:20130000FFF713FB68468078002806D000213D48FFF70BFBFFF7E2FE08E000213A48FFF72C
:2013200004FB03E039493648FFF7FFFA38A13948FFF7FBFA2D480568FFF75CFE04002B48EE
:201340000068421B2A493348FFF709FB220032493048FFF704FB012C06D130492D48FFF7EE
:20136000E4FAFFF7BBFE1BE02D492A48FFF7DDFAFFF706FF14E025492048FFF7D6FA6846F7
:201380004078002806D01C491D48FFF7CEFAFFF7A5FE05E01D491A48FFF7C7FAFFF7F0FE2E
:2013A000FFF7C2F8FCE700000080044004200000E01A001000020010181A0010AC17000091
:2013C000D416000070160000141700003080044004170000504F520078170000801700004C
:2013E000881700005359530084160000E81A00102017000098160000441700002C17000020
:2014000038170000C016000014160000901700002E2E2E00F416000050170000B017000014
:20142000B4170000124224D0994228D970B500251B4202D00C00002109E000240126491882
:201440006441944200D3A41A7641F8D33100012601E0764109D2001864416D41A41A9D412C
:20146000F7D2A4185D41B619F5D3300022002B0070BD1B42D8D108B500F07EF808BD01D148
:201480009042D3D202000B00002100207047FEE7FEE7FEE7FEE7FEE7FEE7FEE7FEE7FEE7C3
:2014A000FEE7FEE7FEE7FEE7FEE7FEE7FEE7FEE7FEE7FEE7FEE7FEE7FEE7FEE7FEE7FEE7DC
:2014C000FEE7FEE7FEE7FEE7FEE7FEE7FEE7FEE7FEE7FEE7FEE7FEE7FEE7FEE730B443431C
:2014E00051435D18010C0C00130C5C432D1980B2434392B251430024C918644124040B0455
:20150000090C09195043C018694130BC704738B4012100220368001D002B0BD00468001D95
:201520000C4202D04D466D1E64192260241D1B1FF0D0FAE732BC7047094210D088420BD3DA
:201540000122002300185B418B4200D35B1A5241F8D319001000704701000020704708B5A9
:2015600000F00CF808BD010000E0491C0A78002AFBD1081A7047000070470000704738B4C1
:2015800001210268001D002A0FD00368C318446808300C4202D04D466D1E64191D682560AA
:2015A0001B1D241D121FECD0F8E732BC7047000010B5074979441831064C7C44163404E0E6
:2015C000081D0A68891888470100A142F8D110BD080000002800000037FFFFFFE818000026
:2015E000180200100000000097FFFFFF18000000D0EAFFFF00020010000000005354415211
:2016000054204150504C49434154494F4E2E2E2E00000000464C415348204E4F54204D416B
:2016200054434820424F4F540000000000F009F8002801D0FFF7BCFF0020FFF7D0FD00F009
:2016400002F80120704780B500F002F801BD00000746384600F002F8FBE7000080B5C04609
:20166000C046024A11001820ABBEFBE726000200535441525420424F4F544C4F41444552C3
:201680003A200000434845434B20424F4F542F464C41534800000000424F4F542F464C416B
:2016A000534820434845434B454420003031323334353637383941424344454600000000C6
:2016C000464C415348204D4154434820424F4F5400000000524C3031205645522E20312E02
:2016E00030000000424F4F5420434F4D504C45542000000055504441544520464C415348E1
:2017000020000000524553455420534F555243453A20000046434C4B2056414C3A2000005E
:2017200020415420286D53293A200000424F4F54204D454D3A200000464C415348204D45BC
:201740004D3A20004E4F5420454D5054590000005354415455533A2000000000C046C046F8
:20176000C046C046FFF762FF654F4B3A200000006545523A20000000455854520000000014
:201780005744545200000000424F445200000000454D505459000000774F4B3A20000000E7
:2017A0007745523A20000000FFFFFFFF0D0A00004F4B00004552520000000000FFFFFFFF2F
:2017C000FFFFFFFFFFFFFFFFFFFFFFFFFFFFFFFFFFFFFFFFFFFFFFFFFFFFFFFFFFFFFFFF29
:2017E000FFFFFFFFFFFFFFFFFFFFFFFFFFFFFFFFFFFFFFFFFFFFFFFFFFFFFFFFFFFFFFFF09
:20180000FFFFFFFFFFFFFFFFFFFFFFFFFFFFFFFFFFFFFFFFFFFFFFFFFFFFFFFFFFFFFFFFE8
:20182000FFFFFFFFFFFFFFFFFFFFFFFFFFFFFFFFFFFFFFFFFFFFFFFFFFFFFFFFFFFFFFFFC8
:20200000701F0010E96A0000236200002562000027620000296200002B620000E48AFDEFC7
:202020000000000000000000000000002D6200002F62000000000000316200004923000081
:202040003562000037620000396200003B6200003D6200003F620000416200004362000090
:202060004562000047620000496200004B6200004D620000E92E000051620000536200008A
:202080005562000057620000596200005B6200005D620000CF2400000000000000000000A6
:2020A0006162000063620000656200000000000067620000696200006B6200006D620000A1
:2020C000000000000000000000000000000000000000000000000000000000000000000000
:2020E00000000000000000000000000000000000000000000000000044564944524C3031BA
:202100000000000000000000000000000000000000000000000000000000000000000000BF
:2021200000000000000000000000000000000000000000000000000000000000000000009F
:2021400000000000000000000000000000000000000000000000000000000000000000007F
:2021600000000000000000000000000000000000000000000000000000000000000000005F
:2021800000000000000000000000000000000000000000000000000000000000000000003F
:2021A00000000000000000000000000000000000000000000000000000000000000000001F
:2021C0000000000000000000000000000000000000000000000000000000000000000000FF
:2021E0000000000000000000000000000000000000000000000000000000000000000000DF
:2022000030B5002300E00023002218E0022454430419648802255543455BAC420ED2022381
:202220005343C35A022454430419648802255543445302245443041963800123521C4C1E16
:20224000A242E3D3002BDED130BD0121C006C00E81408F48016070470121C006C00E814040
:202260008C480160704780B58B48006820218843894908608948002101600020009003E0D6
:2022800000BF0098401C00900098C828F8D3844801210160834801210160824800210160BF
:2022A0008048012101607F480068C007FBD57E4823210160784800688021884376490860E7
:2022C0007A480068C007FBD579480321016079480121016077480021016076480121016031
:2022E00074480068C007FBD5B3480121016001BD30B504000025002D02D1002C00D10124B7
:202300006D4800212200002303F056FF6B49884203D26B4900220A6009E06A49884203D28C
:20232000674901220A6002E0654902220A60E1B2A14A116030BD80B5FFF795FF0120FFF790
:20234000D7FF9E49086001BD80B5CD48012101609B480068401C9A4908609A480068002869
:2023600004D098480068401E9649086096480068002805D094480068401E9349086007E08C
:20238000914892490160BE480069401CBC4908610020C043FFF760FF01BD80B50A00CC4965
:2023A00000230B600021002303F062FF884A002303F002FF002903D1002801D101200021D5
:2023C000401E0002000A834908600020C043FFF73CFFBF480721016001BD00B579490860DE
:2023E00000E000BF774800680028FAD100BD00B57949A0220A6079490860A248012101602D
:20240000A048002101609F48012101609D480068C007FBD59C48012101601F48006840216D
:2024200088431D49086000BD58B50E00140097490968802212020A4394490A60FFF7D7FFB0
:20244000300000212200002303F012FFFA221201002303F0B1FE802252040023994204D321
:2024600001D8904201D39B4800219B4A10609B4803210160C048AA210160BF48552101600A
:2024800051BDBD48AA210160BB4855210160704700E100E080E200E0388204402080044087
:2024A0004080044044800440088004400C8004407080044074800440006CDC02012D31015E
:2024C00010C00340015A620200B572B6FEE780B595480068C0B240084007400FC0B2032801
:2024E00023D1924800789E21084207D068469049097801701520FFF7AFFE5CE0C00757D536
:202500008C4800688C498A4A12780A5489480068401C88490860874800688021C9008842B5
:2025200046D384480021016042E0C0B2022814D18048006880497E4A12780A547D480068BB
:20254000401C7C4908607B4800688021C90088422ED37848002101602AE0C0B2062827D0AF
:20256000C0B2012824D171480078800620D59848006898490968884214D0954800689649B3
:20258000085C93490968491C914A1160684908708F4800688021C900884209D38C4800216C
:2025A000016005E0A748006802218843A54908601520FFF751FE01BD78800440441B001057
:2025C000481B00104C1B001038020010E703000040420F0014E000E024800440D0800440FC
:2025E00010B50C0029490968974A0A4327490A609649096807229143944A11609349096836
:2026000001220A4391490A6091490968072291438F4A11608E49096801220A438C490A607D
:202620008C491A220A601A2103F050FE8A4983220A700009210003F049FE0100090AB14A3E
:2026400011608021490003F041FE394801708248032101703448072101601520FFF7F5FD7A
:20266000344800210160A84800210160594800210160574800210160A2480521016010BD68
:20268000C01A0010D4800440D88004408080044000B572B60020C0439B490968254A12689A
:2026A000914212D0984800682349085C96490968491C954A1160C0B2934909688022D20015
:2026C000914202D3904900220A6062B600BD000010E000E0FFFFFF00044000400040004047
:2026E00000B572B657490968890708D45549096802220A4353490A600D49087011E03549BD
:202700000968354A505433480068401C31490860304800688021C900884202D32D48002185
:20272000016062B600BD0000088000401480004000800040501B0010740A001000B5734A8C
:20274000126810239A43714B1A60714A126890235B0213436E4A13606E4A022313606E4AEB
:202760000223136003F0B2FD401E00026B4901436B48016000BD00000840004000B5082889
:2027800000D3002066490968FF229143644A1160634909680122824080235B0413430B436A
:2027A0005F490B60042141435E4A89580029F9D55B4800685C4A024059480260480001D5C9
:2027C000002003E0080080098005800D00BD00005C1B0010581B0010740E001080B50020A5
:2027E000FFF7CCFFCD2109014843800A552148430A2103F06BFD4D49098802224A434B4918
:20280000891848840120FFF7B9FFCD2109014843800A552148430A2103F058FD43490988DE
:2028200002224A4341498918888540480088401C3E4908803D480088052802DB3B48002179
:20284000018001BD0480004040100100A4400440A8400440988004400C80004010B50022C1
:20286000002303E004881219801C5B1C8B42F9D3100003F02BFD10BD10B50400002C01D031
:20288000012C3ED105210A206043284A10182230FFF7E4FF02216143244A511849880222B1
:2028A0004A430E216143214B59188918C88007210E2060431D4A1018801DFFF7A1FC022018
:2028C00060431A4908180E216143184A51188989C18602206043154908184088401C022151
:2028E0006143124A51184880022060430F4908184088072805DB022044430C48001900215C
:20290000418010BD04800040541B001038820440808004407440044078400440010020008F
:2029200000C0014010C00140FFFFFFF8841A0010F0B503000024E443002000E0401C9042C1
:2029400010D20124002500E06D1C4E5D002E06D01E18765D4F5DBE42F6D00024E443012C40
:20296000ECD101E00020C043F0BDFCB502000024E4430023002003E05B1C0024E443401CA7
:20298000019CA04213D20124002500E06D1C4E5D002E06D01618765D4F5DBE42F6D00024DA
:2029A000E443012CEBD1009CA342E5D101E00020C043F6BD70B504000025002004E0EDB228
:2029C00095420FD06D1C401C984209D2265CC9B28E42F4D0265C002EF5D10020C04301E09C
:2029E0000020C04370BDF2B584B005000024002D03D5684205000124FFE7002700E07F1C22
:202A00000A2F12D22E0030000A2103F05FFC050030000A2103F05AFC68463031C155684646
:202A2000C01900214170002DE9D1684603F065FC0600002C07D068462D21815568468019E0
:202A400000214170761C0020711E05E0049A6B461B5C5354401C491EB042F7D304980021D5
:202A6000815505B0F0BD1CB56A4603001B171B071B0F4B4CE35C1370020012161207120F5F
:202A8000474B9A5C6B465A70020012151207120F434B9A5C6B469A70020012141207120F2F
:202AA0003F4B9A5C6B46DA70020012131207120F3B4B9A5C6B461A71020012121207120F22
:202AC000374B9A5C6B465A71020012111207120F334B9A5C6B469A710007000F304A105C77
:202AE0006A46D0710022002000230DE0002A04D16C46E45C302C00D00122002A03D06C46A4
:202B0000E45C0C54401C5B1C082BEFD3002802D130220A54401C00220A5413BDF0B5010050
:202B20000022002009E00B5C303B0A2B03D30B5C413B062B00D2521C401C0828F3D3002ABD
:202B400001D100201BE0002000260023541E00250BE00E5D303EF606F60E674FBE5DAE4005
:202B6000064330005B1C2D1D641E934207D20E5D303E0A2EEDD30E5D413E062EE9D3F0BD93
:202B800080B5C0B2FFF7ACFD01BD10B5040003E02078FFF7F5FF641C20780028F8D110BD2D
:202BA0000468000010B504003020FFF7E9FF7820FFF7E6FF2000000FA349085CFFF7E0FFEB
:202BC0002000000E0007000F9F49085CFFF7D8FF2000000D0007000F9B49085CFFF7D0FF48
:202BE0002000000C0007000F9749085CFFF7C8FF2000000B0007000F9349085CFFF7C0FF5C
:202C00002000000A0007000F8F49085CFFF7B8FF200000090007000F8B49085CFFF7B0FF6F
:202C20002007000F8849085CFFF7AAFF10BDE0B56946FFF7D8FE6846FFF7A7FF07BD10B5DA
:202C40000C00002801D0FFF7A0FF002C02D02000FFF79BFFA348FFF798FF10BD10B50C0016
:202C6000FFF793FF2000FFF7E2FF9E48FFF78DFF10BD38B50C001500002801D0FFF785FF1F
:202C8000002C02D02000FFF780FF2800FFF7CFFF9448FFF77AFF31BD38B50C001500002846
:202CA00001D0FFF772FF2000FFF7C1FF2C20FFF767FF2800FFF7BBFF8A48FFF766FF31BD6B
:202CC000F8B504000F0015001E00002C02D02000FFF75BFF002C02D03800FFF756FF2800EA
:202CE000FFF7A5FF2C20FFF74BFF3000FFF79FFF7C48FFF74AFFF1BDF06600000A00D20601
:202D0000D20EC906C90E4942C84170470A00D206D20EC906C90ED0417047F4B507004C684E
:202D20000D68182615E02900022070430422504338184068201AFFF7E9FF04006C40210053
:202D4000082070433858281AFFF7E0FF05006540761E002EE7D17868201A009948603868D2
:202D6000281A00990860F1BDF1B586B00D0004260F240020049015E02000310003F0A6FA8F
:202D80000421484301AF00902000310003F09EFA0421484301A908580002295D4118009834
:202DA0003950641E0020C0438442E5D106987D490968016001240DE004206043069908189B
:202DC000001F006878490968401804216143069A5050641C322CEFD3002426002500009436
:202DE00027002BE0032104206043069A1058C019009A8018FFF782FF04216143069A505023
:202E00000700009839180420684301AA1058C019009A8018FFF772FF0421694301AA505052
:202E20000090761C641C2000322103F04FFA0C006D1C2800042103F049FA0D00962ED1D3B4
:202E400007B0F0BD00000000046800007CB505000E00022E0ED300240AE02868009068684F
:202E600001902A0069467448FFF757FFA41C0835B442F2D373BD00B54C4A12681204FBD44E
:202E80004B4A7F231360C9B2491C484A1160474909680904FBD469490968490409D56849C9
:202EA00009680B0065490968664A0A401104194304E06249096889084905490D01606249CB
:202EC00009680907090F416060490968816060490968C1605F49096801615F49096841614C
:202EE00000BD00008C6B000010B586B002E0AC480121018059480068002850D0010406D579
:202F00005748046860064AD42006F3D547E06107490F0029EED14004400C0028EAD02128AA
:202F2000E8D24F490968102291434D4A11604D498968491C4B4A9160411EC9B26846FFF7D0
:202F40009AFF974880781821484395490818001D6946182203F0DAF991488078401C90496D
:202F600088708F488078182802DB8D48002181708B4800880028BAD089480088012809D11D
:202F8000874880788649C9788842B3D1844802210180AFE7824882498978C170AAE706B0F8
:202FA00010BD00003C02001040020010800005408400054030B57B4CF3252560DB00DB080F
:202FC0009CB2794D2C601B0C802424021C43774B1C60D200D20893B2754C2360012901D093
:202FE000022906D1120CC0231B021343714A136005E0120C8023DB0113436E4A1360012900
:2030000003D16D496D4A0A6002E06B496C4A0A606C4900220A606C4900220A606B490022F7
:203020000A606B4900220A60AA490860A94800680004FBD430BD0000BC19001094000540B4
:2030400090000540FF5F0000980005409C000540A0000540A4000540A8000540100005406F
:2030600004000540E01A001010B5002407E00023002200212000401CFFF79CFF641C202CEE
:20308000F5D310BD38B59448FFF77FFD052001F069F804000025ED43904804602B00220007
:2030A00001210120FFF786FF8D48FFF76EFD0120FFF7BDFD2C20FFF763FD2020FFF760FD16
:2030C0008848FFF762FD2000FFF76CFD2C20FFF757FD2020FFF754FD8348FFF756FD2800F3
:2030E000FFF760FD7C48FFF750FD804CFF25ED432B00220001210220FFF75CFF7848FFF7BE
:2031000044FD0220FFF793FD2C20FFF739FD2020FFF736FD7348FFF738FD2000FFF742FDAA
:203120002C20FFF72DFD2020FFF72AFD6E48FFF72CFD2800FFF736FD6748FFF726FD934CF9
:20314000FF25ED432B00220001210320FFF732FF6348FFF71AFD0320FFF769FD2C20FFF7E9
:203160000FFD2020FFF70CFD5E48FFF70EFD2000FFF718FD2C20FFF703FD2020FFF700FDBD
:203180005948FFF702FD2800FFF70CFD5248FFF7FCFC5148FFF7F9FCD7480121816131BD55
:2031A0007815001024000540280005402C0005403000054034000540380005408814000024
:2031C000881000003C00054040000540440005404800054038B515001C00964A1268964BE2
:2031E0001343944A1360954A00231360944A126840231343924A1360924A126840239A43BD
:20320000904B1A60904A1268082313438E4A1360884A126880239B021343864A1360CD4AFD
:203220001268D20705D4CB4A126801231343C94A136003F04BF8401E84490860C548006895
:2032400040210143C348016081480560814800210160C048006840218843BE490860BD48D4
:20326000006801218843BB490860BA480068C007FBD4002C0CD1B748006880218843B549B3
:2032800008609E4800681C2188439C49086011E0B048006880210143AE480160974800684F
:2032A0001C21884395490860944800680821014392480160FFF7D8FE002C01D1FFF7E2FE34
:2032C0000D20FEF7C2FFA34800680E210143A148016031BD200005408C6B0000101B001076
:2032E0001C6900005C6B0000646B00000000EC1810B50A684B68092B01D308234B600B6874
:203300005B000FD49200A0231B021343924A1360924A00231360924A924B1360924A0023BB
:2033200013600FE013001B0CE02424021C438A4B1C6092B2894B1A60894AA54B13608A4A7B
:20334000A44B13600A791207120F8C235B011343A14A13608A68A14B1A60CA68A04B1A60A0
:203360000A69A04B1A6049699F4A11609F49F7220A609F4908609E4800680004FBD4B44891
:20338000C068401CB249C86010BD00000000EB1800B572B6CB49098800292DD0C949C978BB
:2033A00018225143C74A5118091D182202F0AEFFC448C078401CC349C870C248C078182860
:2033C00002DBC0480021C170BE480088022803D1BC48012101800CE0BA480088012808D10B
:2033E000B848C078B7498978884202D1B5480021018062B6012001E062B6002000BD0D48F4
:2034000000680D4901430B480160924881210160AD4881210160AD48006806218843AB49DE
:2034200008607047AA48016806200840010006204840704780800440400001004C400440E9
:2034400000800050FC3F005004800440800105400C0005401800054030B50400022058432F
:203460000818801E0088A4B2144209D000245D1EAC420FD2022565434D5B2843641CF6E7D4
:20348000002404E0022565434D5B2840641C5D1EAC42F7D392B2104030BD38B500200121E2
:2034A00009E0022242438B4B02244C43894D2C5B9C52401C491C0428F3D3FFF7B3FF85497B
:2034C00008810020040005230222824981488089FFF7C2FF20430400052304227D497D485F
:2034E0008089FFF7B9FF20437A497A4A92894A817849888131BD0000C01A0010140005404A
:20350000754800687549014373480160744800210160744800210160734800680321014361
:203520007148016090480068032188438E49086070478D4909688007800F08438A49086069
:203540007047894909688007800F814386480160704700000000054034000540300005407E
:203560002C000540FC5F00002800054010B50100002000221CE08C4B1B68714C1C408A4BC6
:203580001C60894B1B688024E4001C43864B1C604000854B1B68DB0502D50300012018435B
:2035A000814B1B68714C1C407F4B1C604900521CD2B2082A09DA0B06DDD57B4B1B6880245D
:2035C000A4001C43784B1C60DBE7C0B210BD0000FFDF0000FFFF0000380005403C000540CE
:2035E000400005404400054048000540240005402000054038480068754901433648016099
:203600007D48002101607D48002101607C48002101607C48012101607B4800687B4901435C
:20362000794801607848006879490140764801605D480068042101435B4801605A4800689A
:20364000C021C900014058480160704700000000E01A00107C40044010B50200FF200B00CC
:20366000591E002B10D0030010785840521C002301E040005B1CDBB2082BF0DA0406F8D51B
:20368000440031206040F5E7C0B210BD10B5020076480B00591E002B11D00300107800023A
:2036A0005840521C002301E040005B1CDBB2082BEFDA0404F8D5440089486040F5E780B228
:2036C00010BD0000781500108040044000800150FC3F0150F41A001080800440400001007C
:2036E0008440044088400440008003509F4800689F4901439D4801609E48002101609E48D4
:2037000000688021C90001439B4801609B4800681649014099480160704798490968802277
:20372000D20010400843954908607047934909688022D2001040814390480160704700005A
:20374000FFFDFFFF80B5184800680421884316490860B920FFF70AFF1348006804210143B7
:203760001148016001BD0000FC3F0350FFFBFFFF80B50D480068042188430B490860AB20E2
:20378000FFF7F4FE0848006804210143064801600020009002E00098401C00900098B421EE
:2037A00089008842F7D301BDFC3F005080B5B048006804218843AE4908600620FFF7D6FECF
:2037C000AB48006804210143A948016001BD00004000050080B5A648006804218843A44968
:2037E00008600420FFF7C2FEA1480068042101439F48016001BD00001C4004406040044043
:2038000064400440684004400080005004060000FFFEFFFF38B504009548006804218843D9
:20382000934908600520FFF7A1FE002505E0FEF728FE0120FEF7D1FD6D1CA5420ED2002011
:20384000FFF794FE00900098C007F0D4884800680421014386480160012006E08448006822
:203860000421014382480160002032BDFFFF0000F4B504000D001E00FFF77AFF0027802099
:20388000400045430098281807007948006804218843774908600320FFF768FE3800000C7D
:2038A000C0B2FFF763FE3800000AC0B2FFF75EFE3800C0B2FFF75AFE04E00020FFF756FEF3
:2038C0002070641C3000461E0028F6D1684800680421014366480160FFF734FFF1BD0000EE
:2038E00021100000F4B504000D001E00FFF740FF0027802040004543009828180700FFF726
:2039000055FF5B48006804218843594908600220FFF72CFE3800000CC0B2FFF727FE380003
:20392000000AC0B2FFF722FE3800C0B2FFF71EFE03E02078FFF71AFE641C3000461E002874
:20394000F7D14B48006804210143494801600A20FFF760FFFFF73EFFFFF7F4FEF1BD000001
:2039600080B5FFF737FFFFF7EDFE01BD80800440400001006C40044000800150FC3F015075
:20398000F4B507008020400041430C000098FF21891C884202D3802040000090FFF7E8FEBF
:2039A000002511E03878FFF7E1FD7F1C761CFF2EF8D99A48006804210143984801600A2024
:2039C000FFF728FF641C6D1C009885421DD2802676006643FFF7EAFE9048006804218843A0
:2039E0008E4908600220FFF7C1FD3000000CC0B2FFF7BCFD3000000AC0B2FFF7B7FD3000CF
:203A0000C0B2FFF7B3FD0026D1E7FFF7E3FEFFF799FEF1BD10B50400802040024443FFF776
:203A2000A7FEFFF7C3FE124800680421884310490860D820FFF79AFD2000000CC0B2FFF79E
:203A400095FD2000000AC0B2FFF790FD2000C0B2FFF78CFD064800680421014304480160D8
:203A60006F48FFF7D7FEFFF7B5FEFFF76BFE10BDFC3F005000B5C1B080235B00002201001D
:203A80006846FFF7F5FE002000E0401CFF2805D86946095CFF29F8D0FF2000E0002041B01B
:203AA00000BD10B5002400E0641C602C0AD2FEF7E8FC8020C0002018FFF7DCFF0028F3D06B
:203AC000FF2000E0002010BD10B504008908002903D02000FFF7BAF9241D10BD70B5002286
:203AE000002311E08C5C303CE406E40EB04D2C5D24018D186D78303DED06ED0EAC4E755D26
:203B00002543C554921C5B1C8024A400A242E9D370BD00B583B0002103E0425C6B465A5401
:203B2000491C0829F9D308216846FFF7CDFF002000E0401C082807D26946095CB34A125CA6
:203B40009142F6D0002000E001200EBD30B5C1B005000C00FEF795FC80235B0000222900AA
:203B60002000FFF7BFFE80235B00002229006846FFF77EFE002000E0401CFF2806D86946F9
:203B8000095C225C9142F7D0FF2000E0002041B030BD38B504000D00FEF773FC2800FFF72B
:203BA00039FF022229002000FFF7EAFE022D04D197499848FFF743F803E09549A848FFF7E6
:203BC0003EF831BDF8B507000E00002400E0641C032C0FD280235B00002231003800FFF7EC
:203BE00047FE802149003800FFF736FD0500EDB2002DECD1EDB2002D08D1002C0BD02300D8
:203C000032009849B348FFF75BF804E032009649B048FFF72EF82800C0B2F2BDFC3F005070
:203C20008813000070B5C0B0002500E06D1C032D00D3B3E0FEF725FC00248021890068461E
:203C4000FFF7C0FF002803D020000124044308E0002004E0A0496A46125C0A54401CFF2854
:203C6000F8D9B1496846FFF7ADFF002803D02000022404430BE0002007E080214900964AE5
:203C800012186B461B5C5354401CFF28F5D9C02189006846FFF796FF002803D020000424F4
:203CA00004430AE0E00708D5002004E08A496A46125C0A54401CFF28F8D99C496846FFF7DF
:203CC00081FF002803D02000082404430DE0A0070BD5002007E0802149007F4A12186B46CD
:203CE0001B5C5354401CFF28F5D90520204005280DD1794E002002E000213154401CFF28D3
:203D0000FAD3FF213000FFF7A7FCFF3630700A2020400A280DD1A94E002002E000213154DF
:203D2000401CFF28FAD3FF213000FFF795FCFF363070A007800F002804D1BC493548FEF7DD
:203D40007EFF08E0CA493348FEF779FF022202216148FFF71EFF0C202040002804D1B3497B
:203D60003F48FEF76CFF08E0C1493D48FEF767FF022203215848FFF70CFF2A00521CC849F8
:203D8000C848FEF776FF002C00D04FE7A749C548FEF755FFC448FEF7F8FE06E0B449C1484E
:203DA000FEF74DFFC048FEF7F0FE40B070BD0000F066000030B5C1B0002801D1022400E00E
:203DC0000324802040004443002500E06D1C022D18D261196846FFF7F5FE002801D0002084
:203DE00011E0002000E0401CFF28EFD8802149006943394A5118095C6A46125C9142F2D0EE
:203E0000002000E0012041B030BD0000F8200000446B00009C68000080B5FEF732FB002061
:203E2000FFF7C8FF002805D1022202212A48FFF7B0FE03E0C949CA48FEF701FFFEF721FB5D
:203E40000120FFF7B7FF002805D1022203212248FFF79FFE03E0C1498648FEF7F0FE01BDF6
:203E6000AC68000010670000CC68000038B50C0003214843802149006143174B5918130067
:203E80009BB21B0A0B54802149006143124B591809184A708021490061430F4A51180D18A5
:203EA00002218022520062430B4B9A181018FFF7D3FBA870FF21802040006043064A10181F
:203EC000FFF7CAFB802149004C4303490919FF31087031BD346A0000BC17001070B50C00F8
:203EE00016000321484305000321802040006043C34A10184019FFF7AFFB002810D180207A
:203F000040006043BE490818405D0002802149004C43BB49091949194978084380B201E0D8
:203F2000300080B270BD0000010200000103000038B50C0005214843802149006143B04BB8
:203F4000591813001B0E0B54802149006143AC4B5918091813001B0C4B70802149006143BB
:203F6000A74B5918091813001B0A8B70802149006143A34B59180918CA70802149006143B4
:203F80009F4A51180D1804218022520062439C4B9A181018FFF760FB2871FF218020400041
:203FA0006043974A1018FFF757FB802149004C4393490919FF31087031BD0000BC1800101C
:203FC00070B50C00160005214843050005218020400060438A4A10184019FFF73DFB002890
:203FE00021D180204000604385490818405D0006802149006143824A5118491949780904C8
:2040000001438020400060437D4A10184019807802020A43802040004443794800194019AE
:20402000C078104300E0300070BD0000906B000080B5022807D100220223914211D39942AD
:204040000FD2012013E0042801D0032802D102220623F2E70A0001007D48FEF71DFE00204A
:2040600005E00A0001007A48FEF716FE002002BD946B0000AC68000038B504000D00210074
:204080000220FFF7D5FF002809D02A0092B200210C2044436F4800194068FFF7E7FE31BDB0
:2040A000406A0000DC6800008C6B000010B5040021000220FFF7BCFF002801D100200DE057
:2040C0000C20604363490818826892B200210C204443604800194068FFF700FF10BD38B52B
:2040E00004000D0021000420FFF7A2FF002808D02A0001210C204443564800194068FFF77F
:2041000017FF31BD10B5040021000420FFF790FF002801D100200CE00C2060434D4908187D
:20412000826801210C2044434A4800194068FFF747FF10BD80B50C224243464B9A1852885F
:20414000921E03D0521E012A04D905E089B2FFF793FF01E0FFF7C3FF01BD00004C6B0000AE
:204160009C68000080B50C2141433A4A51184988891E03D0491E012903D905E0FFF796FF40
:2041800003E0FFF7BFFF00E0002002BD80B5C0B2FEF7A6FA01BD10B5040003E02078FFF795
:2041A000F5FF641C20780028F8D110BD744800210170704710B50400724800210170704863
:2041C00002F09BF800280BD0002C03D16C48FFF7E2FF05E002006A496B48007900F0C8FF4F
:2041E00010BD10B50400664802F087F8002805D063490C54401C624900220A5410BD0000AD
:20420000BC17001038B50400200002F076F805005B4802F072F85D49884204D3C02080009F
:20422000584900220A70C0218900091A00290ED0A94200D20D00002104E0625C504B1A5417
:20424000401C491CA942F8D34D4900220A5431BD346A000000660000E0B56946FEF7C3FBE8
:204260006846FFF7CFFF07BD70B58CB00400150000291BD110980C214143AE4A565A0C214B
:204280004143AC4A51184988022904D00ED3042901D006D30AE0FFF765FF04A9FEF7A3FB2F
:2042A00004E0FFF75FFF04A9FEF7DDFBFA2080004543AD1901A92800FEF795FBFFF776FFA2
:2042C000BA48FFF79FFFB948FFF79CFFA848FFF799FF6846B6490A6802600A2D03D26846FD
:2042E000FFF790FF0EE0642D04D26846401CFFF789FF07E0FA208000854203D26846801CF5
:20430000FFF780FF01A8FFF77DFF002C03D1A948FFF778FF02E0A848FFF774FF04A8FFF7D2
:2043200071FFA248FFF76EFF3C20FFF75AFF0A2D03D26846FFF766FF0EE0642D04D26846FD
:20434000401CFFF75FFF07E0FA208000854203D26846801CFFF756FF01A8FFF753FF2020CA
:20436000FFF73FFF04A8FFF74DFF3E20FFF739FF8E48FFF747FF8D48FFF744FF0CB070BD86
:2043800074120010741500101C1B001001030000F4B582B007000E00002F03D002980E28E1
:2043A00004D2ADE002980D2800D0A9E0307A202800D0A5E0002F03D0707B202800D09FE0A7
:2043C000092000E0401C0D2804D2315C30390A29F8D395E000200090002430000A3001F0D5
:2043E000AFFF0090002500E06D1C062D00D387E00C2068434F49085A00998842F4D10C205F
:2044000068434C4908184088022804D0ECD304282AD050D3E8E7002F1ED00E200299325C2B
:204420002D2A03D10F20491E00E0401C884204D2325C303A0A2AF8D362E00E36300001F041
:204440007FFF0400210089B22800FFF715FE002D02D18B480021C16000950023002200213D
:204460003800FFF701FF4BE0002F1CD00E200299325C2D2A03D10F20491E00E0401C8842AA
:2044800004D2325C303A0A2AF8D339E0032D0AD0042D08D00E36300001F052FF0400210048
:2044A0002800FFF71CFE00950023002200213800FFF7DAFE24E0002F1AD00E2400E0641C14
:2044C0000298844207D2305D01F04CF90021C9438842F4D114E00E363000FEF71FFBC400E9
:2044E000E40821002800FFF7FAFD65480021816100950023002200213800FFF7B5FEFFE728
:20450000F7BD80B5FFF752FE2848FFF77BFE2748FFF778FE3C20FFF764FE5A48FFF772FEF6
:204520003E20FFF75EFE2148FFF76CFE1F48FFF769FE01BD0066000080B5FFF773FBFFF78B
:2045400035FE1A48FFF75EFE1848FFF75BFE3C20FFF747FE4C48FFF755FE3E20FFF741FEBE
:204560001248FFF74FFE1148FFF74CFE01BD00004C6A000080B5FFF74FFCFFF717FE0B48BD
:20458000FFF740FE0948FFF73DFE3C20FFF729FE3E48FFF737FE3E20FFF723FE0348FFF785
:2045A00031FE0248FFF72EFE01BD00008C6B0000886B0000546B0000586A000080B50021E1
:2045C0000320FFF7B7FD00210420FFF7B3FDFFF723FC01BD10B5FFF7E9FDFFF762FA040059
:2045E000D748FFF70FFED648FFF70CFE3C20FFF7F8FD2748FFF706FE002C03D12548FFF768
:2046000001FE02E02448FFF7FDFD3E20FFF7E9FDCB48FFF7F7FDCA48FFF7F4FD10BD10B59B
:20462000FFF7C4FDFDF72DFF0420FFF7F3F9FFF738FA0400C248FFF7E5FDC148FFF7E2FDB1
:204640003C20FFF7CEFDBF48FFF7DCFD002C03D1BD48FFF7D7FD08E0BC48FFF7D3FD2C209A
:20466000FFF7BFFD0020FFF7F7FD3E20FFF7B9FDB348FFF7C7FDB248FFF7C4FD10BD000041
:20468000C01A00102C670000BC680000286A00002C6900006C6B0000746B0000F0B5C1B086
:2046A00007000C00FFF782FD3E000A36380012300090A7483918A748844200D03DE1087887
:2046C0003038C006C00EA44A105C040348783038C006C00EA04A105C000220430400887802
:2046E0003038C006C00E9C4A105C000120430400C8783038C006C00E9749085C044382219A
:2047000089003000FEF7C2FFA4B280B2844200D013E130783038C006C00E8F49085C04072D
:2047200070783038C006C00E8B49085C000620430400B0783038C006C00E8749085C000593
:2047400020430400F0783038C006C00E8249085C00042043040030793038C006C00E7E4988
:20476000085C00032043040070793038C006C00E7949085C000220430400B0793038C006A0
:20478000C00E7549085C000120430400F0793038C006C00E7049085C20430400602C50D22A
:2047A0006E48008800282ED1002C29D1009901A8FFF794F901A8F830FFF7ABF900281CD02A
:2047C0008020C0002018FFF755F9002812D101A98020C0002018FFF7B9F9002807D10026E2
:2047E0005E48012101805D485D4941802BE00126012528E00126002525E00126032522E062
:20480000012604251FE08020C0002018FFF732F9002813D1009901A8FFF760F901A98020A9
:20482000C0002018FFF792F9002804D100264B484B49418007E00126012504E00126002590
:2048400001E0012602253E48FFF7DCFC3C48FFF7D9FC3C20FFF7C5FCC848FFF7D3FC002E70
:204860000FD13948FFF7CEFC5F2C05D13B48002101803A48002141802100C148FEF7EEF927
:2048800013E03248FFF7BEFC2C20FFF7AAFC2800FFF7E2FC314800210180304800214180A2
:2048A0002A002100B748FEF7F7F92C20FFF799FC2000000FB449085CFFF793FC2000000EAF
:2048C0000007000FB049085CFFF78BFC2000000D0007000FAC49085CFFF783FC2000000CAB
:2048E0000007000FA849085CFFF77BFC2000000B0007000FA449085CFFF773FC2000000ABF
:204900000007000FA049085CFFF76BFC200000090007000F9C49085CFFF763FC2007000FC4
:204920009949085CFFF75DFC3E20FFF75AFC0448FFF768FC0248FFF765FC41B0F0BD000053
:204940008C6B0000C46A0000906B0000946B00001202000016020000F0660000601B00102B
:204960008813000030B5C1B005000C00FFF71EFC0A35112C00D0FEE028783038C006C00E5F
:20498000C249085C040768783038C006C00EBF49085C000620430400A8783038C006C00ECC
:2049A000BA49085C000520430400E8783038C006C00EB649085C00042043040028793038F1
:2049C000C006C00EB149085C00032043040068793038C006C00EAD49085C000220430400DB
:2049E000A8793038C006C00EA849085C000120430400E8793038C006C00EA449085C2043CC
:204A00000400602C00D398E080235B0000228020C00021186846FEF72BFF9D48FFF7F2FB6D
:204A20009B48FFF7EFFB3C20FFF7DBFB9948FFF7E9FB2000000F5449085CFFF7D2FB2000BD
:204A4000000E0007000F5049085CFFF7CAFB2000000D0007000F4C49085CFFF7C2FB20006B
:204A6000000C0007000F4849085CFFF7BAFB2000000B0007000F4449085CFFF7B2FB20007F
:204A8000000A0007000F4049085CFFF7AAFB200000090007000F3C49085CFFF7A2FB20078C
:204AA000000F3949085CFFF79CFB00240FE06846005D00113449085CFFF793FB6846005DD5
:204AC0000007000F3049085CFFF78BFB641CFF2CEDD99F48822189009E4A1018FEF7D6FD0B
:204AE0000400A4B2200000132749085CFFF779FBA4B2200000120007000F2349085CFFF787
:204B000070FBA4B2200000110007000F1E49085CFFF767FBA4B2200000120007000F1A4969
:204B2000085CFFF75EFB3E20FFF75BFB5848FFF769FB5748FFF766FB1DE05548FFF762FB3B
:204B40005348FFF75FFB3C20FFF74BFB5148FFF759FB8148FFF756FB2C20FFF742FB02203E
:204B6000FFF77AFB3E20FFF73CFB4948FFF74AFB4748FFF747FB41B030BD0000D06A000094
:204B80003C690000446700000468000080B5030008001100002B0FD0022B19D012D3042BD4
:204BA0001CD018D3062B1FD01BD3082B22D01ED30A2B25D021D325E00A0001000120FFF7B5
:204BC000E7FB1FE00A0001000020FFF7E1FB19E0FFF7B2FC16E0FFF7CDFC13E0FFF791FC2F
:204BE00010E0FFF7EBFC0DE0FFF7F4FC0AE0FFF716FD07E0FFF752FD04E0FFF7B3FE01E08A
:204C0000FDF762FC01BDF5B581B00F000024E4430020C043002600E0761C0B2E33D2002531
:204C200009E00019021B39193000FFF7AFFF0198FFF7C0FA6D1C49488542EDD2029B2A007F
:204C400004207043BF4909583800FDF78EFE04000020C0438442DFD0029B00223B21381954
:204C6000FDF7A8FE0021C9438842DAD1029B00220A213819FDF79EFE0021C943884201D065
:204C80000019CFE7C8E70120FEBD0000F06600008C6B0000DC6A0000F0B589B006000F0034
:204CA0000220FFF75FFA6946FDF79DFE684601F024FB0500002D01D1012046E00024E443F1
:204CC0003A00B8493000FDF733FE04000020C043844201D1002038E0012000212200D21DFA
:204CE00001E0491C521C072905D2B35CBE4F7F5CBB42F6D00020002809D03019807B0D28A5
:204D000003D03019807B3B2801D101201DE0012000212200D21D01E0491C521CA94205D260
:204D2000B35C6F467F5CBB42F6D0002000280BD060193018C0790D2804D060193018C079F1
:204D40003B2801D1012000E0022009B0F0BD00001702000074120010946B0000FFFF0000E9
:204D600010B50400CE48C06800280FD0B848FDF70CFFB849CB48FDF762FFB548FDF705FFC8
:204D8000C7480021C160B44800210171C4480069002802D0012816D0C9E00020C043844223
:204DA00010D00A2C0ED0BE480476BD4801214161BB4801210161BA48FA2189000160B84828
:204DC00000214160BCE00020C043844200D1A0E0B3484069B249081821000176B048406943
:204DE000401CAF494861AE4840698021C900884209D3AB4800210161A94800210160A8482E
:204E0000002141609CE0A648FA2189000160A448002141600A2C00D088E08F4800790128CC
:204E20000CD19F48A04981609D480021C1609C4842699E490020FFF7E6FE60E00024984809
:204E400041699A48FFF728FF0400012C20D1824801210171FFF7AAF97D48FFF7D3F9914830
:204E6000FFF7D0F9BC48FFF7CDF97948FFF7CAF90020FFF79FF98A488B4981608848002113
:204E8000C1608748426989490020FFF7BCFE36E0022C1AD182480021816081480021C160CF
:204EA000FFF784F96A48FFF7ADF97E48FFF7AAF9AA48FFF7A7F96648FFF7A4F96448FFF767
:204EC000A1F90020FFF776F919E075480021816073480021C160FFF769F95D48FFF792F980
:204EE0007048FFF78FF99E48FFF78CF95848FFF789F95748FFF786F90020FFF75BF96848D5
:204F0000002101616648002101606548002141600CE063484068002808D061480021016104
:204F20005F48002101605E480021416008E05C48002101615A48002101605948002141604A
:204F400010BD00007866000010B586B0040000F01FFC8449014300910820019082484078BF
:204F6000000281490978014302917F48C07800027D498978014303917C48407800027B492B
:204F80000978014304917948C0780002774989780143059120006946182201F0B7F906B0C1
:204FA00010BD0000046B000010B586B0040000F0EFFBCD49014300910820019072B6CB48FD
:204FC0000169CA48406962B68AB20292090C039181B20491000C059020006946182201F0B8
:204FE00095F906B010BD0000346B000030B587B00400BF480090009D00F0CAFB8021C90589
:2050000001432943009108200190BA480079B9494979090201430291B6488079B549C9793E
:20502000090201430391B348007AB249497A090201430491AF48807AAE49C97A09020143FC
:20504000059120006946182201F060F907B030BD8C6B0000C8690000C01A001000B587B0C5
:20506000A2488068002818D00120FFF77BF8A2498860A1488068002802D19F48012181603B
:205080009D488068642148439B4988606846FFF7ADFF69460C20FEF72BF907B000BD0000AF
:2050A00058020010EC68000060EA00007002001010B58CB0040090480068844205D28E48AE
:2050C0000068001B8C49086012E08848806800280AD089488949016006A8FFF735FF06A9D9
:2050E0000A20FEF705F903E08348FA218900016081484068844205D27F484068001B7E4981
:20510000486012E07948806800280AD07A487B4941606846FFF748FF69460B20FEF7E8F889
:2051200003E07548FA218900416073488068844205D271488068001B6F49886009E0FFF70F
:205140008DFF6A488068002803D16B48FA21890081600CB010BD0000646A00002C6800000A
:20516000FC6800000013F758246B00002C6B0000F0B58BB006000C00150000F009FB070041
:205180002800072101F0A2F803902800072101F09DF80291039802990143002900D1A0E044
:2051A000FDF76FF96846202101706846290041702800000A6946887068460399C1700298BD
:2051C000002804D06846C078401C6946C8706846FF21017168464671684600218171684696
:2051E000A821C1714648384304900820059068460088069068464088079068468088089033
:205200006846C088099004A90D20FEF771F80520FDF7E3F80125039800282CD000261FE0C9
:20522000694622780A54641C401C0828F8D33548384304900820059068460088069068462D
:20524000408807906846808808906846C088099004A90D20FEF74CF80520FDF7BEF8761C9E
:205260000398864207D2FDF70CF96846290001706D1C0120D9E70298002832D0FDF701F995
:2052800007200299401A69460D706946491C002204E023780B70641C491C521C029B9A42CA
:2052A000F7D3002203E0FF230B70491C521C8242F9D31448384304900820059068460088C1
:2052C00006906846408807906846808808906846C088099004A90D20FEF70AF80520FDF764
:2052E0007CF80BB0F0BD00000012F758C01A00100010F718101B0010041B00108813000063
:205300000000EC580000EB5830B583B00168C900C90801600168FF2291430278D4B20268C2
:20532000A54B1B689A4228D1017A4907490FA34A1170C168A14A5170C168090A9F4A917099
:2053400001699E4AD1700169090A9C4A117140699A494871B648C069002800D02BE1974886
:20536000007806210140062903D10220FEF7E1F821E10220FEF7E5F81DE19D4A914203D0D9
:20538000AC4A914200D016E1D34A1278002A6BD1974A914200D00EE1694682680A80C168B1
:2053A0006A46518001696A46918040696946C8806846457900F0ECF9854200D0FBE0684640
:2053C0008079002800D0F6E06846C079A82800D0F1E0684680780102684640780843964975
:2053E000884200D3E7E0BC490C71BB496A4652794A71B9490881B8486946C978C171B648E2
:2054000000214181B44800218171B34801210170B148FA2189004180AF4800214170AF48EE
:20542000FDF7B3FBA048FDF7B0FBAB4802799949A348FDF71EFCA84842799C49A048FDF78E
:2054400018FCA54802899F499D48FDF712FCA248C279A3499A48FDF70CFC9348FDF795FBA3
:205460009E48FDF792FBA6E09B4A1278012A00D0A1E0704A914200D09DE0974909798C424A
:2054800000D098E094494989934A1289914200D388E091490989904A5289891A072901DBBF
:2054A000072104E08C4909898B4A5289891A6A4683681380C2686B465A8002696B469A800D
:2054C00040696A46D08000200CE0834A52898A4B6C46241864789C547F4A5289521C7E4B05
:2054E0005A81401C8842F0D37B4840897A490989884260D378480021017077480021418017
:205500007548002141704A48007900283FD10024714841897848FFF7BFFB0400012C1AD186
:2055200043480121017178487849816076480021C160FEF73BFE6948FEF764FE7448FEF703
:2055400061FE7448FEF75EFE6448FEF75BFE0120FEF730FE1BE06C48002181606A4800211D
:20556000C160022C13D1FEF721FE5C48FEF74AFE6748FEF747FE7A48FEF744FE5748FEF78D
:2055800041FE5648FEF73EFE0120FEF713FE2848007900280FD05048428957490120FFF7CC
:2055A00032FB08E04C48002101704B480021418049480021417037BD101B0010281B001056
:2055C000704800787049095CC9B27048405C6E4A105CC9B2C900C0B208187C4908707B48B4
:2055E0000078042148437A4908588749086070470000EC1800B5C0B20100C910634A515C12
:20560000C0B24207520F814B9A5C9143C0B20200D2105E4B9954C9B2002908D1594909784C
:20562000C0B2C010794A105C81435648017000BDC01A00100000EB1801040000514909785C
:20564000C0B20200D210714B9A5C0A434D490A70C0B20100C9104D4A515CC0B24207520F39
:205660006A4B9A5C0A43C0B2C01048490A54704780B556480078FFF7BDFF01BDC0B20421F8
:205680004143534AC0B204235843614B1858505070470000D4690000C0B2042148434C494E
:2056A0005C4A0A507047000018680000E0690000594A5080584800224270574801707047BC
:2056C000B86A0000EC690000544A908053480022C2805248016070471C1B00108C6B0000B6
:2056E000F86900004F4A90804E48002242704D480170704700000000700600104949C88019
:2057000048480021817070475802001060EA0000EC680000646A000080B54148FDF735FA79
:205720004148FDF732FA00214048FDF788FA3D48C1783F48FDF792FA3A4801693D48FDF777
:205740008DFA384881683C48FDF788FA3548C1683A48FDF783FA3448FDF717FA01BD000087
:205760002C68000000B50100002000E0401C102805D2334A125CC9B29142F7D101E0002072
:20578000C04300BD681B001000650000381B001080B5BA48C068002814D10020FEF7E2FC8F
:2057A000B649C860B548C068002807D0B348C068FE2803D0B148C068FD2803D1AF48B04978
:2057C0008968C160AD48C068C0B202BD691B00100002001080B50020FFF70CFF0E4840785F
:2057E000002810D0A5488068002804D08020C000FDF793FF03E08020C000FDF797FF0021FC
:205800003220FFF755FF01BD641B00107C6B00001402001071560000401B0010301B001005
:205820008C6B0000E01A0010186800007C680000A0670000B4670000C8670000DC6700006F
:205840000468000080B50120FFF7D4FE8D480068002805D0022800D1C9E000D291E0FFE0BE
:205860008848C088002800D18AE08748007B400704D48648008F864988423BDB8548FDF777
:2058800084F98548FDF781F97F48007B400705D5022282498248FDF7ECF904E00222814989
:2058A0007F48FDF7E6F97B48FDF76FF973480121C1610320FDF73DFE7B480079022101433B
:2058C00079480171794800780621014006290AD1002006E074490918744A12185278CA7119
:2058E000401C0528F6D3FFF7B9FB02213220FFF7EBFEC1E06448007B800704D46348C08E38
:205900006349884238DB6948007806210140062932D16048FDF739F95F48FDF736F95A4801
:20592000007B800705D501225C495D48FDF7A1F904E001225B495A48FDF79BF95548FDF72A
:2059400024F90120FDF7F5FD574800790121014355480171002006E053490918534A12180C
:205960005278CA71401C0528F6D3FFF777FB01213220FFF7A9FE7FE000213220FFF7A4FEED
:205980007AE04048C088002830D03F48007B800728D43E48C08E4649884223DA3D48FDF78D
:2059A000F4F8012243493C48FDF763F93948FDF7ECF80120FDF7C5FD3B480079FC210140EE
:2059C00039480171002004E0374909180022CA71401C0528F8D3FFF741FB00213220FFF7E3
:2059E00073FE49E001213220FFF76EFE44E02548C088002833D02448007B40072BD423489B
:205A0000008F2B49884226DA2248FDF7BEF8022228492148FDF72DF91E48FDF7B6F8174826
:205A20000021C1610320FDF78CFD1F480079FC2101401D480171002004E01B4909180022C3
:205A4000CA71401C0528F8D3FFF708FB00213220FFF73AFE10E002213220FFF735FE0BE0A4
:205A60000120FDF76EFD104800210171FFF7F6FA00213220FFF728FE01BD0000C01A00109E
:205A800000660000301B0010F41A0010841A0010C40900008C6B0000886A0000AC6A0000AD
:205AA000946A0000A06A0000101B0010281B0010E90300000C69000010B58CB00220FFF7D6
:205AC00099FD71480078002804D0022800D1B6E05ED3CFE06C484078002858D06B496C486E
:205AE000FDF7ADF806A8FDF753FC0028FAD1694A694803C803C2083A6848C069002802D11F
:205B00000220FDF71EFD664866491CC91CC00C390C386548006800061AD40023634A644927
:205B200064480068FDF756FB5C48634981605B48826862495648FDF79CF853480021C17090
:205B40005F48FFF7DBFD01210A20FFF7CBFD1EE05C494F48FDF773F84B480121C1704A48B5
:205B60000069401C48490861FFF7D6FD5448FFF7C5FD4A480021816001234C4A4C494D48D1
:205B80000068FDF727FB02214F48FFF7ABFD78E03D484078002851D043480068000631D552
:205BA0000123424A424943480068FDF713FB45493748FDF744F8394800218160354A3648F8
:205BC00003C803C2083A3548C069002802D10220FDF7B7FC2C480121C1702B480069401C8A
:205BE00029490861FFF798FD3548FFF787FD2C482C491CC91CC00C390C3802213248FFF782
:205C000071FD3EE002E06846FFF77EFB6846FDF7BFFB0028F7D121488069002801D1FDF76D
:205C200031FA19488078002804D0FFF775FD2448FFF764FD01210A20FFF754FD21E01248CB
:205C40004078002815D018480068000604D400210120FFF747FD14E00B488078002804D022
:205C6000FFF75AFD1648FFF749FD02210A20FFF739FD06E009480021816000210120FFF753
:205C800031FD0CB010BD0000E01A001040680000706A0000281B00103C6B0000C01A0010DD
:205CA0001C1B00101C6A000004000540035800000024F400441B001090D003007C6A0000A3
:205CC00010270000546800008813000010B582B072B6002408E02000C0B2FFF7DDFC20008A
:205CE000C0B2FFF787FC641C052CF4D3FCF723FBFA225200604801680120FCF795FBFA21F2
:205D000089005D480068FCF748FBE12149025A480068FCF765FCFDF76DFC58495648006808
:205D2000FCF70CFDFDF76BFBFDF7EAFBFDF718FEFDF7DCFC0020FFF7A1FC0020FFF75AFC3F
:205D40000021FA208000FFF7B3FC0220FFF796FC0220FFF74FFC0021FA208000FFF7C2FC67
:205D60000120FFF78BFC0120FFF744FC00213220FFF7AAFC0420FFF781FC0420FFF75EFC14
:205D80003F494048FCF7F0FF62B63F48FCF7FDFE3E48FCF7FAFE3C48FCF7F7FE3C493D489D
:205DA000FCF74DFF344801683B48FCF757FF3648FCF7EBFE39480068009038481F210160FF
:205DC0003748FCF7E2FE0098C00703D5002135A0FCF735FF0098800703D500213248FCF798
:205DE0002EFF0098400703D500213048FCF727FF0098000703D500212D48FCF720FF009856
:205E0000C00603D500212BA0FCF719FF1E48FCF7BCFE002405E0FCF734FB6420FCF7DDFA61
:205E2000641C0A2CF7D3FDF7A3FCFA208000FDF7F1FCFDF787FCFDF7F5FE1F48002101618C
:205E40000320FEF78FF91C4948611B4840691B4988420BD218484069401C174948611648B1
:205E600041690320FEF766F9FDF7D6FF12484169B748FCF7F3FE13BD441B001040420F0081
:205E800028020010BC1900108C6B0000686800002C670000046A0000106A000030800440AD
:205EA0004C690000504F52000C6B0000146B00001C6B000053595300C01A0010FFFFFF7F5A
:205EC00038B5A4480068002800D13FE172B6A14800210160A9480468A8480021016062B6EE
:205EE0009D480068844205D29B480068001B9A49086004E0984804210160FDF7CEFAA04819
:205F00000088844206D29E4800882100401A9C49088004E09A4809210180FCF75FFC994865
:205F20000088844206D2974800882100401A9549088008E09348312101800020FCF79CFCB2
:205F40000120FCF799FC90480068844205D28E480068001B8C49086004E08B486321016089
:205F6000FCF78FFA8948006888490968884205D286480068001B8549086009E08348844981
:205F8000016072B67348016962B60420FEF7D2F880484088002817D07E484088844206D28D
:205FA0007C4840882100401A7A49488002E079480021418077484088002805D10020FFF72F
:205FC0003DFB74480121417073488088002817D071488088844206D26F4880882100401A8F
:205FE0006D49888002E06C48002181806A488088002805D10120FFF721FB67480121C1802E
:2060000066480068002813D064480068844205D262480068001B6149086002E05F480021C5
:2060200001605E480068002802D15C48012141605A488068002813D058488068844205D2D5
:2060400056488068001B5549886002E053480021816052488068002802D150480121C16042
:20606000FCF716FB05002800FEF77AFE0020C0438542F5D14A488088002817D04848808891
:20608000844206D2464880882100401A4449888002E043480021818041488088002805D19E
:2060A0000220FFF7CBFA3E48012141703C48C088002814D03A48C088844206D23848C088A2
:2060C0002100401A3649C88002E035480021C1803348C088002802D1314801218170200053
:2060E000FEF7E6FF2F484088002813D02D484088844206D22B4840882100401A29494880B1
:2061000008E028480021017026480021418025480021417024484088002817D02248408891
:20612000844205D220484088001B1F49488002E01D48002141801C484088002806D11A4891
:206140000021018019491A48FCF779FD31BD00008C680000C01A00104402001080B50320F6
:20616000FFF78CFA0320FFF769FA62B6FFF728FA10480068804762B6F8E70000481B001006
:206180005402001056020010480200104C020010E7030000401B0010301B0010580200105F
:2061A000E01A00101C1B0010601B0010F06700008C6B0000641B0010124224D0994228D902
:2061C00070B500251B4202D00C00002109E00024012649186441944200D3A41A7641F8D3F6
:2061E0003100012601E0764109D2001864416D41A41A9D41F7D2A4185D41B619F5D33000E3
:2062000022002B0070BD1B42D8D108B500F09EF808BD01D19042D3D202000B00002100205F
:206220007047FEE7FEE7FEE7FEE7FEE7FEE7FEE7FEE7FEE7FEE7FEE7FEE7FEE7FEE7FEE73C
:20624000FEE7FEE7FEE7FEE7FEE7FEE7FEE7FEE7FEE7FEE7FEE7FEE7FEE7FEE7FEE7FEE7EE
:20626000FEE7FEE7FEE7FEE7FEE7FEE7FEE7FEE730B4434351435D18010C0C00130C5C43AC
:206280002D1980B2434392B251430024C918644124040B04090C09195043C018694130BC0F
:2062A000704738B4012100220368001D002B0BD00468001D0C4202D04D466D1E64192260A3
:2062C000241D1B1FF0D0FAE732BC7047094210D088420BD30122002300185B418B4200D390
:2062E0005B1A5241F8D319001000704701000020704708B500F02CF808BD010000E0491C37
:206300000A78002AFBD1081A7047000070B4103A03D378C9103A78C0FBD2530701D318C949
:2063200018C001D508C908C0D20704D30B880380891C801C002A01D50B78037070BC704736
:2063400080B50A22002100F098F802BD7047000070470000F9B585B00E001700002B01D00A
:2063600000211960059C00E0641C2078010009390529F9D32028F7D02D2801D02B2803D151
:2063800069460870641C02E068462B210170002F44D4012F42D0252F40DA012F0ADB102FBE
:2063A00016D12078302813D160782021014378290ED10AE02078302801D00A2708E06078A9
:2063C00020210143782902D11027A41C00E00827049400E0641C20783028FBD0002503944F
:2063E000684600BF27A1417008E0029569464978401AC0B201907D432D18641C2178080045
:2064000041381A2800D220313A0000BF1DA000F061F80028E9D10498A04205D1002E01D06A
:2064200005983060002026E00398201A1FA1C95D401A16D4012808DA0198281A05D3390013
:20644000FFF744FF029988420BD000F04FF8222101600698002801D0012101600025ED4379
:2064600005E0684600782D2801D128004542002E00D03460280007B0F0BD80B50023FFF7CF
:2064800069FF02BD303132333435363738396162636465666768696A6B6C6D6E6F7071725D
:2064A000737475767778797A0000000000002115110E0D0C0B0B0A0A09090909090808084B
:2064C0000808080807070707070707070707070707000000C9B201E0401C521E002A03D01C
:2064E00003788B42F8D170470020704780B5024800F004F802BD00005002001070470000BA
:20650000000001000200010003000100020001000400010002000100030001000200010061
:2065200005000100020001000300010002000100040001000200010003000100020001003C
:2065400006000100020001000300010002000100040001000200010003000100020001001B
:206560000500010002000100030001000200010004000100020001000300010002000100FC
:206580000700010002000100030001000200010004000100020001000300010002000100DA
:2065A0000500010002000100030001000200010004000100020001000300010002000100BC
:2065C00006000100020001000300010002000100040001000200010003000100020001009B
:2065E00005000100020001000300010002000100040001000200010003000100020001007C
:20660000C80002000000000001000000F1000200010000000A00000090010400000000001C
:20662000672B00009101040001000000000000009201040002000000000000009301030001
:20664000030000000000F71838B401210268001D002A0FD00368C318446808300C4202D040
:206660004D466D1E64191D6825601B1D241D121FECD0F8E732BC70475C69000068690000F5
:206680007469000080690000F46A0000FC6A00008C69000098690000A4690000B069000054
:2066A000BC69000010B5074979441831064C7C44163404E0081D0A68891888470100A1426F
:2066C000F8D110BD0800000028000000D7FBFFFF1419000058020010000000006DFFFFFF23
:2066E00058000000B40400000002001000000000000102030405060708090000000000004B
:20670000000A0B0C0D0E0F100000000000000000504147452052454144204F4B2041542036
:20672000415454454D50543A2000000053362043414E2052454C4159205645522E20312E0E
:2067400031350000424F4F54205752495445204552522028422F45293A20000000F009F879
:20676000002801D0FFF79EFF0020FFF7F7FC00F002F80120704780B500F002F801BD0000E5
:206780000746384600F002F8FBE7000080B5C046C046024A11001820ABBEFBE72600020019
:2067A00043414E20425553204F46462053544154453A200043414E20425553204F46462010
:2067C0004E554D3A2000000043414E205258204D5347204E554D3A200000000043414E2070
:2067E0005458204D5347204E554D3A2000000000524553455420424C4F4320525820544932
:206800004D45520030313233343536373839414243444546000000002D2D2D2D2D2D2D2D8A
:206820002D2D2D2D2D2D2D2D0D0A0000494E434F52524543542050415353574F524400009D
:2068400043414E205354415254555020494E495400000000425553204F4646204445544598
:2068600043544544000000005354415254204F462050524F4752414D0000000043414E208B
:206880005354415449535449433A000053544152545550204E554D3A200000005041524145
:2068A0004D204D41494E3A2000000000504152414D20434F50593A200000000050415241A2
:2068C0004D204C4F41444544000000005041474520435243204552523A2000005041524106
:2068E0004D204C4F41443A20000000005441534B20434F4D205445524D3A2000454E5445A1
:20690000522050415353574F524400004F4646204B3220425920412F442000005258204D54
:206920005347204F424A4543543A2000626F6F747374617475733A2000000000424F4F54A6
:20694000205752495445204F4B3A2000524553455420534F555243453A20000073657470EE
:206960006172616D00000000676574706172616D000000006C6F6164706172616D00000074
:2069800073617665706172616D000000626F6F747374617475730000626F6F746572617380
:2069A00065000000626F6F747772697465000000626F6F7472656164000000006370757289
:2069C000657365740000000050415353574F524420544D00545820414444523A2000000091
:2069E000525820414444523A20000000444154412053495A453A2000504B54204E554D206A
:206A00000000000050524F47205645523A20000046434C4B2056414C3A200000000000005A
:206A20000000000000000000504152414D20534156454400504152414D204552523A20007E
:206A400041545454454D50543A200000506172616D2049443A200000204E65772056616CE4
:206A60003A20000050415353574F5244204F4B005441534B5F43414E3A20000043414E20DF
:206A8000424155443A2000005441534B20414C473A2000004F4E204B322042593A200000B0
:206AA0004120494E50555420000000004420494E505554200000000042414D20494E464F95
:206AC0003A200000626F6F7465726173653A2000626F6F7477726974653A2000626F6F7451
:206AE000726561643A200000C046C046C046C046FFF734FE67657476657200006D6174721F
:206B00006978000054504153533A200045585452000000005744545200000000424F445204
:206B200000000000524C303100000000303131350000000050494B4143485500000000008A
:206B40000000000053415645440000004D415443484544002056616C3A20000049443A2048
:206B6000000000004D534B3A20000000454D50545900000046554C4C0000000001020408FF
:206B800010204080FFFFFFFF303030000D0A00004F4B000045525200D55700004558000016
:206BA000B95A0000CD5C0000C15E0000D557000045580000B95A0000CD5C0000C15E000056
:206BC0006E573CF15A23D87EC2BD9E4DE73B68B3E70300006351E1B7B979379E0400000008
:206BE00063000000E70300000000000009003100E837A693D5EBD54AF0FC9594567317BD25
:206C00009B9248B20713F5028497A365F51C303D72B3CFAB5F87A340AB9C23E74DE94CB1AF
:206C20001E0F467608C67ECDC77D760C81E50D8907279C92A91D13378D74FCA87825CA3ADE
:206C400012E981EFBED21838F3952602F7FD9569822040C610347A4EBCEF769E54F85EBF6B
:206C6000C11466B6B3F37415A0F19021843B09D7050CDD88CF15D1E2EFD184B405E4A02C59
:206C80007EF076D20497DE4100C08DCE7B444012997A9C115871839AA2ED27CF16E409AE7C
:206CA0005E792F232F5A3006AAC3F485DBD29DFFE3E394B45347491E0D7F59B695400F66C9
:206CC0004835A77C38D76F938F784619253A376F50756276C32BFC6EBD171A377DADE4AEC2
:206CE000D3734868062D071B8EB843CE2DCF1FBF14A5E183677EB0F0C5337AF53F3A8818F6
:206D0000AD3550FF079C87AC6D092837ECA669E4B4BA07F2C7B0C85BAC5926166780BFD6FA
:206D2000D495DE289D40EB4461CD7928D8B2F7397D922806DB9F9A87166233CE2E7BBCC5D4
:206D4000254C5582AD3AB3652D41500F7EEB5BA6B2F1780374248740F57762C74E1B8EE4C8
:206D6000FC9817C770FBE8FF411BD83B1B76978BB4FC4B73801B066110A9379BA4DA083478
:206D8000DF20E304A839846CE7B19EAEECE3CE48C425F555B395C70B21D5DE9F4AE81D2D37
:206DA000ADD3439404A57F610932D21D983B266EDF51D305AFF1C446821E0B93F6AE64F377
:206DC000D5870FFF7420C6589E53787A409619990DAC1C7E42C7B43F1C68D8B94CD09DFA15
:206DE000A8B52F79F4AA21EDF864919DEB8DA4EEC6333B32EB4D01B50879590A70AEFC6795
:206E000078C45A84C408FA93B97E91FDBDA48CFE8FFE64DF34AFBB25D7A984FE6B8F5A1056
:206E200063331310FDE63C33DC05E2AB38770A5C5EAE4BCFD8A4A4CCE673B70F854CA059C9
:206E40007C4FFD82B3064BCD5E0CEAA45C5EA88B87AB058B1294FDF0B9B513F21F198BA9FE
:206E6000DEC374FABD210D62B7656BB6D2078C986610F12794FB752566606146CF31FF5009
:206E80005409A27DD85741F3CA4878E3A64A2D266743645A606786FDA768F022AFBF2B19DE
:206EA00094A75728F9950BCE262B17E4C11FDD3983F0D807D1C90F8B55AB5161DEE174C242
:206EC000602BA1039CCABE42BC611CF4F0BC4CC44119224A8C4D742B9670E5E3F3F2CDEB8B
:206EE0003ECF499A59C52335275762C7D932061D816CAEE8408B30B4582C98E33E6C8440B8
:206F0000585D49A40770AA751C5B688DB5E26D7F17DE417B631643AF3F343040964D01491E
:206F2000D1BA32DDCBD80CA723956A22EF3071D95C36C35C154A1AC5C9B79ABB1C39FAA3FE
:206F40005705CEC19AC11B58540F57112A23A76A6D51187CDBC43BE0245FD2DC3C0B54E295
:206F60001758A8113329F3DE8A23B6C21C1F7F2C9B5DD596CC6B087C492F1EDA3B7B37C076
:206F80000AF835BA22C4D98EF0A5D69AF45226D87A61CDA6CCAFB4AB9642CC9220353D3E3C
:206FA0005630EF2E375B22D4816F425E73B196559CC93E0450D57CA369FB677D152BC9E4E7
:206FC0004474A707A881E9755861611B83F4C109B183AF96E87227FC2B60F696DA42F72806
:206FE0002C22EABF940DC01C1EA95E787E19A6B127468CC37ED9DCCA9AB8744574BBB57B6F
:207000000F3426F2B52EC43B26B8D39213BDCC21BDB903830EC7BB612543521FAEBBFAEF1B
:20702000C6A63B7287D89DA254CB4A5ECFFB56F61BD2AC326E29288D95A89F3721A5531069
:2070400091DD5531ABFC28FF1492F97E2C3EBEE018E107F44AACD0A7E59EE93A32D493B5F4
:20706000AA3FF300A2ABD35C135BB3270C1106EAAF03C3183ADED2FA297334FA0E974F6ACA
:20708000E33934BF1415BD2BEA2C76F0AA9ADD4801262554B174CF53B12B294ED7A99BF2A4
:2070A0008DAE2BF7CA059A37FDCA8D192A6D5242C7DE8B01DCE58199B178417A561240C9DA
:2070C0000CA03B5E645722EE15E998079D7930889F05E9222B56A9D9E77A2AD65F259B788B
