:020000040000FA
:20000000001F0010151500007B1200007D1200007F1200008112000083120000706FFFEFE5
:20002000000000000000000000000000851200008712000000000000891200000D040000E4
:200040008D1200008F12000091120000931200009512000097120000991200009B12000070
:200060009D1200009F120000A1120000A3120000A5120000A7120000A9120000AB120000D0
:20008000AD120000AF120000B1120000B3120000B51200007B050000000000000000000011
:2000A000B9120000BB120000BD12000000000000BF120000C1120000C3120000C512000089
:2000C0006E573CF15A23D87EC2BD9E4DE73B68B36351E1B7B979379EFFFFFFFFFFFFFFFF69
:2000E000FFFFFFFFFFFFFFFFFFFFFFFFFFFFFFFFFFFFFFFFFFFFFFFFFFFFFFFFFFFFFFFF20
:20010000FFFFFFFFFFFFFFFFFFFFFFFFFFFFFFFFFFFFFFFFFFFFFFFFFFFFFFFFFFFFFFFFFF
:20012000FFFFFFFFFFFFFFFFFFFFFFFFFFFFFFFFFFFFFFFFFFFFFFFFFFFFFFFFFFFFFFFFDF
:20014000FFFFFFFFFFFFFFFFFFFFFFFFFFFFFFFFFFFFFFFFFFFFFFFFFFFFFFFFFFFFFFFFBF
:20016000FFFFFFFFFFFFFFFFFFFFFFFFFFFFFFFFFFFFFFFFFFFFFFFFFFFFFFFFFFFFFFFF9F
:20018000FFFFFFFFFFFFFFFFFFFFFFFFFFFFFFFFFFFFFFFFFFFFFFFFFFFFFFFFFFFFFFFF7F
:2001A000FFFFFFFFFFFFFFFFFFFFFFFFFFFFFFFFFFFFFFFFFFFFFFFFFFFFFFFFFFFFFFFF5F
:2001C000FFFFFFFFFFFFFFFFFFFFFFFFFFFFFFFFFFFFFFFFFFFFFFFFFFFFFFFFFFFFFFFF3F
:2001E000FFFFFFFFFFFFFFFFFFFFFFFFFFFFFFFFFFFFFFFFFFFFFFFFFFFFFFFFFFFFFFFF1F
:20020000FFFFFFFFFFFFFFFFFFFFFFFFFFFFFFFFFFFFFFFFFFFFFFFFFFFFFFFFFFFFFFFFFE
:20022000FFFFFFFFFFFFFFFFFFFFFFFFFFFFFFFFFFFFFFFFFFFFFFFFFFFFFFFFFFFFFFFFDE
:20024000FFFFFFFFFFFFFFFFFFFFFFFFFFFFFFFFFFFFFFFFFFFFFFFFFFFFFFFFFFFFFFFFBE
:20026000FFFFFFFFFFFFFFFFFFFFFFFFFFFFFFFFFFFFFFFFFFFFFFFFFFFFFFFFFFFFFFFF9E
:20028000FFFFFFFFFFFFFFFFFFFFFFFFFFFFFFFFFFFFFFFFFFFFFFFFFFFFFFFFFFFFFFFF7E
:2002A000FFFFFFFFFFFFFFFFFFFFFFFFFFFFFFFFFFFFFFFFFFFFFFFFFFFFFFFFFFFFFFFF5E
:2002C000FFFFFFFFFFFFFFFFFFFFFFFFFFFFFFFFFFFFFFFFFFFFFFFFFFFFFFFFFFFFFFFF3E
:2002E000FFFFFFFFFFFFFFFFFFFFFFFFFFFFFFFFFFFFFFFFFFFFFFFFFFFFFFFF21436587CA
:200300000121C006C00E81408B48016070470121C006C00E81408948016070470121C00633
:20032000C00E814086480160704780B5854800682021884383490860834800210160002031
:20034000009003E000BF0098401C00900098C828F8D37E48012101607D48012101607C483F
:20036000002101607A480121016079480068C007FBD5784823210160724800688021884303
:200380007049086074480068C007FBD5734803210160734801210160714800210160704810
:2003A000012101606E480068C007FBD5AD480121016001BD30B504000025002D02D1002C95
:2003C00000D10124674800212200002300F020FF6549884203D2654900220A6009E06449E6
:2003E000884203D2614901220A6002E05F4902220A60E1B29B4A116030BD80B5FFF795FF7A
:200400000120FFF7D7FFC549086001BD80B596480068401C9449086094480068401C934923
:200420000860BF480068002804D0BD480068401EBB4908600020C043FFF770FF01BD80B537
:200440000A00BC4900230B600021002300F03CFF874A002300F0DCFE002903D1002801D1DB
:2004600001200021401E0002000A824908600020C043FFF745FFAF480721016001BD80B5CD
:20048000A749086001E000F05FF9A54800680028F9D101BD00B57849A0220A60A1490860E2
:2004A000A14801210160A048002101609E48012101609D480068C007FBD59C4801210160B2
:2004C00020480068402188431E49086000BD58B50E00140096490968802212020A43944935
:2004E0000A60FFF7D7FF300000212200002300F0EBFEFA221201002300F08AFE8022520495
:200500000023994204D301D8904201D38A4800218A4A10608A48032101609448AA210160F1
:2005200092485521016051BD9048AA2101608F48552101607047000000E100E080E100E091
:2005400080E200E038820440208004404080044044800440088004400C800440708004409B
:2005600074800440006CDC02012D310110C00340015A620200B572B6FEE780B571480068AF
:20058000C0B240084007400FC0B2032823D1754800789E21084207D0684673490978017009
:2005A0001520FFF7BBFE5CE0C00757D57048006870496D4A12780A546D480068401C6C4982
:2005C00008606B4800688021C900884246D368480021016042E0C0B2022814D16448006862
:2005E0006449614A12780A5461480068401C604908605F4800688021C90088422ED35C4855
:20060000002101602AE0C0B2062827D0C0B2012824D154480078800620D5574800685749F1
:200620000968884214D0544800685549085C52490968491C504A11604B4908704E4800680F
:200640008021C900884209D34B480021016005E04C480068022188434A4908601520FFF780
:200660005DFE01BD78800440E81A0010EC1A001040420F0014E000E02480044010B50C00DF
:200680002B490968404A0A4329490A603F490968072291433D4A11603C49096801220A436E
:2006A0003A490A603A49096807229143384A11603749096801220A4335490A6035491A2266
:2006C0000A601A2100F02EFE334983220A700009210000F027FE0100090A2A4A11608021E5
:2006E000490000F01FFE204801702B48032101701448072101601520FFF702FE1C4800212E
:2007000001602648002101601C48002101601A48002101601B480521016010BDE01A0010FD
:20072000E41A0010D0800440D4800440D88004408080044010E000E0FFFFFF00044000404E
:20074000004000400880004015480068022188431349086013480068042188431149086065
:2007600030BF7047148000400080004008400040F01A001018120010FC1A0010F81A00101B
:20078000181600100480004040100100A4400440A8400440988004400C800040F41A00106C
:2007A0000080034010ED00E000BF704700BF704700BF704700BF704700BF704710B5010085
:2007C000002000221BE0A74B1B680824A343A54C2360A44B1B6802241C43A24B1C60400041
:2007E000A04B1B685B0702D50300012018439D4B1B680224A3439B4C23604900521CD2B2B7
:20080000082A08DA0B06DED5964B1B6808241C43944B1C60DDE7C0B210BD00009B48006868
:200820009B490143994801609A4800680421014398480160984800680B2101439648016063
:20084000954800680421884393490860854800680121014383480160824800680A210140BA
:2008600080480160704710B50300080011004A1E00290FD00100186848401B1D002101E004
:200880004000491C2029F1D20028F9D544009A486040F6E710BD0A00D206D20EC906C90ED9
:2008A0004942C84170470A00D206D20EC906C90ED0417047F4B507004C680D68182615E0B1
:2008C0002900022070430422504338184068201AFFF7E9FF04006C40210008207043385815
:2008E000281AFFF7E0FF05006540761E002EE7D17868201A009948603868281A009908607F
:20090000F1BDF1B586B00D0004260F240020049015E02000310000F005FD0421484301AF97
:2009200000902000310000F0FDFC0421484301A908580002295D411800983950641E00208F
:20094000C0438442E5D106989E490968016001240DE00420604306990818001F00689A49BF
:200960000968401804216143069A5050641C322CEFD3002426002500009427002BE00321AC
:2009800004206043069A1058C019009A8018FFF782FF04216143069A50500700009839180D
:2009A0000420684301AA1058C019009A8018FFF772FF0421694301AA50500090761C641C25
:2009C0002000322100F0AEFC0C006D1C2800042100F0A8FC0D00962ED1D307B0F0BD7CB58A
:2009E00005000E00022E0ED300240AE028680090686801902A0069467748FFF75BFFA41C9C
:200A00000835B442F2D373BD20480068734901431E4801607248002101607248012101609E
:200A200071480068C021C90001436F4801606F4800686F4901406D48016070476B49096885
:200A4000C022D20002400A4368480260704767490968C022D20002409143644801607047DB
:200A600000000000FC3F025080B5624800680121884360490860B920FFF7A0FE5D4800682A
:200A8000012101435B48016001BD00008080044040000500048004400080025080B5554839
:200AA00000680121884353490860AB20FFF786FE50480068012101434E480160002000908B
:200AC00002E00098401C00900098B42189008842F7D301BD80B547480068012188434549C1
:200AE00008600420FFF76AFE42480068012101434048016001BD0000B71DC10438B5040083
:200B00003C480068012188433A4908600520FFF755FE002505E0FFF707FD0120FFF7AFFCDD
:200B20006D1CA5420ED20020FFF748FE00900098C007F0D42F480068012101432D4801603B
:200B4000012006E02B4800680121014329480160002032BDF4B504000D001E00FFF79EFF01
:200B6000002780204000454300982818070021480068012188431F4908600320FFF71EFE44
:200B80003800000CC0B2FFF719FE3800000AC0B2FFF714FE3800C0B2FFF710FE04E0002024
:200BA000FFF70CFE2070641C3000461E0028F6D110480068012101430E480160FFF754FF7C
:200BC000F1BD0000100200101402001080B5FFF781FFFFF749FF01BD181A001040000100F5
:200BE000644004406840044000800050FC3F0050FFF9FFFFFC3F025080B57E4A904701BDB1
:200C000000B585B03222019202900391694601A8FFF7F2FF009805B000BD10B586B0332442
:200C20000194029103920493FA21890000F07AFB0590694601A8FFF7DFFF009806B010BD7B
:200C400000B585B03423019302910392FA21890000F068FB0490694601A8FFF7CDFF00985A
:200C600005B000BD10B504008908002903D02000FFF7B5FE241D10BD80B580208001C0229D
:200C800052010021FFF7EFFD02BDF0B5C3B08027BF01802080010090002500240120019014
:200CA000002618E0401CFF2809D839000F007F1C097802AA125C9142F4D00020019040228A
:200CC00021000098FFF7CFFD040080204000009908180090761C602E1AD2FFF725FC8023A6
:200CE0005B0000228020C000311802A8FFF732FF8021490002A8FFF7B5FF4022290002A88A
:200D0000FFF7B1FD050001980028D8D00020CAE78E4800680090002D02D1684601210170E1
:200D2000002C02D16846012141700198002802D0684601218170009843B0F0BD38B50400B6
:200D4000002572B621002000FFF75AFF050062B6002D01D000200DE072B6220021007C485F
:200D60000068FFF76DFF050062B6002D01D0002000E0012032BDF8B50700080016001C0090
:200D8000002572B60100FFF73BFF050062B6002D01D000200EE072B623003A0031006C4842
:200DA0000068FFF73AFF050062B6002D01D0002000E00120F2BD38B50224002508E0210070
:200DC0006448FFF7F3FC0A20FFF759FB641C6D1C062D0CD2FFF7A8FB2000FFF7AFFF00286F
:200DE000EDD121005C48FFF7E1FC002000E0012032BD0000F11FFF1FF8B5FFF7DCFF0028B9
:200E000002D10020C0435FE002278025AD01002604E07F1C802040012D181036602E4BD265
:200E200000241BE0FFF780FB80235B00002230198021C90041188C46802149006143474807
:200E400040186146FFF786FE80214900802040006043424A1018FFF705FF641C102CE1D38E
:200E600080235B012A0039003C48FFF784FF0400002C01D000BF00E000BF2800FFF79AFC00
:200E80003748FFF791FC002C02D10120C0431BE028003249002200E0521C8023DB009A42C5
:200EA000B7D204235343C358042454430C59A342F2D00220C04307E0FFF7DEFE002802D02E
:200EC0000320C04300E00120F2BD000080F3088880F309888F46704710B580208000FFF7CE
:200EE000B6FD2048026820492048FFF765FC1C48FFF75AFC1A491E48FFF75AFCFFF714FB7B
:200F00006420FFF7BCFA0020C043FFF700FA1520FFF7FDF972B68020400580218901002213
:200F200006E004235343042454430C59C450521C802AF6D3984801210160984801688020A9
:200F400080010068FFF7C2FF10BD000060150000E01A001020150000281500001802001009
:200F600054150000EC1A0010D8140000AC140000D813000010B5002424E0FFF7D5FA802009
:200F80008000FFF75BFDFA20FFF779FAFFF7CCFA80208000FFF75BFDFA20FFF770FAFFF766
:200FA000C3FA80208000FFF749FDFA20FFF767FAFFF7BAFA80208000FFF749FDFA20FFF791
:200FC0005EFA641C962080008442D6D3FFF7D2FA10BD38B572B6FFF710FAFA2252007048CA
:200FE00001680120FFF773FAFA2189006C480068FFF725FA9621C90169480068FFF73EFB66
:20100000FFF70CFCFFF7E2FDFFF7FEFC80208000FFF714FD63496448FFF773FC62B6634866
:20102000FFF7C2FB62496348FFF7C2FB5C4801686148FFF7BBFB5D48FFF7B6FB5F48006837
:2010400000905E481F21016000BF0098C00703D500215BA0FFF7ACFB0098800703D50021F2
:201060005848FFF7A5FB0098400703D500215648FFF79EFB0098000703D500215348FFF70C
:2010800097FB0098C00603D5002151A0FFF790FB4648FFF789FB002405E0FFF745FA64202B
:2010A000FFF7EDF9641C0A2CF7D3FFF7F7FCFA208000FFF723FDFFF7D7FC00214548FFF7CE
:2010C00077FBFFF7E2FD00904348026843494448FFF772FB68460078002844D04149424853
:2010E000FFF766FB68464078002813D03D493F48FFF75EFB68468078002806D000213C4883
:20110000FFF756FBFFF7E8FE08E000213948FFF74FFB03E038493548FFF74AFB37A138486E
:20112000FFF746FB2C480568FFF766FE04002A480068421B29493248FFF73EFB220031494B
:201140002F48FFF739FB012C06D12F492C48FFF72FFBFFF7C1FE1BE02C492948FFF728FB2F
:20116000FFF708FF14E024491F48FFF721FB68464078002806D01B491C48FFF719FBFFF76C
:20118000ABFE05E01C491948FFF712FBFFF7F2FEFFF7CAF9FCE7000000800440042000008E
:2011A000E01A001000020010181A0010541500009C1400004C140000CC1400003080044084
:2011C000504F52003015000038150000401500005359530060140000E81A0010D8140000C6
:2011E00074140000FC140000E4140000F014000088140000F0130000481500002E2E2E00D5
:20120000BC14000008150000581500005C150000124224D0994228D970B500251B4202D066
:201220000C00002109E00024012649186441944200D3A41A7641F8D33100012601E076416E
:2012400009D2001864416D41A41A9D41F7D2A4185D41B619F5D3300022002B0070BD1B42EB
:20126000D8D108B500F076F808BD01D19042D3D202000B00002100207047FEE7FEE7FEE7E8
:20128000FEE7FEE7FEE7FEE7FEE7FEE7FEE7FEE7FEE7FEE7FEE7FEE7FEE7FEE7FEE7FEE7FE
:2012A000FEE7FEE7FEE7FEE7FEE7FEE7FEE7FEE7FEE7FEE7FEE7FEE7FEE7FEE7FEE7FEE7DE
:2012C000FEE7FEE7FEE7FEE730B4434351435D18010C0C00130C5C432D1980B2434392B2EE
:2012E00051430024C918644124040B04090C09195043C018694130BC704738B4012100225A
:201300000368001D002B0BD00468001D0C4202D04D466D1E64192260241D1B1FF0D0FAE75D
:2013200032BC7047094210D088420BD30122002300185B418B4200D35B1A5241F8D31900AF
:201340001000704701000020704708B500F004F808BD000070470000704738B4012102689A
:20136000001D002A0FD00368C318446808300C4202D04D466D1E64191D6825601B1D241DDF
:20138000121FECD0F8E732BC7047000010B5074979441831064C7C44163404E0081D0A68EA
:2013A000891888470100A142F8D110BD080000002800000047FFFFFFE818000018020010A5
:2013C0000000000097FFFFFF18000000F4ECFFFF0002001000000000535441525420415032
:2013E000504C49434154494F4E2E2E2E00000000464C415348204E4F54204D415443482094
:20140000424F4F540000000000F009F8002801D0FFF7BCFF0020FFF7DCFD00F002F8012003
:20142000704780B500F002F801BD00000746384600F002F8FBE7000080B5C046C046024AF4
:2014400011001820ABBEFBE726000200535441525420424F4F544C4F414445523A200000DD
:20146000434845434B20424F4F542F464C41534800000000424F4F542F464C4153482043E9
:201480004845434B45442000464C415348204D4154434820424F4F54000000005246303140
:2014A000205645522E20312E30000000424F4F5420434F4D504C4554200000005550444190
:2014C000544520464C4153482000000046434C4B2056414C3A20000020415420286D532962
:2014E0003A200000424F4F54204D454D3A200000464C415348204D454D3A20004E4F54202D
:20150000454D5054590000005354415455533A2000000000C046C046C046C046FFF774FF7D
:20152000654F4B3A200000006545523A200000004558545200000000574454520000000078
:20154000424F445200000000454D505459000000FFFFFFFF0D0A00004F4B0000455252003F
:2015600000000000FFFFFFFFFFFFFFFFFFFFFFFFFFFFFFFFFFFFFFFFFFFFFFFFFFFFFFFF87
:20158000FFFFFFFFFFFFFFFFFFFFFFFFFFFFFFFFFFFFFFFFFFFFFFFFFFFFFFFFFFFFFFFF6B
:2015A000FFFFFFFFFFFFFFFFFFFFFFFFFFFFFFFFFFFFFFFFFFFFFFFFFFFFFFFFFFFFFFFF4B
:2015C000FFFFFFFFFFFFFFFFFFFFFFFFFFFFFFFFFFFFFFFFFFFFFFFFFFFFFFFFFFFFFFFF2B
:2015E000FFFFFFFFFFFFFFFFFFFFFFFFFFFFFFFFFFFFFFFFFFFFFFFFFFFFFFFFFFFFFFFF0B
:20200000A01F0010C17500004F6B0000516B0000536B0000556B0000576B00000052FDEFC7
:20202000000000000000000000000000596B00005B6B0000000000005D6B0000FF2200002D
:20204000616B0000636B0000656B0000676B0000696B00006B6B00006D6B00006F6B0000E8
:20206000716B0000736B0000756B0000776B0000796B00002D2C00007D6B00007F6B0000D5
:20208000816B0000836B0000856B0000876B0000896B0000872400000000000000000000E5
:2020A0008D6B00008F6B0000916B000000000000936B0000956B0000976B0000996B00002E
:2020C000000000000000000000000000000000000000000000000000000000000000000000
:2020E0000000000000000000000000000000000000000000000000004456494452463031C0
:202100000000000000000000000000000000000000000000000000000000000000000000BF
:2021200000000000000000000000000000000000000000000000000000000000000000009F
:2021400000000000000000000000000000000000000000000000000000000000000000007F
:2021600000000000000000000000000000000000000000000000000000000000000000005F
:2021800000000000000000000000000000000000000000000000000000000000000000003F
:2021A00000000000000000000000000000000000000000000000000000000000000000001F
:2021C0000000000000000000000000000000000000000000000000000000000000000000FF
:2021E0000000000000000000000000000000000000000000000000000000000000000000DF
:202200000121C006C00E81408F48016070470121C006C00E81408D480160704780B58C48EB
:202220000068202188438A4908608A48002101600020009003E000BF0098401C009000982D
:20224000C828F8D38448012101608448012101608248002101608148012101607F4800685E
:20226000C007FBD57E48232101607948006880218843774908607B480068C007FBD57A481B
:202280000321016079480121016078480021016076480121016075480068C007FBD5B74837
:2022A0000121016001BD30B504000025002D02D1002C00D101246E4800212200002304F09D
:2022C00011FC6C49884203D26B4900220A6009E06A49884203D2684901220A6002E0664953
:2022E00002220A60E1B2A54A116030BD80B5FFF795FF0120FFF7D7FFA149086001BD80B57F
:20230000A04801210160A0480068401C9E4908609E480068002804D09C480068401E9B497F
:2023200008609B480068002805D099480068401E9749086007E096489649016091480069B7
:20234000401C904908610020C043FFF760FF01BD80B50A00C44900230B600021002304F097
:202360001DFC8D4A002304F0BDFB002903D1002801D101200021401E0002000A87490860C3
:202380000020C043FFF73CFFB7480721016001BD00B57E49086000E000BF7C4800680028CC
:2023A000FAD100BD00B57E49A0220A607D4908607D48012101607C48002101607A4801214D
:2023C000016079480068C007FBD57848012101601F480068402188431D49086000BD58B506
:2023E0000E001400A1490968802212020A439F490A60FFF7D7FF300000212200002304F0B5
:20240000CDFBFA221201002304F06CFB802252040023994204D301D8904201D394480021FE
:20242000A44A1060A44803210160C548AA210160C3485521016051BDC148AA210160C04867
:20244000552101607047000000E100E080E200E038820440208004404080044044800440FD
:20246000088004400C8004407080044074800440006CDC02012D310110C00340015A6202D8
:2024800000B572B6FEE780B58C480068C0B240084007400FC0B2032823D19E4800789E210B
:2024A000084207D068469C49097801701520FFF7AEFE62E0C0075DD5A2480068A249964A47
:2024C00012780A549F480068401C9E4908609D4800688021C90088424CD39A480021016016
:2024E00048E0C0B2022814D19648006896498A4A12780A5493480068401C92490860914897
:2025000000688021C900884234D38E480021016030E0C0B206282DD0C0B201282AD17D48B8
:202520000078800626D58948006889490968884214D0864800688749085C84490968491C6B
:20254000824A116074490870804800688021C90088420FD37D48002101600BE07E48006863
:20256000022188437C4908607C480068082188437A4908601520FFF74AFE01BD7880044088
:20258000641B0010D81A0010681B00106C1B001038020010E703000040420F0014E000E0E7
:2025A00024800440D0800440D4800440D880044010B50C002D490968694A0A432B490A60D5
:2025C0006849096807229143664A11606549096801220A4363490A606349096807229143FC
:2025E000614A11606049096801220A435E490A605E49096808220A435C490A605749096875
:2026000008229143554A116059491A220A601A2104F0F2FA574983220A700009210004F06C
:20262000EBFA0100090A4C4A11608021490004F0E3FA394801704F48032101701F48072132
:2026400001601520FFF7DCFD3E48002101604A48002101603E48002101603C4800210160EB
:202660003D480521016010BD10E000E080800440FFFFFF0000B572B60020C0433E49096878
:20268000304A1268914212D03B4800682E49085C39490968491C384A1160C0B2364909681E
:2026A0008022D200914202D3334900220A6062B600BD000004400040004000400880004055
:2026C00000B572B62449096889070ED42349096808220A4321490A601F49096802220A435B
:2026E0001D490A600C49087011E019490968194A505417480068401C1549086014480068C5
:202700008021C900884202D311480021016062B600BD0000148000400080004080B500E057
:2027200062B6FFF789FE0120FFF732FE72B607480068074909688842F2D162B601BD0000BA
:2027400008400040701B0010700A00107C1B0010781B0010700E001004800040FC3F0350A2
:2027600040100100A4400440A840044000800350988004400C800040741B0010F0B5030072
:202780000024E443002000E0401C904210D20124002500E06D1C4E5D002E06D01E18765D73
:2027A0004F5DBE42F6D00024E443012CECD101E00020C043F0BDFCB502000024E4430023A0
:2027C000002003E05B1C0024E443401C019CA04213D20124002500E06D1C4E5D002E06D012
:2027E0001618765D4F5DBE42F6D00024E443012CEBD1009CA342E5D101E00020C043F6BD44
:2028000070B504000025002004E0EDB295420FD06D1C401C984209D2265CC9B28E42F4D0E6
:20282000265C002EF5D10020C04301E00020C04370BDF2B584B005000024002D03D568421B
:2028400005000124FFE7002700E07F1C0A2F12D22E0030000A2104F0CFF9050030000A2104
:2028600004F0CAF968463031C1556846C01900214170002DE9D1684604F0D5F90600002C9A
:2028800007D068462D2181556846801900214170761C0020711E05E0049A6B461B5C5354E3
:2028A000401C491EB042F7D304980021815505B0F0BD80B56149C979002906D05F498968EB
:2028C000002902D1C0B2FFF7FBFE62B601BD10B5040003E02078FFF7ECFF641C2078002860
:2028E000F8D110BD10B504003020FFF7E2FF7820FFF7DFFF2000000FA449085CFFF7D9FF98
:202900002000000E0007000FA049085CFFF7D1FF2000000D0007000F9C49085CFFF7C9FF16
:202920002000000C0007000F9849085CFFF7C1FF2000000B0007000F9449085CFFF7B9FF2A
:202940002000000A0007000F9049085CFFF7B1FF200000090007000F8C49085CFFF7A9FF3E
:202960002007000F8949085CFFF7A3FF10BDE0B56946FFF75EFF6846FFF7A9FF07BD10B51A
:202980000C00002801D0FFF7A2FF002C02D02000FFF79DFFA448FFF79AFF10BD10B50C00D2
:2029A000FFF795FF2000FFF7E2FF9F48FFF78FFF10BD000038B50C001500002801D0FFF761
:2029C00086FF002C02D02000FFF781FF2800FFF7CEFF9548FFF77BFF31BD38B50C001500AA
:2029E000002801D0FFF773FF2000FFF7C0FF2C20FFF75FFF2800FFF7BAFF8B48FFF767FFFB
:202A000031BDF8B504000F0015001E00002C02D02000FFF75CFF002C02D03800FFF757FFE4
:202A20002800FFF7A4FF2C20FFF743FF3000FFF79EFF7D48FFF74BFFF1BD0000D81A0010D9
:202A40000A00D206D20EC906C90E4942C84170470A00D206D20EC906C90ED0417047F4B5EA
:202A600007004C680D68182615E02900022070430422504338184068201AFFF7E9FF040028
:202A80006C402100082070433858281AFFF7E0FF05006540761E002EE7D17868201A009910
:202AA00048603868281A00990860F1BDF1B586B00D0004260F240020049015E0200031009D
:202AC00004F09AF80421484301AF00902000310004F092F80421484301A908580002295D6F
:202AE000411800983950641E0020C0438442E5D106987D490968016001240DE0042060432C
:202B000006990818001F006878490968401804216143069A5050641C322CEFD300242600F2
:202B20002500009427002BE0032104206043069A1058C019009A8018FFF782FF042161436C
:202B4000069A50500700009839180420684301AA1058C019009A8018FFF772FF0421694320
:202B600001AA50500090761C641C2000322104F043F80C006D1C2800042104F03DF80D00AE
:202B8000962ED1D307B0F0BD00000000F47100007CB505000E00022E0ED300240AE0286811
:202BA0000090686801902A0069467448FFF757FFA41C0835B442F2D373BD00B54C4A126896
:202BC0001204FBD44B4A7F231360C9B2491C484A1160474909680904FBD469490968490436
:202BE00009D5684909680B0065490968664A0A401104194304E06249096889084905490D0B
:202C00000160624909680907090F416060490968816060490968C1605F49096801619949DB
:202C20000968416100BD00009C76000010B586B002E095480121018058480068002850D005
:202C4000010406D55648046860064AD42006F3D547E06107490F0029EED14004400C002891
:202C6000EAD02128E8D24E490968102291434C4A11604C498968491C4A4A9160411EC9B238
:202C80006846FFF79AFF80488078182148437E490818001D6946182203F0CEFF7A4880780C
:202CA000401C7949887078488078182802DB764800218170744800880028BAD07248008821
:202CC000012809D1704880786F49C9788842B3D16D4802210180AFE76B486B498978C17072
:202CE000AAE706B010BD00003C02001040020010800005408400054030B5644CF325256060
:202D0000DB00DB089CB2624D2C601B0C802424021C43604B1C60D200D20893B25E4C2360D7
:202D2000012901D0022906D1120CC0231B0213435A4A136005E0120C8023DB011343574A92
:202D40001360012903D15649564A0A6002E05449554A0A60554900220A60554900220A607D
:202D6000544900220A60544900220A6093490860924800680004FBD430BD0000B8190010DA
:202D80009400054090000540FF5F0000980005409C000540A0000540A40005401000054046
:202DA00004000540801A001010B5002407E00023002200212000401CFFF79EFF641C202C0F
:202DC000F5D310BD38B5A248FFF781FDA14DFF24E44323002A0001210120FFF78DFF9E48E3
:202DE000FFF775FD0120FFF7C2FD2C20FFF761FD2020FFF75EFD9948FFF769FD2800FFF709
:202E000071FD2C20FFF755FD2020FFF752FD9448FFF75DFD2000FFF765FD8D48FFF757FD68
:202E2000904DFF24E44323002A0001210220FFF763FF8948FFF74BFD0220FFF798FD2C207A
:202E4000FFF737FD2020FFF734FD8448FFF73FFD2800FFF747FD2C20FFF72BFD2020FFF7E1
:202E600028FD7F48FFF733FD2000FFF73BFD7848FFF72DFD7648FFF72AFDC7480121816124
:202E800031BD0000A80005407415001024000540280005402C000540300005403400054089
:202EA0003800054088140000881000003C00054040000540440005404800054038B5150043
:202EC0001C009C4A12689C4B13439A4A13609B4A002313609A4A126840231343984A1360FB
:202EE000984A126840239A43964B1A60964A126808231343944A13608E4A126880239B021D
:202F000013438C4A1360A54A1268D20705D4A34A126801231343A14A136003F06DFE401EFC
:202F20009F4908609D480068402101439B4801609C4805609C4800210160984800684021B3
:202F400088439649086095480068012188439349086092480068C007FBD4002C0CD18F4831
:202F60000068802188438D490860904800681C2188438E49086011E08848006880210143AA
:202F800086480160894800681C21884387490860864800680821014384480160FFF704FFC0
:202FA000002C01D1FFF70EFF0D20FFF729F97B4800680E2101437948016031BD20000540B8
:202FC00010B50A684B68092B01D308234B600B685B000FD49200A0231B021343A74A13604C
:202FE000A74A00231360A74AA74B1360A74A002313600FE013001B0CE02424021C439F4BD1
:203000001C6092B29E4B1A609E4AA14B13609F4AA04B13600A791207120F8C235B011343E1
:203020009D4A13608A689D4B1A60CA689C4B1A600A699C4B1A6049699B4A11609B49F72276
:203040000A60A8490860A74800680004FBD410BD9C7600000000EC18907300006C760000BB
:20306000747600000000EB1800B572B6A749098800292DD0A549C97818225143A34A51188C
:20308000091D182203F0D8FDA048C078401C9F49C8709E48C078182802DB9C480021C170FB
:2030A0009A480088022803D19848012101800CE096480088012808D19448C07893498978E0
:2030C000884202D191480021018062B6012001E062B6002000BD10B50100002000221BE0C6
:2030E000AA4B1B680824A343A84C2360A74B1B6802241C43A54B1C604000A44B1B685B0755
:2031000002D5030001201843A04B1B680224A3439E4C23604900521CD2B2082A08DA0B0612
:20312000DED59A4B1B6808241C43984B1C60DDE7C0B210BD80800440400001004C40044032
:2031400000800050FC3F0050048004409948006899490143974801609848006804210143EC
:2031600096480160964800680B210143944801609348006804218843914908608348006875
:203180000121014381480160804800680A2101407E48016070470000D81A001000000540DE
:2031A000800105400C000540180005401400054010B50200FF200B00591E002B10D00300CC
:2031C00010785840521C002301E040005B1CDBB2082BF0DA0406F8D5440031206040F5E734
:2031E000C0B210BD10B50200080008210AE0030018205840C0B24008030080201843D2B29F
:203200005208491EC9B200290AD0140044402300DB07DB0FDBB2002BE9D1C0B24008EEE7E7
:20322000C0B210BD38B504000D00002005E00100C9B22078FFF7D6FF641C29004D1E002930
:20324000F5D1C0B232BD10B5020012480B00591E002B11D00300107800025840521C0023E2
:2032600001E040005B1CDBB2082BEFDA0404F8D54400A4486040F5E780B210BD3400054034
:20328000300005402C000540FC5F000028000540FFDF0000FFFF0000380005403C000540A6
:2032A0004000054044000540480005402400054040480068974901433E4801609648002110
:2032C000016096480121016095480068C021C9000143934801609348006893490140914884
:2032E00001607047200005408E490968C022D20002400A438B48026070478A490968C022B4
:20330000D200024091438748016070477415001080B51E480068012188431C490860B920AF
:20332000FFF7D9FE19480068012101431748016001BD80B515480068012188431349086068
:20334000AB20FFF7C8FE11480068012101430F4801600020009002E00098401C0090009859
:20336000B42189008842F7D301BD80B50748006801218843054908600620FFF7ACFE0348FD
:203380000068012101430148016001BDFC3F025080B5A248006801218843A0490860042081
:2033A000FFF799FE9D480068012101439B48016001BD00008080044040000500048004407A
:2033C0000080025038B504009448006801218843924908600520FFF77EFE002505E0FFF71F
:2033E0002BF80120FEF7D4FF6D1CA5420ED20020FFF771FE00900098C007F0D48748006802
:203400000121014385480160012006E0834800680121014381480160002032BDF4B5040092
:203420000D001E00FFF785FF002780204000454300982818070079480068012188437749A3
:2034400008600320FFF747FE3800000CC0B2FFF742FE3800000AC0B2FFF73DFE3800C0B22B
:20346000FFF739FE04E00020FFF735FE2070641C3000461E0028F6D16848006801210143E1
:2034800066480160FFF744FFF1BDF4B504000D001E00FFF74EFF00278020400045430098F4
:2034A00028180700FFF761FF5C480068012188435A4908600220FFF70EFE3800000CC0B291
:2034C000FFF709FE3800000AC0B2FFF704FE3800C0B2FFF700FE03E02078FFF7FCFD641CBB
:2034E0003000461E0028F7D14C480068012101434A4801600A20FFF765FFFFF749FFFFF73B
:2035000007FFF1BD2110000080B5FFF741FFFFF7FFFE01BD40000100644004406840044095
:2035200000800050FC3F0050FFF9FFFFF4B507008020400041430C000098FF21891C8842F3
:2035400002D3802040000090FFF7F3FE002511E03878FFF7C0FD7F1C761CFF2EF8D9AC48A7
:20356000006801210143AA4801600A20FFF72AFF641C6D1C009885421DD2802676006643C5
:20358000FFF7F3FEA248006801218843A04908600220FFF7A0FD3000000CC0B2FFF79BFDC3
:2035A0003000000AC0B2FFF796FD3000C0B2FFF792FD0026D1E7FFF7EBFEFFF7A9FEF1BDA7
:2035C00010B50400802040024443FFF7B2FEFFF7CCFE124800680121884310490860D820EB
:2035E000FFF779FD2000000CC0B2FFF774FD2000000AC0B2FFF76FFD2000C0B2FFF76BFD6C
:203600000648006801210143044801608148FFF7D9FEFFF7BDFEFFF77BFE10BDFC3F0250D1
:2036200000B5C1B080235B00002201006846FFF7F5FE002000E0401CFF2805D86946095C38
:20364000FF29F8D0FF2000E0002041B000BD10B5002400E0641C602C0AD2FEF7EDFE80207C
:20366000C0002018FFF7DCFF0028F3D0FF2000E0002010BD10B504008908002903D0200034
:20368000FFF786FA241D10BD70B50022002311E08C5C303CE406E40EB94D2C5D24018D18C2
:2036A0006D78303DED06ED0EB54E755D2543C554921C5B1C8024A400A242E9D370BD00B585
:2036C00083B0002103E0425C6B465A54491C0829F9D308216846FFF7CDFF002000E0401C5F
:2036E000082807D26946095CBC4A125C9142F6D0002000E001200EBD30B5C1B005000C004D
:20370000FEF79AFE80235B00002229002000FFF7BCFE80235B00002229006846FFF77EFE9A
:20372000002000E0401CFF2806D86946095C225C9142F7D0FF2000E0002041B030BD00B54A
:203740000100002000E0401C102805D2A44A125CC9B29142F7D101E00020C04300BD70B5A5
:203760000022002311E0C45C303CE406E40E844D2C5D2401C5186D78303DED06ED0E804E41
:20378000755D25438D54521C9B1C052AEBD370BD38B50C0001004909924A8D18082148434E
:2037A0008021490003F028FA05230A0029002000FFF734FE31BD70B582B004000D002000F1
:2037C000400988494618082060438021490003F013FA05230A0031002800FFF756FE684639
:2037E000002101706846697941702000C0098021C90046180220444320008021490003F09F
:20380000FBF902230A0031006846FFF73EFE73BDFC3F02508813000038B50C000100C90950
:203820008022D2008D18022148438021490003F0E3F902230A0029002000FFF7EFFD31BDC0
:20384000FEB5C8B0070001AA674803C803C2083A00200090002602E00098401C0090009836
:2038600020286DD2FEF7E8FD80235B00002200988021C900411807A8FFF7D0FD00240025B1
:2038800002E0761C641CAD1C802CE5D202980021C943884229D14898800726D507A8405DCF
:2038A000FF2822D007A8401940784A99497988421BD105A93000FFF76BFF0120002100E074
:2038C000491C052906D205AA525C4A9B5B5C9A42F6D00020002808D002964998800704D5E9
:2038E00001A803C803C7083F2EE001980021C9438842C6D14898C007C3D507A8405DFF285C
:20390000BFD107A840194078FF28BAD103A93000FFF73EFF0120002100E0491C052904D20B
:2039200003AA525CFF2AF8D000200028A9D001964998C007A5D501A803C803C7083F03E059
:2039400001A803C803C7083F4BB0F0BD38B504000D00FEF771FD2800FFF732FE022229003E
:203960002000FFF7E3FD022D04D198499848FFF706F803E09549A948FFF701F831BD000009
:20398000F0700000F8B507000E00002400E0641C032C0FD280235B00002231003800FFF7F2
:2039A0003DFD802149003800FFF702FC0500EDB2002DECD1EDB2002D08D1002C0BD023005A
:2039C00032009749B248FFF71CF804E032009549AF48FEF7EFFF2800C0B2F2BDF8200000A2
:2039E000F4710000330400000476000070B5C0B0002500E06D1C032D00D3B3E0FEF71CFDEA
:203A00000024802189006846FFF7BCFF002803D020000124044308E0002004E09D496A46F0
:203A2000125C0A54401CFF28F8D9AE496846FFF7A9FF002803D02000022404430BE0002090
:203A400007E080214900934A12186B461B5C5354401CFF28F5D9C02189006846FFF792FFCF
:203A6000002803D02000042404430AE0E00708D5002004E087496A46125C0A54401CFF283B
:203A8000F8D999496846FFF77DFF002803D02000082404430DE0A0070BD5002007E08021A9
:203AA00049007C4A12186B461B5C5354401CFF28F5D90520204005280DD1764E002002E057
:203AC00000213154401CFF28FAD3FF213000FFF76FFBFF3630700A2020400A280DD1A64EDD
:203AE000002002E000213154401CFF28FAD3FF213000FFF75DFBFF363070A007800F0028FD
:203B000004D1B9493248FEF73AFF08E0C7493048FEF735FF022202215E48FFF717FF0C2068
:203B20002040002804D1B0493C48FEF728FF08E0BE493A48FEF723FF022203215548FFF72C
:203B400005FF2A00521CC549C548FEF733FF002C00D04FE7A449C248FEF711FFCE48FEF74E
:203B6000B6FE06E0B149BE48FEF709FFCA48FEF7AEFE40B070BD30B5C1B0002801D1022468
:203B800000E00324802040004443002500E06D1C022D18D261196846FFF7F4FE002801D007
:203BA000002011E0002000E0401CFF28EFD8802149006943374A5118095C6A46125C9142D4
:203BC000F2D0002000E0012041B030BD4C760000A072000080B5FEF72FFC0020FFF7CBFF1B
:203BE000002805D1022202212A48FFF7AFFE03E0C949CA48FEF7C3FEFEF71EFC0120FFF788
:203C0000BAFF002805D1022203212248FFF79EFE03E0C1498648FEF7B2FE01BDB072000069
:203C20002C710000D072000038B50C0003214843802149006143174B591813009BB21B0A17
:203C40000B54802149006143124B591809184A708021490061430F4A51180D180221802294
:203C6000520062430B4B9A181018FFF7A1FAA870FF21802040006043064A1018FFF798FAD1
:203C8000802149004C4303490919FF31087031BD00750000B817001070B50C0016000321E8
:203CA000484305000321802040006043C44A10184019FFF77DFA002810D180204000604345
:203CC000BF490818405D0002802149004C43BC49091949194978084380B201E0300080B29A
:203CE00070BD0000010200000103000038B50C0005214843802149006143B14B59181300D8
:203D00001B0E0B54802149006143AD4B5918091813001B0C4B70802149006143A84B59181C
:203D2000091813001B0A8B70802149006143A44B59180918CA70802149006143A04A511805
:203D40000D1804218022520062439D4B9A181018FFF72EFA2871FF21802040006043984A82
:203D60001018FFF725FA802149004C4394490919FF31087031BD0000B818001070B50C00E7
:203D8000160005214843050005218020400060438B4A10184019FFF70BFA002821D18020A3
:203DA0004000604386490818405D0006802149006143834A511849194978090401438020B6
:203DC000400060437E4A10184019807802020A438020400044437A4800194019C078104348
:203DE00000E0300070BD0000A076000080B5022807D100221123914211D399420FD201204F
:203E000013E0042801D0032802D111221423F2E70A0001008948FEF7E0FD002005E00A00B4
:203E200001008648FEF7D9FD002002BDA4760000B072000038B504000D0021000220FFF796
:203E4000D5FF002809D02A0092B200210C2044437B4800194068FFF7E7FE31BD0C7500007D
:203E6000E072000010B5040021000220FFF7BEFF002801D100200DE00C2060437049081882
:203E8000826892B200210C2044436D4800194068FFF702FF10BD00009C76000038B50400E3
:203EA0000D0021000420FFF7A1FF002808D02A0001210C204443624800194068FFF716FFA5
:203EC00031BD10B5040021000420FFF78FFF002801D100200CE00C206043594908188268E1
:203EE00001210C204443564800194068FFF746FF10BD80B50C224243514B9A185288921EC6
:203F000003D0521E012A04D905E089B2FFF792FF01E0FFF7C3FF01BD54760000A07200007C
:203F200080B50C214143464A51184988891E03D0491E012903D905E0FFF794FF03E0FFF7A3
:203F4000C0FF00E0002002BD80B58049C979002906D07E498968002902D1C0B2FEF7B0FBDE
:203F600062B601BD10B5040003E02078FFF7ECFF641C20780028F8D110BDE0B56946FEF737
:203F800058FC6846FFF7EEFF07BD714800210170704710B504006F48002101706C4802F0BE
:203FA00042FE00280BD0002C03D16948FFF7DAFF05E0020066496848007901F037FF10BD8B
:203FC000B817001010B50400614802F02CFE002805D05F490C54401C5D4900220A5410BD20
:203FE00038B50400200002F01EFE0500584802F01AFEA249884204D3C02080005549002247
:204000000A70C0218900091A00290ED0A94200D20D00002104E0625C4D4B1A54401C491C3E
:20402000A942F8D34A4900220A5431BDE0B56946FEF7FFFB6846FFF7D3FF07BD00750000E7
:204040002C6F000070B58CB004001500002912D110980C214143B24A565A0C214143B04A8F
:2040600051184988022901D0042904D1FFF758FF04A9FEF7DEFBFA2080004543AD1901A9AE
:204080002800FEF7D6FBFFF780FFA648FFF7A8FFA448FFF7A5FFA448FFF7A2FF6846A3498F
:2040A0000A6802600A2D03D26846FFF799FF0EE0642D04D26846401CFFF792FF07E0FA20FD
:2040C0008000854203D26846801CFFF789FF01A8FFF786FF002C03D1AD48FFF781FF02E08B
:2040E000AC48FFF77DFF04A8FFF77AFF8D48FFF777FF3C20FFF766FF0A2D03D26846FFF797
:204100006FFF0EE0642D04D26846401CFFF768FF07E0FA208000854203D26846801CFFF718
:204120005FFF01A8FFF75CFF2020FFF74BFF04A8FFF756FF3E20FFF745FF7A48FFF750FF11
:204140007848FFF74DFF0CB070BD0000D81A00107012001070150010241B0010F1B582B024
:204160000C0017000298002802D00E2F03D283E00D2F00D080E0207A20287DD102980028B5
:2041800002D0607B202877D1092000E0401C0D2804D2215C30390A29F8D36DE00020009091
:2041A000002620000A3002F061FD0090002500E06D1C142D60D20C2068435949085A00992A
:2041C0008842F5D10C206843554908184088022802D0042829D0EBE7029800281DD00E2022
:2041E000215C2D2903D10F207F1E00E0401CB84204D2215C30390A29F8D33DE00E342000DD
:2042000002F034FD0600310089B22800FFF712FE002D02D1C2480021C161009500230022B4
:2042200000210298FFF70EFF26E0029800281BD00E20215C2D2903D10F207F1E00E0401C30
:20424000B84204D2215C30390A29F8D314E0122D0AD0132D08D00E34200002F007FD060027
:2042600031002800FFF71AFE00950023002200210298FFF7E7FEFFE7F7BD000001030000C9
:2042800080B5FFF782FE2748FFF7AAFE2548FFF7A7FE3C20FFF796FEA248FFF7A1FE3E209B
:2042A000FFF790FE1F48FFF79BFE1E48FFF798FE01BD80B5FFF79AFBFFF767FE1948FFF762
:2042C0008FFE1848FFF78CFE3C20FFF77BFE9648FFF786FE3E20FFF775FE1248FFF780FEB9
:2042E0001048FFF77DFE01BD80B5FFF773FCFFF74CFE0C48FFF774FE0A48FFF771FE3C208E
:20430000FFF760FE8948FFF76BFE3E20FFF75AFE0448FFF765FE0348FFF762FE01BD000069
:204320002C6F00009C760000187500009876000080B500211220FFF7DCFD00211320FFF794
:20434000D8FDFFF747FC01BD10B505210022D24390421CD0002205E0754B9B185B78744CA4
:20436000A354521C8A42F7D3714A5218521E1070002000E0401C884206D26D4A125CA84B17
:204380001B5C9A42F6D002E0A6480121417110BD5C7600002475000080B5FFF7F6FDA24820
:2043A000FFF71EFE3C20FFF70DFEA048FFF718FE3E20FFF707FE9C48FFF712FE9948002155
:2043C000417198480021817196480021C17101BD10B50400FFF7D9FD002C12D19248FFF7D5
:2043E000FFFD3C20FFF7EEFD9148FFF7F9FD3E20FFF7E8FD8C48FFF7F3FD49480021C171E8
:2044000011E047480121C1718748FFF7E9FD3C20FFF7D8FDAE48FFF7E3FD3E20FFF7D2FD07
:204420008148FFF7DDFD10BD10B50400FFF7ADFD7D48FFF7D5FD3C20FFF7C4FD002C09D107
:20444000A448FFF7CDFD36480021816034480121817105E0AE48FFF7C3FD31480021817183
:204460003E20FFF7AFFD7048FFF7BAFD10BD30B585B00400122951D1E07920284ED10025AA
:2044800000E06D1C0A2D08D26019007AFFF757F90021C9438842F4D140E002A90834200086
:2044A000FFF75DF9052102A8FEF782FE02A9487102AB022203216846FFF7C2F901980021F9
:2044C000C943884202D0B24C019D0DE000980021C943884206D002A90098FFF76CF9AD4CAF
:2044E000009D01E0AC4C0025FFF74FFD4E48FFF777FD3C20FFF766FDA848FFF771FD2000B6
:20450000FFF76EFD2C20FFF75DFD2800FFF78EFD3E20FFF757FD4448FFF762FD05B030BDCA
:20452000D81A001010710000C0720000F47400003C1B00103EB5092970D3C17920296DD1CE
:20454000083002F093FB040080204001844265D269462000FFF760F901A92000FFF718F9D2
:20456000052101A8FEF724FE01A9487168460078FF2809D06846407801A94979884201D15E
:20458000002515E0022513E00120002100E0491C052904D201AA525CFF2AF8D00020694643
:2045A0004978FF2903D1002801D0012500E00225FFF7EBFC1C48FFF713FD3C20FFF702FD80
:2045C000AA48FFF70DFD2000FFF730FD2C20FFF7F9FC002D13D10024052C19D201A8005D18
:2045E0000011A349085CFFF7EDFC01A8005D0007000F9F49085CFFF7E5FC641CECE7012DBB
:2046000003D1B448FFF7ECFC02E0B348FFF7E8FC3E20FFF7D7FC0448FFF7E2FC37BD0000FA
:2046200044760000D81A00109C760000207300004073000030B585B00400142945D1607A1B
:20464000202842D1002500E06D1C0A2D08D26019807AFFF774F80021C9438842F4D134E0BB
:2046600069460A342000FFF77AF805216846FEF79FFD694648716B460222022102A8FFF760
:20468000DFF803980021C943884202D0414C039D01E0414C0025FFF778FC9048FFF7A0FC4B
:2046A0003C20FFF78FFC8E48FFF79AFC2000FFF797FC2C20FFF786FC2800FFF7B7FC3E201F
:2046C000FFF780FC8548FFF78BFC05B030BD0000307300006073000080B5FDF7ADFE04200E
:2046E000FEF76EFFFFF751FC7C48FFF779FC3C20FFF768FC7B48FFF773FC2648FFF770FC38
:204700003E20FFF75FFC7548FFF76AFC01BD00005073000070B5C0B07048FFF723FC3C2092
:20472000FFF712FC7048FFF71DFC80200002FFF724FC2C20FFF708FC002413E06846465D48
:20474000F6B2300000114A49085CFFF7FDFBF6B23007000F4649085CFFF7F6FB6D1CFF2D0E
:20476000ECD9641C802C0BD280235B0000225F4821186846FEF752FEFDF7D0FF0025EEE7BB
:204780003E20FFF7E1FB5548FFF7ECFB40B070BD64760000A0760000A4760000547500007F
:2047A00070B5C0B04D48FFF7DDFB3C20FFF7CCFB4F48FFF7D7FB80208001FFF7DEFB2C204D
:2047C000FFF7C2FB002413E06846465DF6B2300000112749085CFFF7B7FBF6B23007000F6B
:2047E0002349085CFFF7B0FB6D1CFF2DECD9641C202C0ED280235B0000228020C000211869
:204800006846FEF70BFEFDF717FEFDF787FF0025EBE73E20FFF798FB3048FFF7A3FB40B08F
:2048200070BD10B5FFF7B1FBFEF711FF04002B48FFF7D6FB2948FFF7D3FB3C20FFF7C2FB5D
:204840002C48FFF7CDFB002C03D12248FFF7C8FB02E02948FFF7C4FB3E20FFF7B3FB1F4892
:20486000FFF7BEFB1D48FFF7BBFB10BD60750000F471000010B5FFF788FBFDF7DDFD042041
:20488000FEF79EFEFEF7E3FE04001448FFF7A8FB1248FFF7A5FB3C20FFF794FBC048FFF7E9
:2048A0009FFB002C03D1BF48FFF79AFB08E0BE48FFF796FB2C20FFF785FB0020FFF7B6FBCE
:2048C0003E20FFF77FFB0548FFF78AFB0348FFF787FB10BD7C7600006C7500009C760000CD
:2048E0007875000070730000807300003304000084750000A073000084760000F0B5C1B0A2
:2049000007000C00FFF741FB3E000A36380012300090A6483918A648844200D03DE1087869
:204920003038C006C00EA34A105C040348783038C006C00E9F4A105C0002204304008878A1
:204940003038C006C00E9B4A105C000120430400C8783038C006C00E9649085C0443822139
:2049600089003000FEF76FFCA4B280B2844200D013E130783038C006C00E8E49085C040722
:2049800070783038C006C00E8A49085C000620430400B0783038C006C00E8649085C000533
:2049A00020430400F0783038C006C00E8149085C00042043040030793038C006C00E7D4928
:2049C000085C00032043040070793038C006C00E7849085C000220430400B0793038C0063F
:2049E000C00E7449085C000120430400F0793038C006C00E6F49085C20430400602C50D2CA
:204A00006D48008800282ED1002C29D1009901A8FEF73AFE01A8F830FEF751FE00281CD074
:204A20008020C0002018FEF7FBFD002812D101A98020C0002018FEF75FFE002807D100262C
:204A40005D48012101805C485C4941802BE00126012528E00126002525E00126032522E002
:204A6000012604251FE08020C0002018FEF7D8FD002813D1009901A8FEF706FE01A98020F4
:204A8000C0002018FEF738FE002804D100264A484A49418007E00126012504E00126002586
:204AA00001E001260225CC48FFF79AFACA48FFF797FA3C20FFF786FAC848FFF791FA002EFF
:204AC0000FD13848FFF78CFA5F2C05D13A48002101803948002141802100C148FDF75EFF97
:204AE00013E03148FFF77CFA2C20FFF76BFA2800FFF79CFA3048002101802F480021418010
:204B00002A002100B748FDF768FF2C20FFF75AFA2000000FB449085CFFF754FA2000000E58
:204B20000007000FB049085CFFF74CFA2000000D0007000FAC49085CFFF744FA2000000CCA
:204B40000007000FA849085CFFF73CFA2000000B0007000FA449085CFFF734FA2000000ADE
:204B60000007000FA049085CFFF72CFA200000090007000F9C49085CFFF724FA2007000FE4
:204B80009949085CFFF71EFA3E20FFF71BFA9248FFF726FA9048FFF723FA41B0F0BD0000DF
:204BA0009C750000A0760000A47600001202000016020000F0700000801B001088130000E2
:204BC00030B5C1B005000C00FFF7DFF90A35112C00D0FEE028783038C006C00E8349085CAA
:204BE000040768783038C006C00E8049085C000620430400A8783038C006C00E7B49085CF0
:204C0000000520430400E8783038C006C00E7749085C00042043040028793038C006C00EA0
:204C20007249085C00032043040068793038C006C00E6E49085C000220430400A879303801
:204C4000C006C00E6949085C000120430400E8793038C006C00E6549085C20430400602CE0
:204C600000D398E080235B0000228020C00021186846FEF7D3FB5848FFF7B2F95648FFF7EA
:204C8000AFF93C20FFF79EF9BB48FFF7A9F92000000F5549085CFFF795F92000000E0007FE
:204CA000000F5149085CFFF78DF92000000D0007000F4D49085CFFF785F92000000C000787
:204CC000000F4949085CFFF77DF92000000B0007000F4549085CFFF775F92000000A00079B
:204CE000000F4149085CFFF76DF9200000090007000F3D49085CFFF765F92007000F3A4925
:204D0000085CFFF75FF900240FE06846005D00113549085CFFF756F96846005D0007000F6A
:204D20003149085CFFF74EF9641CFF2CEDD9934882218900924A1018FEF785FA0400A4B20E
:204D4000200000132849085CFFF73CF9A4B2200000120007000F2449085CFFF733F9A4B239
:204D6000200000110007000F1F49085CFFF72AF9A4B2200000120007000F1B49085CFFF7AB
:204D800021F93E20FFF71EF91348FFF729F91248FFF726F91DE01048FFF722F90E48FFF7FA
:204DA0001FF93C20FFF70EF97348FFF719F9A348FFF716F92C20FFF705F90220FFF736F948
:204DC0003E20FFF7FFF80448FFF70AF90248FFF707F941B030BD00009C760000A8750000F6
:204DE000B073000048710000F4710000F070000010B5040010001A00002920D0022928D0E3
:204E000022D304292BD027D306292ED02AD3082933D02ED30A2938D033D30C293CD037D390
:204E20000E2941D03CD3102949D040D3122951D04DD3142955D050D3152956D057E0010019
:204E40000120FFF78BF952E001000020FFF786F94DE0FFF72EFA4AE0FFF746FA47E0FFF727
:204E60000FFA44E0FFF798FA41E00120FFF7B0FA3DE00020FFF7ACFA39E00120FFF7D4FAC4
:204E800035E00020FFF7D0FA31E0FFF751FA2EE01100FFF7ECFA2AE01100FFF74BFB26E073
:204EA0001100FFF7C7FB22E0FFF716FC1FE0002C02D1FFF72FFC01E0FFF767F817E0002CA7
:204EC00002D1FFF76DFC01E0FFF75FF80FE0FFF7A8FC0CE0FFF7CEFC09E01100FFF70EFD42
:204EE00005E01100FFF76CFE01E0FDF7C9FA10BDF5B581B00F000024E4430020C043002679
:204F000000E0761C162E34D200250AE00019031B3A1931000198FFF76BFF0198FFF739F852
:204F20006D1C47488542ECD2029B2A0004207043BD4909583800FDF73EFC04000020C04342
:204F40008442DED0029B00223B213819FDF758FC0021C9438842D9D1029B00220A2138194D
:204F6000FDF74EFC0021C943884201D00019CEE7C7E70120FEBD0000B47500001702000091
:204F800070120010F0B589B006000F001120FEF7C7FF6946FDF74DFC684601F044FE0500CE
:204FA000002D01D1012046E00024E4433A009F493000FDF7E3FB04000020C043844201D17D
:204FC000002038E0012000212200D21D01E0491C521C072905D2B35C954F7F5CBB42F6D0FA
:204FE0000020002809D03019807B0D2803D03019807B3B2801D101201DE001200021220049
:20500000D21D01E0491C521CA94205D2B35C6F467F5CBB42F6D0002000280BD060193018E5
:20502000C0790D2804D060193018C0793B2801D1012000E0022009B0F0BD0000A47600005C
:20504000FFFF000010B504007A48C06800280FD07948FDF73CFC79497948FDF790FC7648EA
:20506000FDF735FC73480021C16076480021017170480069002802D0012816D0C9E00020CA
:20508000C043844210D00A2C0ED06A4804766948012141616748012101616648FA2189002D
:2050A0000160644800214160BCE00020C043844200D1A0E05F4840695E490818210001769C
:2050C0005C484069401C5B4948615A4840698021C900884209D3574800210161554800219F
:2050E00001605448002141609CE05248FA21890001605048002141600A2C00D088E0514875
:20510000007901280CD14B484F49816049480021C160484842694D490020FFF7E9FE60E023
:205120000024444841694948FFF72CFF0400012C20D1444801210171FEF727FF3E48FEF78B
:205140004FFF3F48FEF74CFF4148FEF749FF3A48FEF746FF0020FEF71CFF36483A498160A6
:2051600034480021C1603348426938490020FFF7BFFE36E0022C1AD12E48002181602D48DB
:205180000021C160FEF701FF2B48FEF729FF2C48FEF726FF2F48FEF723FF2748FEF720FFA9
:2051A0002548FEF71DFF0020FEF7F3FE19E02148002181601F480021C160FEF7E6FE1E481F
:2051C000FEF70EFF1E48FEF70BFF2348FEF708FF1948FEF705FF1848FEF702FF0020FEF73C
:2051E000D8FE1448002101611248002101601148002141600CE00F484068002808D00D48C3
:20520000002101610B48002101600A480021416008E008480021016106480021016005484A
:205220000021416010BD00001C7000000C7600003C760000540200109C760000947400009F
:20524000F0720000D81A001060EA00006C020010307500001C7200000073000080B5FDF753
:2052600009FA02BD80B5C0B2FDF72AFA01BD80B50020C043FFF7F2FF0021C9438842F9D1EF
:2052800001BD10B582B0012805D0022803D0032801D0042803D168463322027002E068465D
:2052A000312202706846417068460621817003216846FDF7B7FF6946C870FDF72FFAFFF78E
:2052C000D6FF002404E06846005DFFF7CBFF641C042CF8D313BD0000F0B585B0574A1269E5
:2052E000914205D2554A1269511A544A116102E0524900220A6151494968002902D00129F5
:205300005FD06BE24D480069002859D14B48806801280BD049488068022807D04748806851
:20532000032803D04548806804283CD143488068012805D10120FEF7F3FDCC4908601CE0D0
:205340003E488068022805D10220FEF7E9FDC749086012E039488068032805D10320FEF7F6
:20536000DFFDC249086008E034488068042804D10420FEF7D5FDBD490860C54800210160A9
:20538000BA4801682D488068FFF77BFFC148012181602A4801214160BF480021016027489C
:2053A000952101610CE025488068002805D023480021816021480221C16020480A21016188
:2053C00020E20021C943884200D19CE1B2490968B24A5054B0480068401CAF490860AE4868
:2053E0000068092800D28EE10821AC48FDF71AFFAA49097AC0B2884200D01BE1A748807844
:20540000062800D016E1A548407898490968884200D00FE1FF2409488068012801D100249B
:2054200013E006488068022801D101240DE003488068032804D1022407E000BF101B0010FB
:20544000C9488068042800D10324FF2C00D1DEE00021502000F05EFF8020C000FDF744FF00
:2054600010206043C14901220A54002009E010216143BE4A51180918884A1218D2784A705E
:20548000401C0528F3D310206043B84908180830C0C8083810206043B449081840790021FF
:2054A0000100002010226243B04B9A18127900231B06150A2B43120602430B43102060436D
:2054C000AA490818C07800210904050C294300041043194310226243A44B9A18927800237E
:2054E0001B02150E2B43120202430B43102060439E4908184078002110431943102262431E
:205500009A4B9A18083203C2083A102060439749081808300CC808380020C043FF21104001
:20552000194010226243914B9A18083203C2083A102060438D490818083003C8002901D1A5
:2055400000280CD01020604388490818083003C80022D243FF2399420CD190420AD1102092
:2055600060438249085CF9210140102060437F4A11543CE0102060437C49085C022101437E
:2055800010206043794A1154002008E010216143764A5118091849786A461154401C05288A
:2055A000F4D305216846FDF703FE694648716B460222022102A8FEF743F903980021C94358
:2055C00088420AD0102060436849085C0421014310206043654A115409E010206043634987
:2055E000085CFB21014010206043604A1154102060435E490818083003C88F4201D1864200
:2056000005D004204443AE4800190021816020480021016054480021416053480021816014
:2056200051480121C1601B48002181604E480A210161E7E016480068401C154908601448FB
:205640000068032852D3FF2047498968012901D1002012E044498968022901D101200CE05C
:2056600041498968032903D1022006E0881B00103D498968042900D1032007490968FF2973
:2056800021D010214143394A0023535400210FE0841B0010D81A00108C1B0010301B001044
:2056A00010224243314B9A18521800235370491C0529F5D3102148432C490A1808320020AD
:2056C000002103C2083A7F480021016026480021416025480021816023480221C1607A4849
:2056E0000021816020480A2101618BE0774801681D488068FFF7C5FD7548002101601A487A
:20570000952101617EE018480069002865D16D480068401C6B4908606A48006803284DD3F2
:20572000FF2011498968012901D1002010E00E498968022901D101200AE00B498968032932
:2057400001D1022004E008498968042900D103205F490968FF291ED010214143034A0023BA
:20576000535400210CE000BF101B0010981A001010224243574B9A18521800235370491CF9
:205780000529F5D31021484352490A1808320020002103C2083A4B48002101604E4800214C
:2057A00041604D48002181604B480221C16046480021816048480A2101610EE0434801684B
:2057C00045488068FFF75DFD41480021016040480021016040489521016113E0FFF747FD22
:2057E0003848002101603C48002141603A480021816039480221C16033480021816036481D
:205800000A21016105B0F0BD00B580B20A2801DA092001E0401E80B200BD00B50100012275
:20582000002001E05200401C042803D21142F9D0401C01E00020C04300BD0122491E8A402B
:205840009043704700B501280CD123480121816021480021C1602048002141601E48012138
:2058600001702BE002280CD11B48022181601A480021C16018480021416017480221017085
:205880001CE003280CD114480321816012480021C1601148002141600F48032101700DE013
:2058A00004280BD10C48042181600B480021C16009480021416008480421017000BD00003B
:2058C000F81A0010841B0010D81A0010881B00108C1B0010981A0010101B001038B5002879
:2058E0001FD0C34800210180002005E002214143C04A00235352401C0428F7D3BE48002115
:205900000160BE4800210160BD4800210170BC4800218160BA480021C160B94800214160FA
:2059200064E1B3480088002805D0B1480088401EAF4908800FE0AE4863210180002408E04D
:205940002000401DFEF7ECFA02216143AD4A5052641C042CF4D3002407E03120FFF754FF73
:2059600002216143A34A5052641C042C29D202206043A049085A002809D0022060439D496A
:20598000085A401E022161439A4A5052ECE720000D30FEF7C5FA0028DFD002206043994998
:2059A000085AFFF731FF02216143924A50529248006804216143BA4A515801438E480160E7
:2059C000D2E78F48007800280CD001284AD0022876D0032800D1A1E0042800D1CCE0642856
:2059E00022D0F7E0844800780007000F00281AD082480068804909780907090F01437F48C3
:205A000001607D48002101607C480068FFF705FF04002000FFF716FF210078480068FFF74A
:205A20000CFF76490860E1E0744800780007000F002813D071480068FFF7EFFE04000020F6
:205A4000C04384420AD02000FFF7FCFE21006B480068FFF7F2FE69490860C7E068480021DF
:205A60000170C3E06648C068012803D06448C068022824D100240120FEF752FA05000220A0
:205A800060436049085A312816DBA848FCF71FFF5B48C068012806D12A00641C2100A4488B
:205AA000FCF79BFF05E02A00641C2100A148FCF794FF9E48FCF70BFF51486421017095E053
:205AC0004F48C068012803D04D48C068022824D101240220FEF724FA050002206043494979
:205AE000085A312816DB9148FCF7F1FE4448C068012806D12A00641C21008D48FCF76DFF8C
:205B000005E02A00641C21008A48FCF766FF8748FCF7DDFE3A486421017067E03848C068A7
:205B2000012803D03648C068022824D102240320FEF7F6F90500022060433249085A312877
:205B400016DB7A48FCF7C3FE2D48C068012806D12A00641C21007648FCF73FFF05E02A0078
:205B6000641C21007348FCF738FF7048FCF7AFFE23486421017039E02148C068012803D040
:205B80001F48C068022824D103240420FEF7C8F90500022060431B49085A312816DB6348D1
:205BA000FCF795FE1648C068012806D12A00641C21005F48FCF711FF05E02A00641C2100B4
:205BC0005C48FCF70AFF5948FCF781FE0C48642101700BE00A480021816009480021C160F6
:205BE00007480021416006480021017031BD00009C1B00104C1B0010901B0010941B00100E
:205C0000101B0010441B001010B586B0040000F0DBFB83490143009108200190814840783A
:205C2000000280490978014302917E48C07800027C498978014303917B48407800027A4963
:205C40000978014304917848C0780002764989780143059120006946182200F0EDFF06B0BB
:205C600010BD10B586B0040000F0AEFBCD49014300910820019072B6CB480169CA484069BB
:205C800062B68AB20292090C039181B20491000C059020006946182200F0CEFF06B010BDC1
:205CA000C073000070B586B005000C00042C00D30324802040006043BC4940180090009E0D
:205CC00000F082FB8021C9050143314300910820019010206043B649085C0290102060434B
:205CE000B34908188078000210216143B04A511849780143039110206043AD49081800795B
:205D0000000210216143AA4A5118C9780143049110204443A6480019407905902800694652
:205D2000182200F089FF06B070BD00009C760000107300003072000030B593B004009D4886
:205D40000068844205D29B480068001B9949086012E09548C06800280AD096489649016077
:205D60000CA8FFF751FF0CA90A20FDF729F903E09048FA21890001608E484068844205D259
:205D80008C484068001B8B49486012E08648C06800280AD087488849416006A8FFF761FFC1
:205DA00006A90B20FDF70CF903E08248FA2189004160002507E0042068437E490818FA2141
:205DC000890081606D1C042D27D20420684379490818806884420BD20420684375490818BD
:205DE0008068001B04216943724A51188860E9E76D48C0680028DED0042068436D4908189A
:205E0000FA218900816029006846FFF74BFF694628000C30FDF7D4F8D4E713B030BD0000A8
:205E20000013F7582C76000034760000F0B58BB006000C00150000F0C7FA070028000721A5
:205E400000F0DAFE03902800072100F0D5FE0291039802990143002900D1A0E0FCF7ECFA74
:205E60006846202101706846290041702800000A6946887068460399C1700298002804D050
:205E80006846C078401C6946C8706846FF210171684646716846002181716846A821C171CA
:205EA000464838430490082005906846008806906846408807906846808808906846C0886B
:205EC000099004A91020FDF77BF80520FCF760FA0125039800282CD000261FE06946227820
:205EE0000A54641C401C0828F8D3D6483843049008200590684600880690684640880790AA
:205F00006846808808906846C088099004A91020FDF756F80520FCF73BFA761C0398864243
:205F200007D2FCF789FA6846290001706D1C0120D9E70298002832D0FCF77EFA072002996F
:205F4000401A69460D706946491C002204E023780B70641C491C521C029B9A42F7D30022D3
:205F600003E0FF230B70491C521C8242F9D3B54838430490082005906846008806906846FB
:205F8000408807906846808808906846C088099004A91020FDF714F80520FCF7F9F90BB023
:205FA000F0BD00000012F758D81A00100001F718981A0010F81A0010881300000000EC58FE
:205FC00030B583B00168C900C90801600168FF2291430278D4B29C4A914203D0AA4A914294
:205FE00000D016E1CF4A1278002A6BD1964A914200D00EE1694682680A80C1686A46518092
:2060000001696A46918040696946C8806846457900F0DAF9854200D0FBE068468079002845
:2060200000D0F6E06846C079A82800D0F1E0684680780102684640780843A149884200D381
:20604000E7E0B8490C71B7496A4652794A71B5490881B4486946C978C171B2480021418143
:20606000B04800218171AF4801210170AD48FA2189004180AB4800214170AB48FCF727FC63
:20608000A148FCF724FCA74802799A499F48FCF791FCA44842799E499C48FCF78BFCA1487B
:2060A0000289A2499948FCF785FC9E48C279A0499648FCF77FFC9448FCF709FC9A48FCF716
:2060C00006FCA6E0974A1278012A00D0A1E06E4A914200D09DE0934909798C4200D098E005
:2060E000904949898F4A1289914200D388E08D4909898C4A5289891A072901DB072104E09F
:2061000088490989874A5289891A6A4683681380C2686B465A8002696B469A8040696A465B
:20612000D08000200CE07F4A5289824B6C46241864789C547B4A5289521C7A4B5A81401CCE
:206140008842F0D37748408976490989884260D37448002101707348002141807148002117
:2061600041707548007900283FD100246D4841897048FEF707FF0400012C1AD16E480121B6
:2061800001716E486E4981606C480021C160FDF7FCFE6548FDF724FF6A48FDF721FF6A481F
:2061A000FDF71EFF6048FDF71BFF0120FDF7F1FE1BE062480021816060480021C160022C55
:2061C00013D1FDF7E2FE5848FDF70AFF5D48FDF707FF6548FDF704FF5348FDF701FF5248FE
:2061E000FDF7FEFE0120FDF7D4FE5348007900280FD04C4842894F490120FEF779FE08E041
:2062000048480021017047480021418045480021417037BD674800786749095CC9B2674832
:20622000405C654A105CC9B2C900C0B20818644908706348007804214843624908587F4906
:20624000086070470000EB580000EC1800B5C0B20100C910594A515CC0B24207520F694BB7
:206260009A5C9143C0B20200D210544B9954C9B2002908D14F490978C0B2C010614A105C83
:2062800081434C48017000BD0000EB1849490978C0B20200D2105B4B9A5C0A4345490A701B
:2062A000C0B20100C910454A515CC0B24207520F544B9A5C0A43C0B2C01040490A54704778
:2062C0000104000080B53E480078FFF7BFFF01BDC0B2042141433B4AC0B204235843614B94
:2062E000185850507047C0B20421484335495E4A0A507047A07400005C4A50805B4800222F
:2063000042705A48017070470872000090750000AC740000564A50805548002242705448E5
:2063200001707047241B00109C760000B8740000C47400006C060010D81A00105402001086
:2063400060EA0000F072000030750000B34A9080B24800224270B14801707047AF49C880B0
:20636000AE480021817070471C72000080B54148FCF7ADFAAA48FCF7AAFA00213E48FCF755
:20638000FEFAA648C178A748FCF708FBA3480169A548FCF703FBA1488168A448FCF7FEFA1D
:2063A0009E48C168A248FCF7F9FA9D48FCF78FFA01BD00009E1B00102C6E0000541B0010FD
:2063C0009F1B00100002001080B59A48C069002814D10020FDF7A4FD9649C8619548C069D1
:2063E000002807D09348C069FE2803D09148C069FD2803D18F4890498968C1618D48C069E5
:20640000C0B202BD8C76000080B50020FFF71EFF16484078002810D08648C068002804D0D1
:2064200080208000FCF760FF03E080208000FCF764FF00213220FFF75FFF01BD981B001049
:2064400080B50120FFF702FF09484078002807D000210020FFF75EFF8020C000FCF74DFFB4
:2064600001BD000014020010C56200005C1B0010601B00109C7600008072000010B58CB0FA
:206480000220FFF7E3FE65480078002804D0022800D19EE052D3B7E06048407800284CD009
:2064A00066496748FCF76BFA06A8FCF7DDFD0028FAD1644864491CC91CC00C390C3863486A
:2064C000006800061AD40023614A624962480068FCF7F4FCCD486149C160CC48C26860492B
:2064E0005748FCF767FA4D480021C1705D48FFF735FF01210A20FFF729FF1EE05A49504850
:20650000FCF73DFA45480121C17044480069401C42490861FFF72AFF5248FFF71FFFBB485C
:206520000021C16001234A4A4A494B480068FCF7C5FC02214D48FFF709FF6CE037484078E6
:20654000002845D041480068000625D50123404A404941480068FCF7B1FC43493848FCF746
:206560000EFAAA480021C1602C480121C1702B480069401C29490861FFF7F8FE3948FFF7A2
:20658000EDFE304830491CC91CC00C390C3802213648FFF7DBFE3EE002E06846FFF710FDB4
:2065A0006846FCF761FD0028F7D198488069002801D1FCF707FC19488078002804D0FFF7E8
:2065C000D5FE2848FFF7CAFE01210A20FFF7BEFE21E012484078002815D01C4800680006CA
:2065E00004D400210120FFF7B1FE14E00B488078002804D0FFF7BAFE1A48FFF7AFFE0221CB
:206600000A20FFF7A3FE06E080480021C16000210120FFF79BFE0CB010BD0000801A0010C5
:2066200008720000A4710000B8710000CC710000E0710000D81A00102C6F000044720000C1
:206640003C750000241B0010E874000004000540035800000024F400641B001090D0030030
:206660004875000010270000587200008813000010B582B072B6002408E02000C0B2FFF70E
:2066800032FE2000C0B2FFF7E1FD641C052CF4D3FBF72CFEFA2252005D4801680120FBF741
:2066A0009EFEFA2189005A480068FBF751FE9621C90157480068FBF77BFFFCF747FDFCF731
:2066C00023FFFCF7F5FD0020FFF702FE0020FFF7BDFD0021FA208000FFF70EFE0120FFF7F9
:2066E000F7FD0120FFF7B2FD00210020FFF712FE0220FFF7EDFD0220FFF7A8FD0021FA209F
:206700008000FFF723FE0420FFF7E2FD0420FFF7BDFD40494048FCF7C9F962B63F48FCF7BD
:20672000D6F83F48FCF7D3F83C48FCF7D0F83D493D48FCF724F9364801683C48FCF72EF967
:206740003648FCF7C4F83A480068009038481F2101603848FCF7BBF80098C00703D52F499C
:2067600035A0FCF70CF90098800703D52B493348FCF705F90098400703D528493048FCF7E2
:20678000FEF80098000703D524492E48FCF7F7F80098C00603D521492BA0FCF7F0F81F481A
:2067A000FCF795F8002405E0FBF746FE6420FBF7EFFD641C0A2CF7D3FCF7BBFDFA208000F3
:2067C000FCF700FEFCF7A4FDFDF710F90F48002101611220FDF7A4FB0C4948610B4840699E
:2067E000AA4988420BD209484069401C07494861064841691220FDF77CFBFDF7EBF90348F8
:206800004169AB48FCF7CAF813BD0000D81A0010641B001028020010B81900109C76000098
:206820006C72000010710000D0740000DC74000030800440D0730000504F520014760000B3
:206840001C760000247600005359530038B599480068002800D118E172B69648002101605D
:206860009548046894480021016062B693480068844205D291480068001B9049086004E0F8
:206880008E4863210160FBF7D7FD8D4800688C490968884205D28A480068001B88490860C5
:2068A00009E087488749016072B68248016962B61320FDF71EFB84480068844205D28248A0
:2068C0000068001B8049086006E07F486321016078488079FFF702F87C484088002817D02E
:2068E0007A484088844206D2784840882100401A7649488002E075480021418073484088E2
:20690000002805D10020FFF7C1FC7048012141706F484088002817D06D484088844206D272
:206920006B4840882100401A6949488002E068480021418066484088002805D10120FFF7E8
:20694000A5FC63480121417062480068002813D060480068844205D25E480068001B5D497F
:20696000086002E05B48002101605A480068002802D158480121416056488068002813D0AF
:2069800054488068844205D252488068001B5149886002E04F48002181604E488068002896
:2069A00002D14C480121C160FBF764FE050041484079002802D12800FDF7C6FC3D4880793B
:2069C000002803D100212800FEF786FC39484079002802D02800FEF735FB0020C043854290
:2069E000E2D121000020C043FEF776FC3A488088002817D038488088844206D236488088F4
:206A00002100401A3449888002E033480021818031488088002805D10220FFF737FC2E48B7
:206A2000012141702C48C088002814D02A48C088844206D22848C0882100401A2649C88079
:206A400002E025480021C1802348C088002802D12148012181702000FFF76EF91F484088AF
:206A6000002812D01D484088844205D21B484088001B1A49488008E0184800210170174898
:206A80000021418015480021417031BDFFFFFF7F80B50320FFF71CFC0320FFF7F7FB62B6F2
:206AA000FFF7B8FB0E480068804762B6F8E7000090720000D81A0010681B001044020010C4
:206AC00048020010E70300004C0200105C1B0010601B001054020010801A0010241B0010A3
:206AE000981B0010124224D0994228D970B500251B4202D00C00002109E000240126491874
:206B00006441944200D3A41A7641F8D33100012601E0764109D2001864416D41A41A9D4115
:206B2000F7D2A4185D41B619F5D3300022002B0070BD1B42D8D108B500F09EF808BD01D111
:206B40009042D3D202000B00002100207047FEE7FEE7FEE7FEE7FEE7FEE7FEE7FEE7FEE7AC
:206B6000FEE7FEE7FEE7FEE7FEE7FEE7FEE7FEE7FEE7FEE7FEE7FEE7FEE7FEE7FEE7FEE7C5
:206B8000FEE7FEE7FEE7FEE7FEE7FEE7FEE7FEE7FEE7FEE7FEE7FEE7FEE7FEE730B4434305
:206BA00051435D18010C0C00130C5C432D1980B2434392B251430024C918644124040B043E
:206BC000090C09195043C018694130BC704738B4012100220368001D002B0BD00468001D7F
:206BE0000C4202D04D466D1E64192260241D1B1FF0D0FAE732BC7047094210D088420BD3C4
:206C00000122002300185B418B4200D35B1A5241F8D319001000704701000020704708B592
:206C200000F02CF808BD010000E0491C0A78002AFBD1081A7047000070B4103A03D378C95F
:206C4000103A78C0FBD2530701D318C918C001D508C908C0D20704D30B880380891C801C88
:206C6000002A01D50B78037070BC704780B50A22002100F098F802BD70470000704700000C
:206C8000F9B585B00E001700002B01D000211960059C00E0641C2078010009390529F9D380
:206CA0002028F7D02D2801D02B2803D169460870641C02E068462B210170002F44D4012F0D
:206CC00042D0252F40DA012F0ADB102F16D12078302813D160782021014378290ED10AE05E
:206CE0002078302801D00A2708E0607820210143782902D11027A41C00E00827049400E06B
:206D0000641C20783028FBD000250394684600BF27A1417008E0029569464978401AC0B2DB
:206D200001907D432D18641C2178080041381A2800D220313A0000BF1DA000F061F8002897
:206D4000E9D10498A04205D1002E01D005983060002026E00398201A1FA1C95D401A16D4D4
:206D6000012808DA0198281A05D33900FFF744FF029988420BD000F04FF82221016006982A
:206D8000002801D0012101600025ED4305E0684600782D2801D128004542002E00D03460AF
:206DA000280007B0F0BD80B50023FFF769FF02BD3031323334353637383961626364656670
:206DC0006768696A6B6C6D6E6F707172737475767778797A0000000000002115110E0D0C7B
:206DE0000B0B0A0A09090909090808080808080807070707070707070707070707000000A9
:206E0000C9B201E0401C521E002A03D003788B42F8D170470020704780B5024800F004F843
:206E200002BD0000500200107047000000000100020001000300010002000100040001006A
:206E4000020001000300010002000100050001000200010003000100020001000400010013
:206E60000200010003000100020001000600010002000100030001000200010004000100F2
:206E80000200010003000100020001000500010002000100030001000200010004000100D3
:206EA0000200010003000100020001000700010002000100030001000200010004000100B1
:206EC000020001000300010002000100050001000200010003000100020001000400010093
:206EE000020001000300010002000100060001000200010003000100020001000400010072
:206F0000020001000300010002000100050001000200010003000100020001000400010052
:206F2000020001000300010002000100C80002000000000001000000D300020001000000A6
:206F400001000000D40002000200000002000000D50002000300000003000000D6000200A1
:206F60000400000004000000DD0002000500000064000000DE000200060000006400000077
:206F8000DF0002000700000064000000E00002000800000064000000F1000200090000005B
:206FA0000A000000F20002000A0000000A000000F30002000B0000000A000000F4000200BF
:206FC0000C0000000A000000050102000D00000001000000060102000E000000010000006D
:206FE000070102000F000000010000000801020010000000010000009001040000000000C6
:20700000672B0000910104000100000000000000920104000200000000000000E07300005B
:20702000EC730000F873000004740000CC750000D4750000DC750000E47500001074000056
:207040001C740000EC750000F4750000FC7500002874000034740000407400004C740000AD
:207060005874000064740000707400007C7400008874000038B401210268001D002A0FD0FE
:207080000368C318446808300C4202D04D466D1E64191D6825601B1D241D121FECD0F8E7BC
:2070A00032BC704710B5074979441831064C7C44163404E0081D0A68891888470100A142E5
:2070C000F8D110BD080000002800000003FBFFFF4C190000540200100000000099FFFFFF8D
:2070E00054000000C405000000020010000000000001020304050607080900000000000034
:20710000000A0B0C0D0E0F10000000000000000053362043414E2052533438352052464932
:2071200044205645522E20312E323600504147452052454144204F4B2041542041545445D3
:207140004D50543A20000000424F4F54205752495445204552522028422F45293A2000007B
:2071600000F009F8002801D0FFF79CFF0020FFF78FFC00F002F80120704780B500F002F812
:2071800001BD00000746384600F002F8FBE7000080B5C046C046024A11001820ABBEFBE779
:2071A0002600020043414E20425553204F46462053544154453A200043414E2042555320D9
:2071C0004F4646204E554D3A2000000043414E205258204D5347204E554D3A20000000005D
:2071E00043414E205458204D5347204E554D3A2000000000303132333435363738394142F0
:2072000043444546000000002D2D2D2D2D2D2D2D2D2D2D2D2D2D2D2D0D0A0000494E434F4C
:2072200052524543542050415353574F5244000052533438353A2052454144204552522056
:207240000000000043414E205354415254555020494E495400000000425553204F464620B0
:207260004445544543544544000000005354415254204F462050524F4752414D0000000051
:2072800043414E205354415449535449433A000053544152545550204E554D3A200000006D
:2072A000504152414D204D41494E3A2000000000504152414D20434F50593A200000000098
:2072C000504152414D204C4F41444544000000005041474520435243204552523A200000FC
:2072E000504152414D204C4F41443A20000000005441534B20434F4D205445524D3A20009F
:20730000454E5445522050415353574F5244000052533438353A2052454144204F4B2000C6
