:10000000E8060010ED1E0000491F0000491F000017
:10001000491F0000491F0000491F0000BE3DFFEFBF
:10002000000000000000000000000000491F000068
:10003000491F000000000000491F0000A71A00002F
:10004000491F0000491F0000491F0000491F000010
:10005000491F0000491F0000491F0000491F000000
:10006000491F0000491F0000491F0000491F0000F0
:10007000491F0000E90E0000491F0000491F000051
:10008000491F0000491F0000491F0000491F0000D0
:10009000491F0000D1160000491F0000491F000041
:1000A000491F0000491F0000491F0000491F0000B0
:1000B000491F0000491F0000491F0000491F0000A0
:1000C0004241534520303300000000000000000092
:1000D000303330302E31302E3230313700000000D6
:1000E00095C79DBA41FE025D33C1CA3706C07E1F67
:1000F0000433886FDE26CE8C605274D5B30CEF5B70
:1001000000B5BFF34F8F824882490860BFF34F8F1D
:1001100000BFFDE7F8B505000F007F4E01207070AD
:10012000FFE77078002832D07C49280000F0C6FB39
:10013000040000282BD03078002801D1032C24D1D2
:100140000C2C02D3012076498880032C13D2022381
:100150006A460620011B280000F0DCFB2100A140BC
:100160008842DED1009800F089FA00900028D8D0AB
:100170000098401E0090009A390028000500C34BEB
:10018000042060431B5828009847052CC9D3F1BDB3
:1001900070B582B00600634C5F4D0020009000E017
:1001A000641C6946300000F0F3FB20780099884217
:1001B000F6D000983B280DD10020687020780028E8
:1001C00008D12878002800D100BF012028705648A7
:1001D0005349086073BD80B508001100C44A00F09F
:1001E00005FC01BDF5B589B00F006C4621000998EA
:1001F00000F0CEFB00283DD0207820283AD14B4893
:100200000A990C2251434018466801784B075B0F4E
:1002100085786D1E19000831002B00D11F212200A6
:10022000099800F077FB052824D20021C943052D49
:1002300004D204202A00801AC000C14020688142F4
:1002400018D32900200000F011FC705503E020783D
:100250003070641C761C2800451E0028F7D19B4A8C
:100260000A99380000F0C2FB32789949380000F052
:1002700019FC03E0AA49380000F014FC0BB0F0BDF3
:1002800070B506000C00002500E06D1C0A2D12D28E
:10029000984800880121A9400842F6D02200290090
:1002A000224800F061FA0028EFD10022210030003E
:1002B00000F000F903E09B49200000F0F3FB70BD63
:1002C00038B50C002100002000F071FC002500E092
:1002D0006D1C0A2D11D2874800880121A9400842CF
:1002E000F6D022002900114800F084FA0028EFD14E
:1002F0008D49200000F0D6FB03E08C49200000F07F
:10030000D1FB31BD80B58A498A4800F0CBFB01BDE5
:100310000400FA050CED00E024180010C81A0000D3
:1003200030000010FE15001060EA0000681900009F
:100330001CB581497F4800F0B5FB80480078002853
:1003400021D0002416E07E480C216143401840680B
:1003500001907B480C2161434058009078480C2163
:1003600061434018037A754802787649714800F075
:1003700099FB641C082C06DA71480C216143401873
:10038000007A0028DFD170480078002821D00024AE
:1003900016E06E480C2161434018406801906B489C
:1003A0000C2161434058009068480C21614340187B
:1003B000037A6548027863495E4800F073FB641C69
:1003C000082C06DA61480C2161434018007A0028A5
:1003D000DFD15F480078002821D0002416E0A6482D
:1003E0000C216143401840680190A3480C216143EF
:1003F00040580090A0480C2161434018037A5448AB
:10040000027850494B4800F04DFB641C082C06DA7A
:1004100099480C2161434018007A0028DFD1A14897
:100420000078002821D0002416E0A8480C21614360
:10043000401840680190A5480C2161434058009045
:10044000A2480C2161434018037A964802783D493E
:10045000384800F027FB641C082C06DA9B480C2166
:1004600061434018007A0028DFD10020334908702A
:10047000002035490870002035490870002089495E
:1004800008709F492B4800F00DFB13BD041B0000B2
:1004900080B50800AC4AAD4900F004FB01BD80B551
:1004A0000800AB4AAB4900F0FDFA01BD80B5FFF78B
:1004B00027FE01BD10B50C002100FF2000F022F93D
:1004C000A549200000F0EEFA10BD0000D41E000087
:1004D000B41D000080B50800A049A14A9278002A06
:1004E00000D0091D0A68BF4900F0DCFA01BD000018
:1004F000301F0000381F000038B50C00994D210056
:10050000032000F07AFB002803D001209449887072
:100510002D1D2A68B449200000F0C4FA31BD000046
:100520003C1D0000501D0000A01C0000641D0000C8
:10053000C41D0000D8000010D41D00002B180010AE
:1005400060160010E41D00002C180010C0160010EA
:100550002D180010F7B5C6B0A44F03AC241D03AD91
:100560007F4EA3482860012348AA0821469800F03E
:10057000D1F9082818D1489800BA20600823102221
:100580006946C91D489800F0D1FA2A6808216846D2
:1005900000F052FA286020000400241D03A98422E0
:1005A000520089188842DED1362000902868489988
:1005B000884258D1049800BA48900823102269460E
:1005C000C91D489800F0B2FAAC480290B0780028F3
:1005D00049D04898002811D103A8A9494418A94D29
:1005E00002E0B078401CB07020000400241D2900F7
:1005F0000D002D1D006809688842F2D0B0780228ED
:100600002EDB4898602827D24898F17888421FD17D
:10061000822292004898C02189004018010203A854
:1006200000F0A2FA00280FD0F078401CF0703F1FB5
:100630000020029094489549086048985F2812D19C
:100640000120924908600EE03120694648720AE0B4
:1006500034206946487206E032206946487202E05A
:100660003320694648726B463A688949479800F0DA
:1006700019FA49B0F0BD00002017001000B50100C4
:10068000844A01200C234343D35A9BB2DB089BB21C
:10069000994204D0401C0A28F4D3002000E0401CFA
:1006A00000BD00002E18001038B57A4C002501E07E
:1006B0006D1C0C340A2D07D2A178606800F0D6F9C1
:1006C0000028F5D0012000E0002032BD8017001086
:1006D00010B5040070480068401C6F4908606E48FF
:1006E00000686E49486004216B4800F0BFF96A4910
:1006F0000871002221000020FFF7E2FD10BD00007C
:10070000F41D0000F8B506000F00624C00250EE055
:10071000A168095C626811540100481E0029F7D1E4
:100720005F4A2900380000F061F96D1C0C340A2D75
:1007300009D2FF2E01D1E07800E03000E17881425B
:10074000F3D1A078E8E7F1BD3E160010B81C000018
:10075000D0000000041E0000781D0000AC1D000049
:1007600024180010A01D0000F0B5C3B0170006004B
:1007700001AC0834C8B200904A4A090201A800F04E
:10078000F3F91B4A80214900200000F055F90028A8
:1007900006D0009A4449380000F084F900201EE099
:1007A000009A4249380000F07DF900250EE02178DA
:1007B00072681154641C401CB1788842F7D33C4ADB
:1007C0002900380000F012F96D1C0C360A2D05D2F4
:1007D000F07800998842F7D10020EDE7012043B07E
:1007E000F0BD0000D01C00008C1D0000A81D000002
:1007F000FFFF0000F0B5C3B00C0016006A460832D7
:10080000E7B208E043685B5C1370491C521C8378B4
:100810009942F7D30C30C1788F4204D3C178B942E2
:10082000F8D10021F3E7234AFE216846083000F0A2
:1008300003F980B245BA28006946832252008852E3
:10084000822292002102684600F08EF9002801D130
:10085000002011E00D222102FE31684600F084F9EB
:1008600068460089854201D0002005E03A0012491F
:10087000300000F017F9012043B0F0BD2C3000002B
:10088000C8000000E00000009113000030000010DC
:10089000E81C000068190000E81500100C18001092
:1008A000E01E000009020000001C0000201C0000E7
:1008B000D41E0000FFFF00003C1C0000FCB5828835
:1008C00000273B00002400260568AD5C002C02D107
:1008D0000CB43B2E17D0CE59365D002E09D1002C1A
:1008E0000ED10CBC00275B1C521C468932402E00E6
:1008F000EAE7AE4202D00CBC3F1DE3E7641CF2E71E
:10090000BF087F1C00E00027C188CB1AC38082800B
:100910000097FFBDF0B5868847890025156002B4B1
:1009200006E01470521C00241470002923D0C0BCAF
:100930000468345D761C3E40491EC0B43B2C13D085
:10094000002BEED0303C0A2C05D3022B0AD0113CF0
:10095000052C07D80A340C4FFF5C16687E43341907
:100960001460E2E7042506E0002900D1AD1E2D1F2A
:10097000064C002262701CBC611AC488611AC180D6
:10098000828008352800F0BD441F000024180010A4
:100990001EB572B6C288002A24D0521EC280828838
:1009A000531C44891C4084800023048900680EE0A5
:1009B0001EB572B6C2884489A24213D8511CC180A8
:1009C00083889B1823400022048901686846A74455
:1009D00000BF805CC85403E052005B00805AC852DC
:1009E000012000E0002062B61EBD0000FFB513002C
:1009F0000F4A0C2461435618B478641E6408A4009E
:100A00003188CA08766849074F0F06D0A74400BF4F
:100A1000367802E0368800E036680649CC19E47F73
:100A2000CC730C7602960192009600F03BF8FFBD65
:100A300068190000A800001010B5030010000A009B
:100A4000511E002A10D002001878000250405B1C92
:100A5000002201E04000521C082AF0D20404F9D51B
:100A600044000F486040F6E780B210BD10B50200A8
:100A7000FF200B00591E002B0FD0030010785840A8
:100A8000521C002301E040005B1C082BF1D204063D
:100A9000F9D5440031206040F6E7C0B210BD000037
:100AA000211000000EB47EB506000020029007ADB4
:100AB0002D1DFFE707980078002832D000226C46F1
:100AC0000A3407980078207007980078252821D1EB
:100AD0000798401C079007980078732804D0752861
:100AE00004D0782804D0E5E72C6802E00A2200E070
:100AF0001022002A07D0002369460A31286800F036
:100B000015F8401E241A2D1D04E021783000FFF74F
:100B10004FFF641C20780028F7D10798401C0790ED
:100B2000C8E703B0039870BC04B00047FCB50400EC
:100B30000D00160000270B4800902000310000F047
:100B400081F80098405C28706D1E7F1C20003100E9
:100B500000F078F80400002CEDD101988742EAD328
:100B60003800F6BD281D0000F8B504000F00150080
:100B70000026002600E0761C00F036F9C00705D5F7
:100B8000802040028642F6D300200FE0E80701D51E
:100B9000032602E0022600F032F938BA60602671BE
:100BA0006908241D200000F0DFF80120F2BD38B5EF
:100BB00005000C0000F023F92804D721014300911F
:100BC0000421684600F0D0F800F00EF9C00705D502
:100BD000002019498842F7D2401CFAE71749200043
:100BE000FFF760FF012032BD80B5AB206946087079
:100BF0000121684600F0B8F801BD38B505000C00C9
:100C000000F0FDF82802D821014300910421684634
:100C100000F0AAF800F0E8F8C00705D50020064962
:100C20008842F7D2401CFAE705492000FFF73AFF57
:100C3000012032BD00000000FF0F0000001D000079
:100C4000141D00000022030A8B420BD203098B42C1
:100C500019D243088B422ED2411A00D2014652418A
:100C600010467047FF2209023FD012068B4205D37F
:100C7000121209028B4201D31212090203098B429C
:100C800019D300E0090AC3098B4201D3CB01C01A72
:100C9000524183098B4201D38B01C01A524143094F
:100CA0008B4201D34B01C01A524103098B4201D33D
:100CB0000B01C01A5241C3088B4201D3CB00C01AAA
:100CC000524183088B4201D38B00C01A5241430822
:100CD0008B4201D34B00C01A5241884200D3401AC4
:100CE0005241CFD201461046704708B500F090F847
:100CF00008BD000080B52F48D0212F4A11602F4930
:100D000009688022D2000A432C490A602C492D4AE6
:100D1000116001212C4A116001212C4A116001212E
:100D20002B4A11602B49096801220A4329490A60AC
:100D300029490968802212010A4327490A600121D2
:100D4000264A116000214160022141600168FF22B2
:100D5000C8320A43026002214160FFE7017B490774
:100D6000FCD4FFF741FF01BDF0B51D4A1D4B040047
:100D7000072901D20D0000E007250026114F3E6033
:100D800002E006781E60401C2E00751E002EF8D171
:100D900015786D07FCD5082902D305781D60401C25
:100DA0001D682570641C491E0029F1D104480549BD
:100DB0000860F0BD000004406C4004400080015019
:100DC000FF0F0000001001506040044064400440E8
:100DD00070400440048004408080044094800440BB
:100DE0000C0004400800044080B5052069460870E6
:100DF00002216846FFF7B8FF6846407802BD80B51B
:100E000006206946087001216846FFF7ADFF01BD65
:100E1000704700002C482D49096808220A432B49D5
:100E20000A602B490968802292020A4328490A6015
:100E3000412101600221C022520081502549C16038
:100E4000002181610B21016080208001224908601E
:100E500040202249087080208001214908607047A5
:100E600000B5194801680122914301600178C90762
:100E7000FCD400BD0EB470B51A4904AC124A00236C
:100E80001BE00D7A2668B54201D160680834F02570
:100E900055628D889562CD88D5620D8805431563AE
:100EA0004D88060C2E435663C44D95630D7A15622A
:100EB000156A2D04FCD40C315B1C0A2BE1D303987A
:100EC00070BC04B0004700000000054004800440EE
:100ED00080800440833A000080E200E00DE400E0FE
:100EE00000E100E078180000F8B5FF20B44EB54CE2
:100EF000B54FFFE73069002800D149E1202808D22A
:100F00002F218422B1508021705080217158090412
:100F1000FBD405285AD0062800D18DE0072800D13F
:100F2000C0E0082800D1F3E0112825D0122800D015
:100F300024E10620385600281ED0B648017820004B
:100F40000C380078814217D1B879401EB87101255C
:100F500000E0ED1C102D0FD2605D3B2804D1AE489F
:100F60000078401CAC490870615DAC48FFF720FD7B
:100F7000E807EED46D1CEDE706203856002822D194
:100F8000A548007800280DD0B889A34909784018F1
:100F9000B881A0480178A248FFF70AFD00209E49C9
:100FA000087010E0A089A82109028842A2D1607AC5
:100FB000BE49097A88429DD16079B87120000C3809
:100FC0000078944908700120B88093E79020305849
:100FD000000AC0B209282EDA2178C9B2072906D141
:100FE0000121B34A1170B149897AB24A117061780E
:100FF000B14AC0B20C234343D218121F1170617B57
:101000000904227B12028918627A8918AA4AC0B29E
:101010000C234343D2180C3A1160217A09046279F7
:101020001202891822798918A34AC0B20C235843A6
:101030001018083801605DE790203058000AC0B2EF
:1010400009282EDA2178C9B2072906D10121984A48
:1010500011709649097B994A11706178984AC0B21B
:101060000C234343D218121F1170617B0904227BA9
:1010700012028918627A8918914AC0B20C2343433C
:10108000D2180C3A1160217A090462791202891887
:10109000227989188A4AC0B20C235843101808389C
:1010A000016027E790203058000AC0B209282EDAE4
:1010B0002178C9B2072906D101217D4A11707B49E7
:1010C000897B804A117061787F4AC0B20C23434308
:1010D000D218121F1170617B0904227B1202891839
:1010E000627A8918784AC0B20C234343D2180C3A6A
:1010F0001160217A0904627912028918227989180B
:10110000714AC0B20C235843101808380160F1E648
:1011100090203058000AC0B209282EDA2178C9B2CE
:10112000072906D10121624A11706049097C674A8A
:1011300011706178664AC0B20C234343D218121F63
:101140001170617B0904227B12028918627A891866
:101150005F4AC0B20C234343D2180C3A1160217A83
:10116000090462791202891822798918584AC0B292
:101170000C235843101808380160BBE63079A021D1
:101180000140002903D03068012101433160B1E6FC
:10119000F1BD1CB54F4C5048006800904E480069A6
:1011A00001900121684600F011F80221200000F0B2
:1011B0000DF82068401D206013BD00008814000059
:1011C000000005409C0005404000001030B5434A37
:1011D00013003C33424C15796D076D0F002D10D173
:1011E000042403E005881D60801C1B1D25006C1E67
:1011F000002DF7D1872050621162106A0004FCD4E0
:1012000007E006202056002801D10120206003209D
:10121000A07130BD2818001029180010000000101F
:101220000C0000107CB56C462E4E3068002821D191
:1012300031002D48FFF7ACFB0120706030680002E0
:1012400020210143216030680721FFF7FBFCE0709B
:1012500030680721FFF7F6FC002902D0E078401C37
:10126000E07022486060641D21002148FFF790FB78
:10127000032116E070680100491C7160207001258F
:101280000CE0FF2060553068002806D0611919482D
:10129000FFF77EFB3068401E30606D1C082DF0D3D8
:1012A00004216846FFF792FF73BD0000E8150010A7
:1012B0002A1800102B180010601600102C180010AF
:1012C000C01600102D180010201700102E18001046
:1012D000801700100C180010C0000000000005402E
:1012E000380000100418001018000010FF0000A8BB
:1012F0000C0000102400001010B5744C002000F009
:1013000023F9002072490860FFF7CEF9002807D0C2
:10131000002270490020FEF7B3FF0120A08011E0F9
:1013200006202056002804D06A48FFF7D1F9002093
:10133000A07169482060A088002803D00020A08008
:10134000FA20A06010BD70B586B0644E0024644DD4
:10135000012000F0F9F8634800F054F96248006891
:10136000C00703D5FFF77CFDFA2425E006203056A0
:10137000002805D02D1D5D4CB079401EB0711BE0DA
:10138000002005905A48007C04900820039058489B
:10139000807B0290072001905548007B0090062337
:1013A0005348827A05215248007AFFF763FD0120F5
:1013B000B061012030620835346006B070BD10B5F0
:1013C0004C4C022000F0C0F8A088002804D0002077
:1013D000A0801420206004E00020A0710020464975
:1013E000C88010BDF8B5454E454CB5880020B0808A
:1013F000032000F0A9F8002D10D0E7884149200013
:10140000FFF750FB21003C48FEF784FE6D1E002DC7
:10141000F8D1E088C11B3C48FFF7CAFAFFF702FF8A
:10142000E088002801D005203060F1BD80B504209F
:1014300000F08AF8FFF7ADFE34482449086201BD88
:1014400080B5052000F080F82948408A1F4988624D
:1014500001BD80B5062000F077F81E492C48FEF744
:1014600059FE1A48808E401E1849888601BD70B505
:10147000164C00F0EBF872B62648056800202549A6
:10148000086062B600260CE0002008600120A188F8
:10149000002901D1002802D0E07900F074F8761C10
:1014A0000834072E0DD200202100002DEFD00A684D
:1014B000002AECD00A689542E6D20A68521B0A60FC
:1014C000E5E7044800F03AF970BD00003000001074
:1014D00024180010D8000010EFFE000038000010A3
:1014E000381E00000010025000000540C409000032
:1014F000E815001040000010000000104800001027
:1015000024000010001F00001800001088130000C5
:10151000CC000010201800102C482D490978415C9F
:101520002A482C4AC9B2525C805CC9B2C900C0B218
:101530000818294908702948274909780422514385
:10154000405827490860704700B52249C0B2C21010
:10155000895C244AC0B243075B0FD25C91431D4AA9
:10156000C0B2C310D1541B49C0B2C210895C00295B
:1015700008D1174909781B4AC0B2C010105C8143DA
:101580001348017000BD12490978164AC0B2C31051
:10159000D25C0A430E490A700E49C0B2C210895C7F
:1015A000104AC0B243075B0FD25C0A430949C0B27C
:1015B000C0100A5470470C49C0B2042242438958F3
:1015C000064AC0B2042358431150704778170000F0
:1015D0002F180010141800103018001068000010A8
:1015E0001C180010F81E0000880000100848006851
:1015F0008021C9000143064801608220C0000549DE
:10160000086070470168044A4A4002607047000061
:101610000080025058400440FF0F000080B50F4882
:101620000F4923224A620222D023CA500F22D82314
:10163000CA500022D423CA500122D4310A60094979
:1016400041600321016000F001F801BD064872B657
:10165000AA2101605521016062B670470040004038
:1016600000800440881400000840004000B538485D
:101670003849D122384B1A60D122384B1A600122E6
:101680009823CA5080228A5880235B0113438031FB
:101690000B608021C1600021416017210160F221AF
:1016A0008162072181600321C160017A06220A401C
:1016B000002AFAD143214160802080032849086034
:1016C000802028490870802080032749086000BDD9
:1016D00038B51F4C207A0E210140022904D004297C
:1016E0000ED00C290CD024E00F252800451E002820
:1016F00005D021001D48FFF74BF90028F5D11CE06B
:101700001B4840891A49C988884203D2694618484B
:10171000FFF73EF92068009000991548FFF748F957
:1017200000983B2804D11348808E401C11498886BC
:1017300003E0606900902068009031BD80B50449E5
:101740000A7D520601D5FFF723F901BD0000000014
:101750000080004000800440A8400440A4400440B1
:1017600080E200E015E400E000E100E0D8000010B5
:10177000CC00001030000010000001000200010049
:10178000030001000200010004000100020001004A
:101790000300010002000100050001000200010039
:1017A000030001000200010004000100020001002A
:1017B0000300010002000100060001000200010018
:1017C000030001000200010004000100020001000A
:1017D00003000100020001000500010002000100F9
:1017E00003000100020001000400010002000100EA
:1017F00003000100020001000700010002000100D7
:1018000003000100020001000400010002000100C9
:1018100003000100020001000500010002000100B8
:1018200003000100020001000400010002000100A9
:101830000300010002000100060001000200010097
:101840000300010002000100040001000200010089
:101850000300010002000100050001000200010078
:101860000300010002000100040001000200010069
:1018700003000100020001000000ECD800FFFFDFC0
:10188000110000000000EBD800FFFFDF1200000095
:101890000013F7F8FFFFFFDF010000000012F7F868
:1018A000FFFFFFDF020000000000ECF8FFFFFFDF9A
:1018B000030000000000EBF8FFFFFFDF0400000062
:1018C0000000F7D8FF00FFDF050000000000F7D898
:1018D000FF00FFDF060000000000F7D8FF00FFDF79
:1018E000070000000000F7D8FF00FFDF080000003D
:1018F00000000000D70000000468019D02CE03FF35
:101900000468E90367003131313131000000000023
:1019100000000000000000000000000000000000C7
:1019200000000000002642415345205359535445BE
:101930004D2056455220303330300000000000006A
:101940000000000000F531313131310000000000AD
:101950000000000000000000000000000000000087
:10196000000000000026000082030500E8150010BA
:10197000F018000042060202F0150010F8180000EE
:101980004A060202F2150010FA180000520602027E
:10199000F4150010FC1800005A060202F61500109B
:1019A000FE18000062060202F8150010001900007F
:1019B000E2150304FA15001002190000701C20083B
:1019C000FE15001006190000C01C20083E1600106D
:1019D00046190000F00F20081E16001026190000FE
:1019E00000B5124813498E2292008150002100E078
:1019F000491C6429FCD30121016423218160012158
:101A00008167002141640121416409498E229200CD
:101A10008150017BC907FCD5032101670021416783
:101A20000121416704498030016000BD008004400D
:101A300018ED000098ED00005F80010010B5FFF781
:101A4000CFFFFFF7D3FDFFF7E9FDFFF70FFEFFF72D
:101A500051F9FFF7DFF9002408E02000C0B2FFF7DA
:101A6000AAFD2000C0B2FFF76FFD641C082CF4D360
:101A70000720FFF788FD00F009F8FFF74DFD024849
:101A800000688047F9E700BF1C18001009480021D2
:101A9000016009494160002181600849084A1160DC
:101AA00007210160704707480068401C054908602D
:101AB0007047000010E000E07FBB00000000C04065
:101AC00020ED00E020180010441E0000501E000011
:101AD000081F00005C1E0000101F0000681E0000B0
:101AE000741E0000801E00008C1E0000981E000066
:101AF000A41E0000B01E0000BC1E0000C81E000096
:101B0000EA09000000000000D7010000E501000024
:101B100091010000550500009F040000050300002E
:101B20003103000091040000AD040000F90400003E
:101B3000D504000081020000C1020000B5040000CD
:101B400070B40121002313E00468001D0C4202D090
:101B50004D466D1E64192360241D121F042AFAD2FB
:101B60002500960701D52380AD1C0A4000D02B70BC
:101B70000268001D002AE7D170BC704730B50168CB
:101B80004118446862088A188368E40701D54C4606
:101B90001B190C30914200D130BD0C7864B2491C45
:101BA0000D78491C1D705B1C002C02D5641CF9D1FA
:101BB000F0E7641EF4D5EDE710B507497944183114
:101BC000064C7C44163404E0081D0A6889188847CE
:101BD0000100A142F8D110BD08000000240000005F
:101BE00061FFFFFF4C110000E8060010000000003C
:101BF0008DFFFFFF5603000076010000000000107B
:101C0000506167654E202575204861766520556EC8
:101C1000636F72726563742043524331360D0A005C
:101C2000506167654E2025752048617665205661B4
:101C30006C69642043524331360D0A0050726F675D
:101C400072616D6D20506167654E2025752073753A
:101C500063636573730D0A0000F00BF8002801D070
:101C6000FFF7AAFF0020C046C046FFF7E7FE00F0DE
:101C700002F80120704780B500F002F801BD0000B5
:101C80000746384600F002F8FBE7000080B5C04682
:101C9000C046024A11001820ABBEFBE72600020036
:101CA0003C466C6173682057726974652045727296
:101CB0006F723E0D0A0D0A006F7069737461727461
:101CC000726563656976652025733B0D0A00000027
:101CD0003C626F6F747374617475733A2025733E40
:101CE0000D0A0D0A000000003C626F6F7477726984
:101CF00074653A2025732C25733E0D0A0D0A0000E9
:101D00003C536563746F7220457272617365643E03
:101D10000D0A00003C426C6F636B20457272617368
:101D200065643E0D0A0000003031323334353637F9
:101D30003839414243444546000000003C57524F69
:101D40004E4720494E5055543E0D0A0D0A000000E2
:101D50003C4C4F414420504152414D3E0D0A0D0A2A
:101D6000000000003C5341564520504152414D3E39
:101D70000D0A0D0A000000003C44454641554C54F4
:101D800020504152414D3E0D0A0D0A003C626F6FDA
:101D90007465726173653A2025733E0D0A0D0A0061
:101DA000181F00003C1F0000401F0000201F000003
:101DB000281F00003C4352432056616C3A2025788E
:101DC0003E0D0A006D616B6570686F746F3B0D0AA4
:101DD000000000006765746C6162656C733B0D0AFE
:101DE0000000000025752C25782C257825780D0A13
:101DF00000000000656E646C6162656C733B0D0AE7
:101E0000000000003C5645523A2025733E0D0A0D55
:101E10000A00000043414E205245494E49540000FB
:101E200043414E204552524F5200000043414E2044
:101E3000494E4954204F4B00141E0000201E000044
:101E40002C1E0000676574706172616D20000000D7
:101E5000736574706172616D20000000626F6F7451
:101E600077726974652000006D616B6570686F74CE
:101E70006F3B00006765746C6162656C733B0000CA
:101E80006F706973746172743B00000063707572E7
:101E9000657365743B000000626F6F7465726173F7
:101EA000653B0000626F6F747374617475733B00FF
:101EB0006C6F6164706172616D3B00007361766587
:101EC000706172616D3B0000727374616C6C707252
:101ED0006F663B00204E65772056616C3A2000000B
:101EE0002044656661756C743A200000C046C046A7
:101EF000C046C046FFF7B0FE010204081020408033
:101F00000D0A0D0A0000000054504153533A2000BE
:101F10006765747665723B004552522C30000000B4
:101F200046554C4C00000000454D505459000000EF
:101F30002056616C3A200000150100004F4B000054
:101F40004552520000100A0AFEE703E80E0010FA9C
:101F50000005FF03FC170010FA00050700E017005A
:101F600010FC000706000700E8120010FA0001FF4D
:101F700001FC0002010001F8000001F9000002F973
:101F8000000003F9000004F9000005F9006806F9F3
:101F900012000047130000BF130000E51300002DDE
:101FA00014000041140000531400006F140000F9E5
:101FB00012000047130000BF130000E51300002DBE
:101FC00014000041140000531400006F140000506E
:101FD0006172616D2049443A302575257325240DC1
:101FE0000A3C3025752025243E0D0A0D0A00737821
:101FF000756900E8140010FA0005FF00E8060010FB
:05200000FA0001FF07DA
:0400000500001EEDEC
:00000001FF
