:100000001008001055300000B1300000B130000081
:10001000B1300000B1300000B130000026D4FEEF56
:10002000000000000000000000000000B1300000EF
:10003000B130000000000000B1300000172C0000BB
:10004000B1300000B1300000B1300000B13000002C
:10005000B1300000B1300000B1300000B13000001C
:10006000B1300000B1300000B1300000B13000000C
:10007000B130000025130000B1300000B1300000A5
:10008000B1300000B1300000E9240000B1300000C0
:10009000B1300000AD1E0000B1300000B1300000F2
:1000A000B1300000B1300000B1300000B1300000CC
:1000B000B1300000B1300000B1300000B1300000BC
:1000C000564D3032206876320000000000000000FB
:1000D000303130302E30372E3230313800000000D1
:1000E00033B6F3E038BB317B33C1CA3706C07E1F5D
:1000F0008ED495BA79F516EEE58AC44646787457DB
:1001000000B5BFF34F8F9348A6490860BFF34F8FE8
:1001100000BFFDE7F8B505000F00964E0120707096
:10012000FFE77078002832D09349280000F006FBE2
:10013000040000282BD03078002801D1032C24D1D2
:100140000B2C02D3012098498880032C13D2022360
:100150006A460620011B280000F01CFB2100A1407C
:100160008842DED1009800F0C1F900900028D8D074
:100170000098401E0090009A3900280005008B4B23
:10018000042060431B5828009847052CC9D3F1BDB3
:1001900070B582B00600864C764D0020009000E0DD
:1001A000641C6946300000F033FB207800998842D7
:1001B000F6D000983B280DD10020687020780028E8
:1001C00008D12878002800D100BF01202870794884
:1001D0007549086073BD80B508001100C04A00F081
:1001E00045FB01BDF7B58AB001AD0A9800680A99D0
:1001F0008988405C202842D16F480C990C225143D9
:100200004018476801784907490F00918678761EA3
:10021000009C083401A90A9800F0FAFA0098002816
:1002200000D11F24009B2A0021000A9800F0B2FA96
:10023000052824D20024E443052E04D204203100F2
:10024000401AC000C4402868844218D331002800F6
:1002500000F04CFBB85503E0287838706D1C7F1C0B
:100260003000461E0028F7D19E4A0C990B9800F0EA
:10027000FDFA3A789C490B9800F054FB03E0BB4927
:100280000B9800F04FFB0DB0F0BD70B506000C00F0
:10029000002500E06D1C0A2D12D29E480088012125
:1002A000A9400842F6D022002900434800F098F9FE
:1002B0000028EFD100222100300000F040F803E0D8
:1002C000BE49200000F02EFB70BD38B50C002100A7
:1002D000002000F0BEFB002500E06D1C0A2D11D2AD
:1002E0008C4800880121A9400842F6D0220029004C
:1002F000314800F0BFF90028EFD19D49200000F0FF
:1003000011FB03E0AE49200000F00CFB31BD80B5CD
:100310000800984AAB4900F005FB01BD80B5080014
:10032000A94AAA4900F0FEFA01BD80B5A849A9482A
:1003300000F0F8FA01BD80B5FFF7E2FE01BD10B58F
:100340000C002100FF2000F017F9C449200000F044
:10035000E9FA10BD0400FA0580B508009E49054A77
:100360009278002A00D0091D0A68BD4900F0DAFA27
:1003700001BD000024190010C42C000038B50C0089
:10038000964D2100032000F08AFB002803D00120B5
:10039000B44988702D1D2A68B349200000F0C2FAC4
:1003A00031BD00000CED00E0EC000010FC2C000062
:1003B0000E17001060EA000058210000F7B5C6B023
:1003C000AA4F03AC241D03ADA64EA9482860012303
:1003D00048AA0821469800F0DDF9082818D1489865
:1003E00000BA2060082310226946C91D489800F011
:1003F000E9FA2A680821684600F05EFA28602000C1
:100400000400241D03A98422520089188842DED1E9
:100410003620009028684899884258D1049800BA3C
:100420004890082310226946C91D489800F0CAFA6E
:10043000B2480290B078002849D04898002811D1DD
:1004400003A8AF494418AF4D02E0B078401CB0702B
:1004500020000400241D29000D002D1D00680968DE
:100460008842F2D0B07803282EDB4898602827D243
:100470004898F17888421FD1822292004898C02182
:1004800089004018010203A800F0C0FA00280FD02C
:10049000F078401CF0703F1F002002909A489B4962
:1004A000086048985F2812D10120984908600EE042
:1004B0003120694648720AE034206946487206E0F5
:1004C00032206946487202E03320694648726B4622
:1004D0003A688F49479800F025FA49B0F0BD00000E
:1004E000983000003C300000402F000000B50100B3
:1004F000884A01200C234343D35A9BB2DB089BB2AA
:10050000994204D0401C4C28F4D3002000E0401C49
:1005100000BD0000A030000038B57E4C002501E091
:100520006D1C0C344C2D07D2A178606800F0DEF908
:100530000028F5D0012000E0002032BD10B50400F5
:1005400075480068401C7449086073480068734926
:1005500048600421704800F0C9F96F490871002211
:1005600021000020FFF7B1FE10BD0000B82E0000F2
:100570001C2E0000D0000000F8B506000F00654CEE
:1005800000250EE0A168095C626811540100481E54
:100590000029F7D1624A2900380000F067F96D1C84
:1005A0000C344C2D09D2FF2E01D1E07800E0300050
:1005B000E1788142F3D1A078E8E7F1BDCC2E0000CC
:1005C000E02E0000502F00004E170010342E0000C7
:1005D000602F0000FC010010282F00001C2F0000DD
:1005E000F0B5C3B01700060001AC0834C8B20090E3
:1005F0004C4A090201A800F009FA1D4A802149006D
:10060000200000F059F9002806D0009A4649380029
:1006100000F088F900201EE0009A4449380000F0FC
:1006200081F900250EE0217872681154641C401C89
:10063000B1788842F7D33E4A2900380000F016F915
:100640006D1C0C364C2D05D2F07800998842F7D1FC
:100650000020EDE7012043B0F0BD0000F42E0000C3
:100660004C2E000024190010082F0000242F000039
:10067000FFFF0000F0B5C3B00C0016006A46083258
:10068000E7B208E043685B5C1370491C521C837836
:100690009942F7D30C30C1788F4204D3C178B94264
:1006A000F8D10021F3E7234AFE216846083000F024
:1006B00003F980B245BA2800694683225200885265
:1006C000822292002102684600F0A0F9002801D1A0
:1006D000002011E00D222102FE31684600F096F95B
:1006E00068460089854201D0002005E03A001249A1
:1006F000300000F017F9012043B0F0BD2C300000AD
:10070000C8000000E000000091130000EC000010A1
:10071000642E00005821000010160010101900105F
:1007200048300000090200007C2D00009C2D0000D4
:100730003C300000FFFF0000B82D0000FCB58288AF
:1007400000273B00002400260568AD5C002C02D188
:100750000CB43B2E17D0CE59365D002E09D1002C9B
:100760000ED10CBC00275B1C521C468932402E0067
:10077000EAE7AE4202D00CBC3F1DE3E7641CF2E79F
:10078000BF087F1C00E00027C188CB1AC38082808D
:100790000097FFBDF0B5868847890025156002B433
:1007A00006E01470521C00241470002923D0C0BC31
:1007B0000468345D761C3E40491EC0B43B2C13D007
:1007C000002BEED0303C0A2C05D3022B0AD0113C72
:1007D000052C07D80A340C4FFF5C16687E43341989
:1007E0001460E2E7042506E0002900D1AD1E2D1FAC
:1007F000064C002262701CBC611AC488611AC18058
:10080000828008352800F0BDAC30000024190010AB
:100810001EB572B6C288002A24D0521EC2808288B9
:10082000531C44891C4084800023048900680EE026
:100830001EB572B6C2884489A24213D8511CC18029
:1008400083889B1823400022048901686846A744D6
:1008500000BF805CC85403E052005B00805AC8525D
:10086000012000E0002062B61EBD0000FFB51300AD
:100870000F4A0C2461435618B478641E6408A4001F
:100880003188CA08766849074F0F06D0A74400BFD1
:10089000367802E0368800E036680649CC19E47FF5
:1008A000CC730C7602960192009600F03BF8FFBDE7
:1008B00058210000CC01001010B5030010000A0000
:1008C000511E002A10D002001878000250405B1C14
:1008D000002201E04000521C082AF0D20404F9D59D
:1008E00044000F486040F6E780B210BD10B502002A
:1008F000FF200B00591E002B0FD00300107858402A
:10090000521C002301E040005B1C082BF1D20406BE
:10091000F9D5440031206040F6E7C0B210BD0000B8
:10092000211000000EB47EB506000020029007AD35
:100930002D1DFFE70798007800283ED000220023F5
:100940006C460A34079800782070079800782528AC
:100950002CD105E00A204343079800781B18303B50
:100960000798401C07900798007830380A28F1D380
:1009700007980078732804D0752804D0782804D00C
:10098000D8E72C6802E00A2200E01022002A06D0F4
:1009900069460A31286800F015F8401E241A2D1DFA
:1009A00004E021783000FFF743FF641C2078002822
:1009B000F7D10798401C0790BCE703B0039870BCC0
:1009C00004B00047FCB504000D00160000270E48D7
:1009D00000902000310000F087F80098405C2870FB
:1009E0006D1E7F1C2000310000F07EF80400002CFA
:1009F000EDD10198874204D2302028706D1E7F1CF3
:100A0000F7E73800F6BD0000A42E0000F8B504009A
:100A10000F0015000026002600E0761C00F036F9D5
:100A2000C00705D5802040028642F6D300200FE0A3
:100A3000E80701D5032602E0022600F032F938BAB1
:100A4000606026716908241D200000F0DFF8012095
:100A5000F2BD38B505000C0000F023F92804D721B9
:100A6000014300910421684600F0D0F800F00EF92F
:100A7000C00705D5002019498842F7D2401CFAE783
:100A800017492000FFF74EFF012032BD80B5AB2093
:100A9000694608700121684600F0B8F801BD38B514
:100AA00005000C0000F0FDF82802D8210143009158
:100AB0000421684600F0AAF800F0E8F8C00705D560
:100AC000002006498842F7D2401CFAE70549200079
:100AD000FFF728FF012032BD00000000FF0F0000DB
:100AE0007C2E0000902E00000022030A8B420BD2C5
:100AF00003098B4219D243088B422ED2411A00D2ED
:100B00000146524110467047FF2209023FD01206AB
:100B10008B4205D3121209028B4201D31212090231
:100B200003098B4219D300E0090AC3098B4201D3A0
:100B3000CB01C01A524183098B4201D38B01C01AE9
:100B4000524143098B4201D34B01C01A5241030960
:100B50008B4201D30B01C01A5241C3088B4201D30F
:100B6000CB00C01A524183088B4201D38B00C01ABC
:100B7000524143088B4201D34B00C01A5241884274
:100B800000D3401A5241CFD201461046704708B5F3
:100B900000F090F808BD000080B52F48D0212F4A02
:100BA00011602F4909688022D2000A432C490A604B
:100BB0002C492D4A116001212C4A116001212C4A37
:100BC000116001212B4A11602B49096801220A4357
:100BD00029490A6029490968802212010A432749E4
:100BE0000A600121264A1160002141600221416012
:100BF0000168FF22C8320A43026002214160FFE718
:100C0000017B4907FCD4FFF741FF01BDF0B51D4A48
:100C10001D4B0400072901D20D0000E00725002626
:100C2000114F3E6002E006781E60401C2E00751ECB
:100C3000002EF8D115786D07FCD5082902D3057868
:100C40001D60401C1D682570641C491E0029F1D1DF
:100C5000044805490860F0BD000004406C400440B1
:100C600000800150FF0F0000001001506040044060
:100C7000644004407040044004800440808004408C
:100C8000948004400C0004400800044080B5052016
:100C90006946087002216846FFF7B8FF6846407849
:100CA00002BD80B506206946087001216846FFF73D
:100CB000ADFF01BD7047000070B504000B00107857
:100CC000517809020143107905040D43507900065B
:100CD0002843117A557A2D020D43117B0E042E43C1
:100CE000517B090631434022D21A121B00F08EFAC2
:100CF0004022121B00F09CFA70BD70B514000E006B
:100D00000500B0680078002806D0012825D0022808
:100D100044D007286CD0A8E003CD083D7268126863
:100D20000023994215D301D8904212D3306802684B
:100D3000002303CD083D8B420BD301D8824208D358
:100D4000287C012801D1022090E001202874012094
:100D50008CE000202874002088E003CD083D7268F4
:100D60001268002399420CD301D8904209D330680D
:100D70000268002303CD083D8B420BD801D3824289
:100D800008D2287C012801D102206FE001202874BC
:100D900001206BE000202874002067E003CD083DAF
:100DA00072681268002399420CD301D8904209D38B
:100DB00030680268002303CD083D8B420DD801D373
:100DC00082420AD2287C012805D1002060710020CF
:100DD000287401204AE0022048E0287C012801D143
:100DE000022043E0002060710120287401203DE0D2
:100DF000B4480CC8083803CD083D8B421BD801D33A
:100E0000824218D20CCD083DAE4803C8121A8B415D
:100E10003068006800218B420BD301D8824208D38E
:100E200003CD083DA74A03C2083A002060710120A3
:100E30001CE003201AE0A3480CC8083803CD083D85
:100E4000121A8B413068006800218B420BD301D805
:100E5000824208D303CD083D9A4A03C2083A0020D3
:100E60006071012002E0032000E0642070BD70B5D5
:100E7000040016001D009448E4B218226243801852
:100E8000407C002800D1CFE09048E4B202226243C7
:100E9000801880300078002800D1C5E08A48E4B28C
:100EA000182262438018407C401E874AE4B218230F
:100EB0006343D2185074854889B202224A4380188D
:100EC00080300078FA2189004843B1494018B1497F
:100ED000E4B2082262438850AF48E4B2082161437B
:100EE0004218AE48E4B21021614341187648E4B29A
:100EF00018236343C018FFF700FFC0B200283BD09F
:100F0000022871D000D38FE0A348E4B208216143E6
:100F10004018407900281FD102206B49E4B2182202
:100F20006243891888746948ADB202216943401848
:100F300080300078FA218900484395494018964945
:100F4000E4B208226243885002209349E4B20822A6
:100F50005443091948710EE08F48E4B208216143F7
:100F600040184079032806D102208B49E4B20822B8
:100F700054430919487157E08748E4B20821614396
:100F80004018407901281FD103204F49E4B21822AC
:100F90006243891888744D48ADB2022169434018F4
:100FA00080300078FA2189004843794940187A490D
:100FB000E4B208226243885003207749E4B2082251
:100FC0005443091948710EE07348E4B208216143A3
:100FD00040184079022806D103206F49E4B2082264
:100FE0005443091948711FE08348E4B20821614362
:100FF00040184079002817D13448B6B20421714313
:101000004018E6300088FA218900414360480818FA
:101010007949E4B208226243885001207649E4B25B
:10102000082254430919487170BD10B5040059488D
:10103000E4B20822624380180079002840D0234897
:10104000C9B2022251434018803002786B496C4883
:10105000FFF768FC00204F49E4B208226243891878
:10106000087100201849E4B21822624389180874F4
:1010700000206149E4B20822624389180871012006
:101080005D49E4B2082262438918487100205A4938
:10109000E4B208226243885000203F49E4B20822AB
:1010A00062438918487100203B49E4B20822624338
:1010B0008918087100203849E4B2082254430851C5
:1010C00010BD0000081900100000001010160010DC
:1010D00010B504003048E4B2082262438018007959
:1010E000002853D000202C4AE4B208236343D218CE
:1010F00010712948E4B2082262438018407902281E
:1011000021D14048E4B2182262438018807C022832
:1011100011D13D48C9B202225143401880300278B3
:1011200036493748FFF7FEFB00203349E4B2082276
:1011300062438918487101201749E4B208225443D8
:101140000919487122E01448E4B2082161434018AB
:10115000407903281AD100200F49E4B208226243E3
:101160008918487100202449E4B208226243891892
:10117000487100202049E4B20822624389180871AE
:1011800000201D49E4B208225443085110BD00005C
:1011900017FCFFFF9818001070180010382C000082
:1011A00010B5154AC0B208234343D2181279002A59
:1011B00020D0114AC0B208234343D2185279002AE2
:1011C00018D000220C4BC0B2082444431B191A71DA
:1011D0000022094BC0B208246043181842710A4823
:1011E000C9B20222514340188030027803490448B2
:1011F000FFF798FB10BD000044010010302F0000E5
:10120000FC0100100000001010160010D2B2203AAD
:1012100003D301009140002070475242D041524216
:10122000203291404140D040904041407047000002
:10123000D2B2203A03D30800D040002170472032B8
:10124000D141D04048409140D140484070470000D3
:101250002C482D49096808220A432B490A602B496A
:101260000968802292020A4328490A6041210160EC
:101270000221C022520081502549C16000218161B4
:101280000B21016080208001224908604020224912
:1012900008708020800121490860704700B5CB4864
:1012A00001680122914301600178C907FCD400BDA7
:1012B0000EB470B51A4904AC124A00231BE00D7A33
:1012C0002668B54201D160680834F02555628D88E2
:1012D0009562CD88D5620D88054315634D88060C4F
:1012E0002E435663C44D95630D7A1562156A2D041D
:1012F000FCD40C315B1C0E2BE1D3039870BC04B002
:101300000047000000000540048004408080044045
:10131000833A000080E200E00DE400E000E100E03C
:10132000282A0000F8B5A94FB44CB54E19E00620A4
:101330003056002815D1A089A8210902884210D171
:10134000607AB049097888420BD16079B071200089
:101350000C380078AC4908700020AC4908700120B6
:10136000B0803869002800D12EE1202808D22F2132
:101370008422B95080217850802179580904FBD407
:10138000052843D006286BD0072800D192E0082812
:1013900000D1B9E0092800D1E1E01128C7D0122816
:1013A00000D007E10620305600282ED0964801785C
:1013B00020000C380078814227D10120B08001251F
:1013C00000E0ED1C102D0FD2615D9148FFF730FA5F
:1013D000605D3B2804D18D480078401C8B49087023
:1013E000E807EED46D1CEDE7B079401EB071062021
:1013F0003056002809D1B089844909784018B08155
:10140000814801789548FFF713FAAAE79448C07C11
:1014100000280DD022009348017893480078FFF708
:101420004BFC8F4A03C2083A00208D49C8740EE075
:101430008B4803C88D4A03C2083A220089480178C4
:1014400089480078FFF738FC854A03C2083A844887
:10145000407C401C824948740120AA49888780E763
:101460008348007800280DD0220082480178A648E1
:101470000078FFF721FC804A03C2083A00207C492B
:1014800008700EE07C4803C8A04A03C2083A220054
:10149000784801789C480078FFF70EFC764A03C232
:1014A000083A9B480078401C9949087001209549EA
:1014B000888756E79748007800280DD02200964884
:1014C000017896480078FFF7F7FB954A03C2083A7F
:1014D0000020904908700EE0914803C8914A03C269
:1014E000083A22008C4801788C480078FFF7E4FB2A
:1014F0008B4A03C2083A8C480078401C8A4908701D
:101500000120804988872CE78848007800280DD082
:1015100022008748017887480078FFF7CDFB864A8C
:1015200003C2083A0020814908700FE04C4A906CD1
:10153000D16C824A03C2083A22007D480178724881
:101540000078FFF7B9FB7C4A03C2083A7C48007870
:10155000401C7B49087001206A49888701E7794867
:10156000007800280DD0220077480178774800786D
:10157000FFF7A2FB764A03C2083A002071490870BF
:101580000FE0374A106E516E724A03C2083A2200C9
:101590006D4801786D480078FFF78EFB6C4A03C2F6
:1015A000083A5B480078401C5949087001205549A9
:1015B0008887D6E63879A0210140002903D0386811
:1015C000012101433960CCE6F1BD00000000054077
:1015D0001CB5614C6148006800906048006901904A
:1015E0000121684600F016F80221200000F012F8F0
:1015F0002068401D206013BD881400009C00054039
:10160000FC000010901600102B1900102C1900106F
:10161000BC00001030B5524A13003C33514C1579D0
:101620006D076D0F002D10D1042403E005881D60A7
:10163000801C1B1D25006C1E002DF7D187205062D9
:101640001162106A0004FCD407E00620205600282E
:1016500001D1012020600320A07130BDC80000101E
:1016600000000010A0160010A216001008000010C4
:101670002B000010B4160010180000107CB56C464A
:10168000394E3068002821D131003848FFF7C0F8C2
:101690000120706030680002202101432160306821
:1016A0000721FFF721FAE07030680721FFF71CFAE5
:1016B000002902D0E078401CE0702D486060641D75
:1016C00021002C48FFF7A4F8032116E07068010000
:1016D000491C7160207001250CE0FF2060553068C6
:1016E000002806D061192448FFF792F83068401EA0
:1016F00030606D1C082DF0D304216846FFF78AFF87
:1017000073BD0000EC000010B616001020000010A1
:101710002900001043000010C8160010CA1600105F
:101720003000001038000010410000105B00001075
:10173000DA160010DC1600104800001050000010EF
:101740005900001073000010EE160010F016001083
:10175000600000106800001010190010C0000000A8
:1017600000000540F4000010FC180010D400001028
:10177000FF0000A8C8000010E000001010B5964C53
:10178000002000F085FA002094490860FEF7C4FEAE
:10179000002807D00022A0490020FEF776FD012096
:1017A000A08011E006202056002804D09A48FEF7B9
:1017B000C5FE0020A07199482060A088002803D0B1
:1017C0000020A080FA20A06010BD70B588B0944EB3
:1017D0000024944D012000F05BFA934800F0BFFA1A
:1017E00092480068C00703D5FFF758FDFA2442E08D
:1017F00006203056002805D02D1D8D4CB079401E96
:10180000B07138E0002007908A48806A00028A4957
:10181000097801430691092005908648006A000274
:101820008649097801430491082003908148806922
:1018300000028349097801430291072001907D4805
:10184000006900027F490978014300910623794825
:10185000806800027C490A7802430521A948007883
:10186000FFF726FD0120B061012030620120B06346
:10187000012030640835346008B070BD10B5A24C4A
:10188000022000F005FAA088002804D00020A080E3
:101890003220206004E00020A07100209B49C88015
:1018A00010BDF8B59A4E9B4CB5880020B08003203F
:1018B00000F0EEF9002D10D0E78897492000FFF7DF
:1018C00031F821009148FEF725FC6D1E002DF8D15E
:1018D000E088C11B9148FEF7ABFFFFF7CFFEE08821
:1018E000002801D005203060F1BD80B5042000F053
:1018F000CFF9FFF76DFE8A483749086201BD80B510
:10190000052000F0C5F905210020FFF749FC0F2153
:101910000120FFF745FC19210220FFF741FC22219D
:101920000320FFF73DFC2C210420FFF739FC7D4804
:10193000BE49886201BD80B5062000F0A9F936498C
:101940007948FEF7E7FBB948808E401EB749888684
:1019500001BD80B5072000F09BF90020B3498887BE
:10196000042301220A210020FFF781FA0E2302221C
:1019700014210120FFF77BFA182303221E210220E5
:10198000FFF775FA2123042227210320FFF76FFABE
:101990002B23052231210420FFF769FA01BD80B510
:1019A000082000F075F905210020FFF73EFB0F210C
:1019B0000120FFF73AFB19210220FFF736FB222115
:1019C0000320FFF732FB2C210420FFF72EFB5548A4
:1019D0009649086401BD0000EC00001024190010B5
:1019E00080B5092000F054F905210020FFF770FBB5
:1019F0000F210120FFF76CFB19210220FFF768FB84
:101A000022210320FFF764FB2C210420FFF760FB59
:101A100044488649886401BDFC010010EFFE0000C7
:101A2000F4000010942F0000001002500000054048
:101A3000C409000010160010EC160010D816001093
:101A4000C6160010B21600109E16001010B50A201F
:101A500000F01EF900F0C6F9040074485621405603
:101A6000012824D1724884421DDB0020714908708E
:101A700000F08CF970480078401C6F490870230012
:101A80006D4802786D496E48FEF74CFF6A48007851
:101A900005281AD1FFF780F8224864490860002021
:101AA0006849087011E00020634908700DE05F4844
:101AB00056214056022805D100F064F90120614901
:101AC000087002E000205C490870002C16D15948CB
:101AD000007800280ED122005B495948FEF722FF0A
:101AE0000220584908705948504908650120514959
:101AF000087006E00B484D49086502E009484B496B
:101B0000086510BD90160010FC000010BC0000100D
:101B100004010010E000001068300000D400001044
:101B200088130000E7030000F0010010F0B583B057
:101B30003E4C47480090474F474D00F07BF972B646
:101B40004648066800204549086062B600200190BA
:101B50000EE0002008600120A188002901D10028A2
:101B600002D0E07900F0B3F80198401C01900834ED
:101B700001980B280DD200202100002EECD00A681D
:101B8000002AE9D00A689642E3D20A68921B0A60EA
:101B9000E2E7002008E000220A600121009A1171AA
:101BA000401C00990831009105280CD20099002EA4
:101BB000F6D00A68002AF3D00A689642EBD20A6887
:101BC000921B0A60ECE7002005E000220A60012178
:101BD0002971401C083505280CD22900002EF8D0A8
:101BE0000A68002AF5D00A689642EED20A68921B6B
:101BF0000A60EEE7002005E000220A600121397149
:101C0000401C083705280CD23900002EF8D00A688D
:101C1000002AF5D00A689642EED20A68921B0A6042
:101C2000EEE7074800F078F9F7BD0000EC0000107F
:101C3000411F0000301900102F190010A02F0000C4
:101C4000FC01001042010010AC2F00002F750000B5
:101C5000701800109818001044010010201900108E
:101C60002C482D490978415C2A482C4AC9B2525C5B
:101C7000805CC9B2C900C0B2081829490870294857
:101C80002749097804225143405827490860704782
:101C900000B52249C0B2C210895C244AC0B24307D1
:101CA0005B0FD25C91431D4AC0B2C310D1541B4993
:101CB000C0B2C210895C002908D1174909781B4AB3
:101CC000C0B2C010105C81431348017000BD1249BE
:101CD0000978164AC0B2C310D25C0A430E490A7092
:101CE0000E49C0B2C210895C104AC0B243075B0FF4
:101CF000D25C0A430949C0B2C0100A5470470C496B
:101D0000C0B2042242438958064AC0B20423584351
:101D100011507047282900002D19001018190010C3
:101D20002E1900106C010010041900106030000022
:101D30009C010010174800688021C9000143154824
:101D400001608220C0001449086014480068012125
:101D50000143124801600020114908607047016882
:101D6000104A4A40026070470C480068082101434D
:101D70000A48016000200C490860704709480B4977
:101D80000860704700200A49086070470548084904
:101D900008607047008002505840044000800350A3
:101DA00084400440FF0F0000AC400440200003507A
:101DB000040003500220154908601548006880217E
:101DC00089010143124801601248006810218843CC
:101DD000104908601048114908601348006812490A
:101DE0000860704780B50E4800680E498842FAD3F3
:101DF0000B48006880098005800D00F0ABF80BA24D
:101E00000CCA00F0BFF800F07FF902BD7440044036
:101E10008080044038820440010B010000C0014072
:101E200010C00140FFFFFF7F0CC00140676666667F
:101E300066F63440034872B6AA210160552101605C
:101E400062B670470840004000B538483849D12292
:101E5000384B1A60D122384B1A6001229823CA509D
:101E600080228A5880235B01134380310B608021DC
:101E7000C1600021416017210160F22181620721C8
:101E800081600321C160017A06220A40002AFAD14A
:101E90004321416080208003284908608020284930
:101EA0000870802080032749086000BD38B51F4CAA
:101EB000207A0E210140022904D004290ED00C29D9
:101EC0000CD024E00F252800451E002805D0210055
:101ED0001D48FEF79DFC0028F5D11CE01B484089F9
:101EE0001A49C988884203D269461848FEF790FC0F
:101EF0002068009000991548FEF79AFC00983B284E
:101F000004D11348808E401C1149888603E0606923
:101F100000902068009031BD80B504490A7D5206CA
:101F200001D5FEF775FC01BD0000000000800040F7
:101F300000800440A8400440A440044080E200E047
:101F400015E400E000E100E0FC010010F0010010E9
:101F5000EC000010010007D5F446404200F004F800
:101F60000122D2071143604742221201D21E0042D1
:101F700007D002D4521E0018FCD5C10A4005120534
:101F800089187047F0B50E005E400125ED072E4020
:101F9000B446AE0ADF184C18F44208D2F7420ED20B
:101FA000640D01D07F0D12D100206146F0BD05D136
:101FB000F74201D87F0D05D10020C143F0BDFBD110
:101FC000640DF9D00020C143490549088FE0E419A8
:101FD000C902DB0229432B43DB0A460DC002314311
:101FE0008E4630B487B295B27D432E0CADB2140C40
:101FF0007C43A419260C240425439CB27C43A419D9
:10200000190C7943270CC919A4B20F043C43090CDD
:10201000000C97B247432E0CBE193543ADB2170CD6
:102020004743360CBF19A6B2BF193E043543240CF2
:102030003E0C36199FB24743BF19BCB23E0C8919FA
:102040001F0C47437F183E043443390C704680B25E
:1020500097B247432E0CBE193543ADB2170C474318
:10206000360CBF19A6B2BF193E043543240C3E0CF2
:1020700036199FB24743BF19BCB23E0C89191F0CD9
:1020800047437F183E043443390C77463F0C90B2E7
:1020900078432E0C80190604ADB22E43050CA0B275
:1020A0002D18120C7A435019020C80B2240CA4187B
:1020B0009AB27A43121914042043120C89181B0C8B
:1020C0007B43C91830BCEF0A394203D1B6194041ED
:1020D0004941641E6F12BF0DE41B0BDBFF19BC42AC
:1020E00011DA240500274208AE4178416141664675
:1020F0003143F0BD641C05D1401C6141CF0201D3C6
:102100004908F4E750E75DE7F4464A1805D200F0C5
:102110000DF801D580174008604700F007F801214D
:10212000C907884200D9080040426047400DC902F3
:1021300008430121C9070843520D40210901521AE1
:10214000521C06D452421F3201D4D0407047C017EF
:102150007047002070470000820305001016001031
:10216000C82700004206020290160010482800000E
:10217000429C0202921600104A2800004A9C020269
:10218000941600104C280000629C02029616001063
:102190004E2800006A9C0202981600105028000089
:1021A0007A9C02029A16001052280000C2DA02023B
:1021B0009C1600105428000002E102029E16001036
:1021C0005628000042E70202A0160010582800001E
:1021D00082ED0202A21600105A28000002FA020242
:1021E000A41600105C280000929C0202A6160010A3
:1021F0005E2800009A9C0202A816001060280000C9
:10220000B29C0202AA16001062280000BA9C0202C8
:10221000AC16001064280000CA9C0202AE16001022
:1022200066280000CADA0202B01600106828000012
:102230000AE10202B21600106A2800004AE7020210
:10224000B41600106C2800008AED0202B6160010C9
:102250006E2800000AFA0202B8160010702800006A
:10226000E29C0202BA16001072280000EA9C0202E8
:10227000BC16001074280000029D0202BE16001059
:10228000762800000A9D0202C0160010782800007F
:102290001A9D0202C21600107A280000D2DA020249
:1022A000C41600107C28000012E10202C6160010BD
:1022B0007E28000052E70202C816001080280000A5
:1022C00092ED0202CA1600108228000012FA0202E1
:1022D000CC16001084280000329D0202CE16001099
:1022E000862800003A9D0202D016001088280000BF
:1022F000529D0202D0160010882800005A9D02024A
:10230000D21600108A2800006A9D0202D41600101E
:102310008C280000DADA0202D61600108E2800009F
:102320001AE10202D8160010902800005AE70202B3
:10233000DA160010922800009AED0202DC16001056
:10234000942800001AFA0202DE16001096280000F7
:10235000829D0202E0160010982800008A9D020269
:10236000E21600109A280000A29D0202E416001056
:102370009C280000AA9D0202E61600109E2800007C
:10238000BA9D0202E8160010A0280000E2DA02025C
:10239000EA160010A228000022E10202EC1600104A
:1023A000A428000062E70202EE160010A628000032
:1023B000A2ED0202F0160010A828000022FA020284
:1023C000F2160010AA280000E2150304F616001009
:1023D000AE280000729C0304FA160010B228000018
:1023E000C29C0304FE160010B6280000129D0304D0
:1023F00002170010BA280000629D0304061700109F
:10240000BE280000B29D03040A170010C228000075
:10241000C1F3050618160010D0270000C9F3050601
:1024200020160010D8270000D1F30506281600104A
:10243000E0270000D9F3050630160010E827000059
:10244000E1F3050638160010F0270000529C05063F
:1024500040160010F82700005A9C05064816001088
:1024600000280000A29C0506501600100828000055
:10247000AA9C05065816001010280000F29C0506BC
:102480006016001018280000FA9C05066816001057
:1024900020280000429D0506701600102828000024
:1024A0004A9D05067816001030280000929D05060A
:1024B00080160010382800009A9D05068816001026
:1024C00040280000701C20080E170010C6280000CD
:1024D000C01C20084E17001006290000F00F20082D
:1024E0002E170010E628000080B59B4800689A4926
:1024F0000860012800D029E198480078022845D1D9
:102500000020974800680068F021490088420CD1FB
:1025100000F049F99248006800688E4908609048C8
:102520000068001D8E49086029E08D480068006839
:1025300046280CD100F030F98948006800688549C8
:10254000086087480068001D8549086017E08448D6
:1025500000680068CD214900884210D18148006898
:10256000C00AC0B200280AD07D48006800687949D6
:1025700008607D487A490860012078490870022087
:1025800073490860012072490860DFE073480078F1
:1025900001285FD1754800680068402810D100F01C
:1025A000FBF87248006800686A4908607048007863
:1025B000C0B240086E4908706E486C49086042E03D
:1025C0006D48006800680A2810D100F0E5F86A48F4
:1025D000006800685F49086065480078C0B240083C
:1025E000634908706548644908602CE064480078D5
:1025F000411E634A1170C0B200281BD000F0D3F80E
:102600005B480078C0070AD55848006800685149FF
:10261000086056480068001D5449086013E0564899
:10262000006800684B49086053480068001D524923
:10263000086008E0002049490870082050490870E7
:1026400001204449086002204149086001204049B6
:1026500008607BE041480078002876D10020494896
:102660000068006809280CD100F096F84548006819
:1026700000683849086043480068001D4149086007
:102680005CE040480068006837281AD13548006887
:10269000C00A3D490978C9B249083B4A1170C0B225
:1026A000002805D038480078802101433648017061
:1026B0003448006800682749086034483149086098
:1026C0003CE02F480078411E2D4A1170C0B200280E
:1026D0000CD000F068F82B48006800681D490860BD
:1026E00028480068001D2749086027E0284800782E
:1026F000401C2749087026480078072806D1642026
:102700001649087000202249087014E0002013497F
:10271000087001200F4908601E4840891D49C9887A
:10272000884203D218491B48FEF772F81648017810
:102730001848FEF77DF80820114908700220044966
:10274000086001200249086000E000BF01BD0000F0
:1027500004400140184001400040014008020010C0
:10276000B800001000200250AC00001098000010CB
:10277000281900108C000010940000108400001034
:1027800009020010A8000010291900109C00001078
:102790002A19001078000010084800680849014014
:1027A000064801607047054800688021090101431F
:1027B0000248016000200349086070470080025011
:1027C000FFF7FFFF0020025000000000D7000000CC
:1027D00001F718000C00000002F71800900000003C
:1027E00003F718000B00000004F718009900000020
:1027F00005F718000200000000000000D7000000EC
:1028000000000000D700000000000000D70000001A
:1028100000000000D700000000000000D70000000A
:1028200000000000D700000000000000D7000000FA
:1028300000000000D700000000000000D7000000EA
:1028400000000000D7000000046800AC00AC019D4F
:10285000019D019D019D019D00AC08150A7700AC0A
:1028600000AC019D019D019D019D019D00AC0815DD
:102870000A7700AC00AC019D019D019D019D019D69
:1028800000AC08150A7700AC019D019D019D019DDA
:10289000019D00AC08150A7700AC00AC019D019DBC
:1028A000019D019D019D00AC08150A770000E90318
:1028B00067000500F6000500F6000500F6000500BB
:1028C000F6000500F6003131313131000000000022
:1028D00000000000000000000000000000000000F8
:1028E00000000000002642415345205359535445EF
:1028F0004D2056455220303330300000000000009B
:102900000000000000F531313131310000000000DD
:1029100000000000000000000000000000000000B7
:10292000000000000026000000000100020001007D
:102930000300010002000100040001000200010088
:102940000300010002000100050001000200010077
:102950000300010002000100040001000200010068
:102960000300010002000100060001000200010056
:102970000300010002000100040001000200010048
:102980000300010002000100050001000200010037
:102990000300010002000100040001000200010028
:1029A0000300010002000100070001000200010015
:1029B0000300010002000100040001000200010008
:1029C00003000100020001000500010002000100F7
:1029D00003000100020001000400010002000100E8
:1029E00003000100020001000600010002000100D6
:1029F00003000100020001000400010002000100C8
:102A000003000100020001000500010002000100B6
:102A100003000100020001000400010002000100A7
:102A200003000100020001000000ECD800FFFFDFFE
:102A3000110000000000EBD800FFFFDF12000000D3
:102A40000013F7F8FFFFFFDF010000000012F7F8A6
:102A5000FFFFFFDF020000000000ECF8FFFFFFDFD8
:102A6000030000000000EBF8FFFFFFDF04000000A0
:102A7000000000C0FFFFFFDF05000000000000C0F5
:102A8000FFFFFFDF06000000000000C0FFFFFFDFC8
:102A900007000000000000C0FFFFFFDF080000008B
:102AA000000000C0FFFFFFDF09000000000000C0C1
:102AB000FFFFFFDF0A000000000000C0FFFFFFDF94
:102AC0000B000000000000C0FFFFFFDF0C00000053
:102AD000F8B4016842184468610851188368E40733
:102AE00001D54C461B190C3000908A422BD015782A
:102AF000521C03262E4002D11678F61C521C2809BF
:102B00000F2807D110780F30521C03E01778521CA1
:102B10001F705B1C761EF9D10028E6D01678521C77
:102B2000AF0803253D40032D01D11578521C2D021D
:102B300075195D1B801CD8D02E786D1C1E705B1C17
:102B4000401ED2D0F8E70098F2BC704700B512489A
:102B500013498E2292008150002100E0491C642913
:102B6000FCD30121016423218160012181670021BF
:102B700041640121416409498E2292008150017B08
:102B8000C907FCD503210167002141670121416785
:102B900004498030016000BD0080044018ED000051
:102BA00098ED00005F80010010B5FFF7CFFFFFF741
:102BB000C1F8FFF749F9FEF74BFBFFF7D5F8FFF730
:102BC000DDF8FFF7F7F8002408E02000C0B2FFF7B7
:102BD00096F82000C0B2FFF75BF8641C0C2CF4D30D
:102BE0000B20FFF774F800F009F8FFF739F80248F6
:102BF00000688047F9E700BF041900100948002168
:102C0000016009494160002181600849084A11605A
:102C100007210160704707480068401C05490860AB
:102C20007047000010E000E07FBB00000000C0C063
:102C300020ED00E02019001040160010481600108A
:102C40009616001098160010501600105816001016
:102C5000AA160010AC1600106016001068160010BE
:102C6000BE160010C0160010701600107816001066
:102C7000D0160010D2160010801600108816001012
:102C8000E4160010E616001070B40121002313E0D2
:102C90000468001D0C4202D04D466D1E641923606D
:102CA000241D121F042AFAD22500960701D523807D
:102CB000AD1C0A4000D02B700268001D002AE7D12D
:102CC00070BC7047B82F0000C42F000070300000A7
:102CD000D02F000078300000DC2F0000E82F00002B
:102CE000F42F0000003000000C300000183000000D
:102CF00024300000303000006A08000000000000AE
:102D0000D7010000E501000091010000BD030000B3
:102D10000F0300002B0300001D0300003703000019
:102D20007D030000590300008B020000CB0200006D
:102D30003F03000010B5074979441831064C7C4424
:102D4000163404E0081D0A68891888470100A1426A
:102D5000F8D110BD08000000240000002DFFFFFF87
:102D600024110000100800100000000065FDFFFFA6
:102D700042030000C60100000000001050616765BA
:102D80004E202575204861766520556E636F7272FE
:102D90006563742043524331360D0A005061676504
:102DA0004E20257520486176652056616C69642047
:102DB00043524331360D0A0050726F6772616D6D78
:102DC00020506167654E20257520737563636573B8
:102DD000730D0A0000F00BF8002801D0FFF7AAFFDE
:102DE0000020C046C046FFF7DFFE00F002F80120D9
:102DF000704780B500F002F801BD00000746384674
:102E000000F002F8FBE7000080B5C046C046024A69
:102E100011001820ABBEFBE7260002003C466C61A7
:102E20007368205772697465204572726F723E0D27
:102E30000A0D0A006F70697374617274726563655C
:102E40006976652025733B0D0A0000003C626F6FB8
:102E5000747374617475733A2025733E0D0A0D0AFC
:102E6000000000003C626F6F7477726974653A20ED
:102E700025732C25733E0D0A0D0A00003C53656333
:102E8000746F7220457272617365643E0D0A0000B2
:102E90003C426C6F636B20457272617365643E0DDA
:102EA0000A00000030313233343536373839414288
:102EB00043444546000000003C57524F4E472049CE
:102EC0004E5055543E0D0A0D0A0000003C4C4F4137
:102ED0004420504152414D3E0D0A0D0A00000000B1
:102EE0003C5341564520504152414D3E0D0A0D0A7A
:102EF000000000003C44454641554C54205041528E
:102F0000414D3E0D0A0D0A003C626F6F746572619F
:102F100073653A2025733E0D0A0D0A0080300000CB
:102F2000A4300000A830000088300000903000007D
:102F30006D616B6570686F746F2025753B0D0A00BD
:102F40003C4352432056616C3A2025783E0D0A00DE
:102F50003C5645523A2025733E0D0A0D0A000000EA
:102F60006D616B6570686F746F3B0D0A0000000047
:102F700043414E205245494E4954000043414E20A2
:102F80004552524F5200000043414E20494E495491
:102F9000204F4B00702F00007C2F0000882F000076
:102FA0003C25752C2025753E0D0A0000736875744C
:102FB000646F776E3B0D0A00676574706172616DB6
:102FC00020000000736574706172616D2000000064
:102FD000626F6F7477726974652000006D616B6554
:102FE00070686F746F3B00006F7069737461727406
:102FF0003B00000063707572657365743B000000F0
:10300000626F6F7465726173653B0000626F6F740D
:103010007374617475733B006C6F6164706172618D
:103020006D3B000073617665706172616D3B0000FD
:10303000727374616C6C70726F663B00204E6577C2
:103040002056616C3A2000002044656661756C74FE
:103050003A200000C046C046C046C046FFF7BAFE50
:1030600001020408102040800D0A0D0A0000000033
:1030700054504153533A20006765747665723B00A3
:103080004552522C3000000046554C4C00000000C8
:10309000454D5054590000002056616C3A20000004
:1030A000550100004F4B00004552520000100A0A23
:1030B000FEE7D20001F00302030000010001F13F2E
:1030C000184002DC18001020100117003C09120AF9
:1030D000041206041240041003840000108C042122
:1030E00010120904123704129C1012E03A12460C16
:1030F000129A0812AC10631010447001FF03F450D0
:1031000050010700C00C12060C731014245190716A
:1031100097610952020852030852040852050852E6
:10312000060852070852080842094143010A07F2FB
:1031300010000110037D170000CB0410037D180060
:1031400000A30412EB0412FF04100337190000530C
:1031500004129F0412E104F004214D1A00002D1BFB
:10316000301011506172616D2049443A2534752543
:103170007325240D0A3C0A740E2025243E0D0A0DE9
:103180000A00737875690070171070010010080C40
:053190000001076408C6
:040000050000305572
:00000001FF
