:020000040000FA
:20000000001F0010791700005B1400005D1400005F1400006114000063140000AC63FFEFE5
:20002000000000000000000000000000651400006714000000000000691400000304000048
:200040006D1400006F14000071140000731400007514000077140000791400007B14000060
:200060007D1400007F14000081140000831400008514000087140000891400008B140000C0
:200080008D1400008F1400009114000093140000951400001705000000000000000000000B
:2000A000991400009B1400009D140000000000009F140000A1140000A3140000A51400005B
:2000C0006E573CF15A23D87EC2BD9E4DE73B68B36351E1B7B979379E000000000000000061
:2000E000000000000000000000000000000000000000000000000000000000000000000000
:200100000000000000000000000000000000000000000000000000000000000000000000DF
:200120000000000000000000000000000000000000000000000000000000000000000000BF
:2001400000000000000000000000000000000000000000000000000000000000000000009F
:2001600000000000000000000000000000000000000000000000000000000000000000007F
:2001800000000000000000000000000000000000000000000000000000000000000000005F
:2001A00000000000000000000000000000000000000000000000000000000000000000003F
:2001C00000000000000000000000000000000000000000000000000000000000000000001F
:2001E0000000000000000000000000000000000000000000000000000000000000000000FF
:200200000000000000000000000000000000000000000000000000000000000000000000DE
:200220000000000000000000000000000000000000000000000000000000000000000000BE
:2002400000000000000000000000000000000000000000000000000000000000000000009E
:2002600000000000000000000000000000000000000000000000000000000000000000007E
:2002800000000000000000000000000000000000000000000000000000000000000000005E
:2002A00000000000000000000000000000000000000000000000000000000000000000003E
:2002C00000000000000000000000000000000000000000000000000000000000000000001E
:2002E0000000000000000000000000000000000000000000000000000000000021436587AE
:200300000121C006C00E81407848016070470121C006C00E8140BA48016070470121C00615
:20032000C00E8140B7480160704780B570480068202188436E49086000206E490860002038
:20034000009003E000BF0098401C00900098C828F8D3012068490860012068490860002000
:200360006649086001206549086064480068C007FBD52320624908605D48006880218843B5
:200380005B4908605F480068C007FBD503205E49086001205D49086000205C4908600120FC
:2003A0005A49086059480068C007FBD50120C149086001BD10B50400002C00D1012492487C
:2003C000210000F0F3FF9149884203D20021904A116009E08F49884203D201218C4A11606C
:2003E00002E002218A4A1160E1B2B24A116010BD80B5FFF79AFF0120FFF7DCFFB0490860CF
:2004000001BD80B584480068401C8349086083480068401C81490860AA480068002804D00E
:20042000A8480068401EA74908600020C043FFF775FF01BD80B50A000021BA4B1960002164
:20044000002301F031F89C4A002301F046F8002903D1002801D101200021401E0002000A84
:20046000964908600020C043FFF74AFF0720AD49086001BD80B59349086001E000F058F9F5
:20048000904800680028F9D101BD80B51848006843218843164908608B4800688021090292
:2004A0000143894801602320884908600220884908600F208749086000208749086001200F
:2004C000854908609848994908600320A149086000F001F801BD72B6AA209F4908605520E9
:2004E0009D49086062B670470000000000E100E03882044020800440408004404480044030
:20050000088004400C800440708004407480044000B572B6FEE780B58C480068C0B24008E6
:200520004007400FC0B2032823D1894800789E21084207D089480078694608701520FFF7D0
:20054000EDFE5CE0C00757D5844800788449854A1268885483480068401C824908608148C0
:2005600000688021C900884246D300207D49086042E0C0B2022814D1784800787849794A19
:200580001268885477480068401C76490860754800688021C90088422ED3002071490860BF
:2005A0002AE0C0B2062827D0C0B2012824D168480078800620D56C4800686C49096888425B
:2005C00014D06B4868490968405C67490968491C654A116061490870634800688021C90081
:2005E000884209D300206049086005E061480068022188435F4908601520FFF78FFE01BDBA
:2006000080E100E080E200E0006CDC02012D310110C00340015A6202E81A0010EC1A0010B3
:2006200010B50C005449096807229143524A11605149096801220A434F490A604F4909684B
:20064000072291434D4A11604C49096801220A434A490A601A214A4A11601A2100F0A6FE13
:200660008321484A11700009210000F09FFE010A404A11608021490000F098FE37480170A6
:200680000320404908700720304908601520FFF737FE00203349086000203B49086000209E
:2006A0003249086000203049086005203149086010BD00007880044040420F0014E000E0E1
:2006C000E01A0010E41A00108080044024800440D0800440D8800440D480044000B572B631
:2006E00024490968890708D42249096802220A4320490A601949087011E01D491B4A126880
:2007000088541A480068401C18490860174800688021C900884202D300201449086062B641
:2007200000BD000010E000E08814000004400040364800680221884334490860344800686F
:20074000042188433249086030BF70470880004014800040004000400840004000800040BC
:2007600018120010F01A0010FC1A0010F81A00101816001004800040A4400440A840044087
:20078000988004400C800040F41A0010F2B584B00024002802D54742012400E0070000265A
:2007A00000E0761C0A2E12D23D0028000A2100F0FDFD070028000A2100F0F8FD30316846E3
:2007C00081550020694689194870002FE9D1684600F0B8FE0500002C07D02D20694648553C
:2007E00000206946491948706D1C0020691E05E06A46125C049B5A54401C491EA842F7D319
:2008000000200499485505B0F0BD00000080034010ED00E080B5C0B2FFF760FF01BD10B5FD
:20082000040003E02078FFF7F5FF641C20780028F8D110BD10B504003020FFF7EBFF7820E8
:20084000FFF7E8FF6848210F405CFFF7E3FF6648210E0907090F405CFFF7DCFF6248210D1D
:200860000907090F405CFFF7D5FF5F48210C0907090F405CFFF7CEFF5B48210B0907090F98
:20088000405CFFF7C7FF5848210A0907090F405CFFF7C0FF544821090907090F405CFFF73C
:2008A000B9FF51482107090F405CFFF7B3FF10BDE0B56946FFF76AFF6846FFF7B0FF07BDDC
:2008C00010B50C00002801D0FFF7A9FF002C02D02000FFF7A4FF9848FFF7A1FF10BD10B5F1
:2008E0000C00FFF79CFF2000FFF7E2FF9248FFF796FF10BD38B50C001500002801D0FFF735
:200900008EFF002C02D02000FFF789FF2800FFF7CFFF8948FFF783FF31BD000000B59249FB
:20092000096812220A40022AF9D1C0B2A34908608D480068142101400429F9D19F48006813
:20094000C0B200BD96480068964901439448016001209B4908609B480068012101439948C3
:2009600001600020984908600120984908600120A04908600120A049086001209F490860EE
:200980009F4800688021C90001439D4801609D4800688021C90001439A4801600020AB49C2
:2009A00008600720A74908600220A74908600220A6490860704710B50300080011004A1E5D
:2009C00000290FD00100186848401B1D002101E04000491C2029F1D20028F9D54400A548F4
:2009E0006040F6E710BD0000C81600000A00D206D20EC906C90E4942C84170470A00D2063A
:200A0000D20EC906C90ED0417047F4B507004C680D68182615E029000220704304225043C5
:200A200038184068201AFFF7E9FF04006C402100082070433858281AFFF7E0FF05006540A9
:200A4000761E002EE7D17868201A009948603868281A00990860F1BDF1B586B00D0004261D
:200A60000F240020049015E02000310000F09EFC0421484301AF00902000310000F096FCFC
:200A80000421484301A908580002295D411800983950641E0020C0438442E5D1A848006821
:200AA0000699086001240DE00698042161434018001F0068A34909684018069904226243B8
:200AC0008850641C322CEFD3002400942700260025002AE0032106980422624380584019AC
:200AE0008019FFF783FF06990422624388500500A91901A804227A43805840198019FFF790
:200B000075FF01A904227A43885006000098401C0090641C2000322100F048FC0C007F1CA4
:200B20003800042100F042FC0F0000989628D1D307B0F0BD00000000C81700007CB50500A8
:200B40000E00022E0ED300240AE028680090686801902A0069467C48FFF757FFA41C083501
:200B6000B442F2D373BD00000C000440E0207A4908607A4800688021C90001437748016017
:200B80007748006877490140754801607047744909688022D2001040084371490860704742
:200BA00080800440400801006D4909688022D200104081436A4801607047000008000440E3
:200BC00094800440048004406C4004406040044080B50C480068634901400A480160B920B7
:200BE000FFF79CFE074800688021C90001430548016001BD64400440B04004407040044084
:200C000000800150FC3F015080B5574800685549014055480160AB20FFF780FE524800681D
:200C20008021C9000143504801600020009002E00098401C00900098B42189008842F7D36D
:200C400001BD000000000440100004400400044080B54548006843490140434801600420EF
:200C6000FFF75CFE404800688021C90001433E48016001BDB71DC10438B504003A4800686D
:200C800038490140384801600520FFF747FE002505E0FFF720FC0120FFF7ECFB6D1CA542C7
:200CA0000FD20020FFF73AFE00900098C007F0D42D4800688021C90001432B4801600120D2
:200CC00007E0294800688021C900014326480160002032BDF4B504000F001D00FFF794FF66
:200CE000002680204000474300983E181E4800681C4901401C4801600320FFF70FFE3000E7
:200D0000000CC0B2FFF70AFE300AC0B2FFF706FE3000C0B2FFF702FE04E00020FFF7FEFD24
:200D20002070641C2800451E0028F6D10E4800688021C90001430C480160FFF749FFF1BD1C
:200D40001002001014020010181A001080B5FFF77FFFFFF73DFF01BD5840044000800250C2
:200D6000FC3F0250FFFBFFFFFC3F015080B57F4A904701BD00B585B03222019202900391D8
:200D8000694601A8FFF7F2FF009805B000BD10B586B033240194029103920493FA218900C0
:200DA00000F004FB0590694601A8FFF7DFFF009806B010BD00B585B034230193029103926B
:200DC000FA21890000F0F2FA0490694601A8FFF7CDFF009805B000BD10B504008908002958
:200DE00003D02000FFF7AAFE241D10BD80B580208001C02252010021C943FFF7DCFD02BD0E
:200E0000F0B5C3B08024A4018020800101900026F6430025ED4301270020009019E0401CDE
:200E2000FF2808D821000C00641C097802AA125C9142F4D00027402229000198FFF7BBFDD3
:200E40000500019880214900401801900098401C0090009860281AD2FFF73DFB80235B0065
:200E600000220098C0218900411802A8FFF732FF8021490002A8FFF7AFFF4022310002A8AF
:200E8000FFF799FD0600002FD5D00020C8E7914800680090002E02D1012069460870002DD6
:200EA00002D1012069464870002F02D0012069468870009843B0F0BD10B50400002072B6C5
:200EC00021002000FFF756FF62B6002801D000200CE072B6220021007F480068FFF76AFF70
:200EE00062B6002801D0002000E0012010BD70B50500080014001E00002172B60100FFF74F
:200F000039FF010062B6002901D000200EE072B633002A00210070480068FFF738FF010084
:200F200062B6002901D0002000E0012070BD38B50224002508E021006848FFF7D0FC0A2074
:200F4000FFF798FA641C6D1C062D0CD2FFF7C3FA2000FFF7B1FF0028EDD121006048FFF7D1
:200F6000BEFC002000E0012032BD0000F11FFF1FF8B5FFF7DCFF002802D10020C04363E09A
:200F800002278025AD01002604E07F1C802040012D181036602E4FD200241BE0FFF79BFA6B
:200FA00080235B0000223019C021890041188C464C4980204000604308186146FFF78AFED6
:200FC0008021490047488022520062438018FFF703FF641C102CE1D380235B012A0039009D
:200FE0004048FFF784FF0400002C03D03E48FFF716FC02E03D48FFF712FC2800FFF71AFCC0
:201000003B48FFF70CFC002C02D10120C0431BE028003449002200E0521C8023DB009A42C2
:20102000B3D204235343C358042454430C59A342F2D00220C04307E0FFF7D8FE002802D0B6
:201040000320C04300E00120F2BD000080F3088880F309888F46704710B58020C000FFF70C
:20106000A3FD2448026824492448FFF743FC2048FFF7D5FB1E492248FFF722FCFFF72BFABE
:201080006420FFF7F7F90020C043FFF740F91520FFF73DF972B680204005802189010022D9
:2010A00006E004235343CB58042454430351521C302AF6D301209C4908609C489C49086027
:2010C00062B69C480168802080010068FFF7BEFF10BD0000D4170000E01A00108417000012
:2010E0008C17000018020010B4170000BC170000C8170000EC1A00103C1700000017000026
:201100005C16000010B5002424E0FFF7E4F98020C000FFF73CFDFA20FFF7ACF9FFF7DBF98F
:201120008020C000FFF740FDFA20FFF7A3F9FFF7D2F98020C000FFF72AFDFA20FFF79AF98F
:20114000FFF7C9F98020C000FFF72EFDFA20FFF791F9641C962080008442D6D3FFF7D8F9D0
:2011600010BD38B572B6FFF743F9714800688821490201436E480160FFF787F9FA218900D1
:201180006D480068FFF756F9E12149026A480068FFF746FAFFF7D6FBFFF7D8FDFFF7E6FCE6
:2011A0008020C000FFF7F3FC64496548FFF754FC62B66448FFF733FB63496448FFF780FB99
:2011C0005D4801686248FFF78AFB5E48FFF727FB6048006800906048FFF721FB0098C00765
:2011E00003D500215DA0FFF76BFB0098800703D500215B48FFF764FB0098400703D50021B5
:201200005848FFF75DFB0098000703D500215648FFF756FB0098C00603D5002153A0FFF723
:201220004FFB4848FFF7FBFA002405E0FFF753F96420FFF71FF9641C0A2CF7D3FFF7E4FCB6
:20124000FA208000FFF718FDFFF7C2FC00214848FFF736FBFFF7D4FD00904648026846497F
:201260004648FFF747FB68460078002844D044494448FFF725FB68464078002813D040491D
:201280004148FFF71DFB68468078002806D000213E48FFF715FBFFF7DFFE08E000213C4806
:2012A000FFF70EFB03E03B493748FFF709FB3AA13A48FFF705FB2F480568FFF759FE0400C7
:2012C0002C480068421B2C493448FFF713FB220033493248FFF70EFB012C06D131492F48D4
:2012E000FFF7EEFAFFF7B8FE1BE02F492B48FFF7E7FAFFF707FF14E026492248FFF7E0FA0E
:2013000068464078002806D01D491F48FFF7D8FAFFF7A2FE05E01F491B48FFF7D1FAFFF7D7
:20132000F1FEFFF7D8F8FCE7008004405F8001008080044004200000E01A001000020010ED
:20134000181A0010C8170000F01600008C160000301700003080044020170000504F520061
:20136000941700009C170000A417000053595300A0160000E81A00103C170000B416000070
:20138000601700004817000054170000DC16000074160000AC1700002E2E2E00101700001C
:2013A0006C170000CC170000D01700000022030A8B420BD203098B4219D243088B422ED22B
:2013C000411A00D20146524110467047FF2209023FD012068B4205D3121209028B4201D331
:2013E0001212090203098B4219D300E0090AC3098B4201D3CB01C01A524183098B4201D333
:201400008B01C01A524143098B4201D34B01C01A524103098B4201D30B01C01A5241C3083C
:201420008B4201D3CB00C01A524183088B4201D38B00C01A524143088B4201D34B00C01A9E
:201440005241884200D3401A5241CFD201461046704708B500F07EF808BDFEE7FEE7FEE7E3
:20146000FEE7FEE7FEE7FEE7FEE7FEE7FEE7FEE7FEE7FEE7FEE7FEE7FEE7FEE7FEE7FEE71C
:20148000FEE7FEE7FEE7FEE7FEE7FEE7FEE7FEE7FEE7FEE7FEE7FEE7FEE7FEE7FEE7FEE7FC
:2014A000FEE7FEE7FEE7FEE730B4434351435D18010C0C00130C5C432D1980B2434392B20C
:2014C00051430024C918644124040B04090C09195043C018694130BC7047124224D0994285
:2014E00028D970B500251B4202D00C00002109E00024012649186441944200D3A41A7641ED
:20150000F8D33100012601E0764109D2001864416D41A41A9D41F7D2A4185D41B619F5D374
:20152000300022002B0070BD1B42D8D108B500F013F808BD01D19042D3D202000B00002107
:2015400000207047010000E0491C0A78002AFBD1081A704770470000704770B40121002346
:2015600013E00468001D0C4202D04D466D1E64192360241D121F042AFAD22500960701D5AD
:201580002380AD1C0A4000D02B700268001D002AE7D170BC704730B401210268001D002A27
:2015A0000FD00368C318446808300C4202D04D466D1E64191D6825601B1D241D121FECD0F7
:2015C000F8E730BC7047000010B5074979441831064C7C44163404E0081D0A688918884727
:2015E0000100A142F8D110BD08000000280000006BFFFFFFE81800001802001000000000AF
:2016000097FFFFFF18000000B8EAFFFF000200100000000000F00BF8002801D0FFF7D4FFB7
:201620000020C046C046FFF79CFD00F002F80120704780B500F002F801BD00000746384685
:2016400000F002F8FBE7000080B5C046C046024A11001820ABBEFBE726000200535441523B
:2016600054204150504C49434154494F4E2E2E2E00000000464C415348204E4F54204D410B
:2016800054434820424F4F5400000000535441525420424F4F544C4F414445523A20000024
:2016A000434845434B20424F4F542F464C41534800000000424F4F542F464C4153482043A7
:2016C0004845434B454420003031323334353637383941424344454600000000464C41537E
:2016E00048204D4154434820424F4F5400000000524C3031205645522E20312E30000000D8
:20170000424F4F5420434F4D504C45542000000055504441544520464C41534820000000D0
:20172000524553455420534F555243453A20000046434C4B2056414C3A2000002041542089
:20174000286D53293A200000424F4F54204D454D3A200000464C415348204D454D3A2000CA
:201760004E4F5420454D5054590000005354415455533A2000000000C046C046C046C04673
:20178000FFF748FF654F4B3A200000006545523A20000000455854520000000057445452D9
:2017A00000000000424F445200000000454D505459000000774F4B3A200000007745523AC0
:2017C00020000000FFFFFFFF0D0A00004F4B00004552520000000000FFFFFFFFFFFFFFFF5B
:2017E000FFFFFFFFFFFFFFFFFFFFFFFFFFFFFFFFFFFFFFFFFFFFFFFFFFFFFFFFFFFFFFFF09
:20180000FFFFFFFFFFFFFFFFFFFFFFFFFFFFFFFFFFFFFFFFFFFFFFFFFFFFFFFFFFFFFFFFE8
:20182000FFFFFFFFFFFFFFFFFFFFFFFFFFFFFFFFFFFFFFFFFFFFFFFFFFFFFFFFFFFFFFFFC8
:20184000FFFFFFFFFFFFFFFFFFFFFFFFFFFFFFFFFFFFFFFFFFFFFFFFFFFFFFFFFFFFFFFFA8
:20200000900A001061690000C5690000C5690000C5690000C5690000C5690000367BFDEFC9
:20202000000000000000000000000000C5690000C569000000000000C5690000676500004A
:20204000C5690000C5690000C5690000C5690000C5690000C5690000C5690000C569000010
:20206000C5690000C5690000C5690000C5690000C5690000CD340000C5690000C56900001D
:20208000C5690000C5690000195E0000C5690000C56900006D4A0000C5690000C5690000FE
:2020A000C5690000C5690000C5690000C5690000C56900006D330000C5690000C56900003E
:2020C000564D3032206876320000000000000000303130362E30372E323031380000000076
:2020E00033B6F3E038BB317B33C1CA3706C07E1FA9BA8F07B4D73386E58AC44646787457EE
:2021000010B5864C002000F01FFD00208449086001F008F8002807D000228249002000F0BA
:2021200025FE0120A08011E006202056002804D07C4801F00FF80020A071A5482060A08830
:20214000002803D00020A080FA20A06010BD30B593B0974D0024012000F0F6FCD04801F021
:20216000E6F89C480068C0070CD501F069F9FA240020994908700121974801F041FE974991
:20218000087086E00620285600280DD0944CA879401EA87100209049087001218E4801F0E6
:2021A0002FFE8E49087074E001208B4908700121894801F025FE89490870002011908948FF
:2021C00000680002884909780143109119200F90864800680002B349097801430E911820B6
:2021E0000D90B14800680002B049097801430C9117200B90AE4800680002AE490978014396
:202200000A9116200990AC4800680002AB4909780143089115200790A948806A0002A94909
:2022200009780143069114200590A548006A0002A54909780143049113200390A048806941
:202240000002C449097801430291122001909C4800690002C0490978014300911123984892
:2022600080680002BD490A7802431021BC48007801F0F0F80120A861012028620120A86320
:20228000012028640120A86401202865844801F04BF82C6013B030BD10B5B24C022000F0A5
:2022A00053FCA088002804D00020A0803220206004E00020A0710020D849C88010BDF8B581
:2022C000A94ED74CB5880020B080032000F03CFC002D10D0E788D349200001F0ADFD210098
:2022E000CE4800F08DFC6D1E002DF8D1E088C11BCD4801F025FE01F003FDE088002801D00F
:2023000005203060F1BD80B5042000F01DFC01F0ABFCC6480149086201BD000024030010A9
:20232000041A00107C04001080B5052000F00CFC012335220721002002F070F902233622F2
:202340001121012002F06AF9032337221B21022002F064F9042338222521032002F05EF976
:20236000052339222F21042002F058F9062371224321052002F052F9072372224D2106204F
:2023800002F04CF9082373225721072002F046F9092374226121082002F040F90A2375221B
:2023A0006B21092002F03AF9FA20A149886201BD2C03001080B5062000F0C6FB9D499E4880
:2023C00000F01EFC9A48808E401E9949888601BDEFFE0000000005402E0D00102F0D00102E
:2023E000C4090000800B0010120D0010780B001080B5072000F0A8FB00208D498887062099
:20240000009001230C220021032001F0ADFE102000900223162201210D2001F0A5FE1A20C0
:202420000090032320220221172001F09DFE2420009004232A220321212001F095FE2E2040
:2024400000900523342204212B2001F08DFE422000900623482205213F2001F085FE4C2098
:202460000090072352220621492001F07DFE5620009008235C220721532001F075FE602004
:2024800000900923662208215D2001F06DFE6A2000900A2370220921672001F065FE01BD5A
:2024A00020000250FE0C0010700B0010EA0C0010680B0010D60C0010600B0010C20C001031
:2024C000900A00109A0C0010860C001080B5082000F03AFB012335220721002001F067FF5E
:2024E000022336221121012001F061FF032337221B21022001F05BFF0423382225210320A9
:2025000001F055FF052339222F21042001F04FFF062371224321052001F049FF0723722204
:202520004D21062001F043FF082373225721072001F03DFF092374226121082001F037FFB5
:202540000A2375226B21092001F031FF94483849086401BD720C00105E0C00104A0C0010EC
:20256000380C0010340300103C03001080B5092000F0EAFA3A200090012335220721002092
:2025800001F07EFF3B200090022336221121012001F076FF3C200090032337221B210220E3
:2025A00001F06EFF3D200090042338222521032001F066FF3E200090052339222F210420AB
:2025C00001F05EFF76200090062371224321052001F056FF77200090072372224D21062083
:2025E00001F04EFF78200090082373225721072001F046FF7920009009237422612108204B
:2026000001F03EFF7A2000900A2375226B21092001F036FF62480649886401BDF40200101A
:2026200018030010746900000C03001088130000240300107C0400107004001080B50A202E
:2026400000F082FA754802F0C2F8754A0CCA8B4201D1824207D0724A03C2083A0522704834
:2026600003C802F099F86F4802F0B1F86E4A0CCA8B4201D1824207D06B4A03C2083A06220E
:20268000694803C802F088F8684802F0A0F8684A0CCA8B4201D1824207D0654A03C2083A9A
:2026A0000722634803C802F077F8624802F08FF8614A0CCA8B4201D1824207D05E4A03C2CF
:2026C000083A08225C4803C802F066F85B4802F07EF85B4A0CCA8B4201D1824207D0584A6D
:2026E00003C2083A0922564803C802F055F8554802F06DF8544A0CCA8B4201D1824207D05E
:20270000514A03C2083A0A224F4803C802F044F84E4802F05CF84E4A0CCA8B4201D18242AE
:2027200007D04B4A03C2083A0B22494803C802F033F8484802F04BF8474A0CCA8B4201D1B5
:20274000824207D0444A03C2083A0C22424803C802F022F88E4802F03AF88E4A0CCA8B4245
:2027600001D1824207D08B4A03C2083A0D22894803C802F011F8884802F029F8874A0CCAC0
:202780008B4201D1824207D0844A03C2083A0E22824803C802F000F801488149086501BD3D
:2027A000E70300001CB50B2000F0CEF968460021002206C008387B4804687B480068022801
:2027C00015D10120784908600421774801F018FB76490870012069460870684644700020E0
:2027E000694688700F21684601F05EFA11E06E480068012803D06C480068002809D10020C2
:2028000069490860D720694908700F21684601F04BFA6748A749886513BD0000BE0D001032
:2028200060020010DE0D001068020010FE0D0010700200101E0E0010780200103E0E0010F2
:20284000800200105E0E0010880200107E0E0010900200109E0E001098020010F8B50C2053
:2028600000F072F901F0EFFF0700012001F0FFFF0600022001F0FBFF0400052001F0F7FFE4
:20288000072001F0F4FF032001F0F1FF05008A4807600421884801F0B3FA8849087088483F
:2028A00006600421864801F0ABFA86490870864804600421844801F0A3FA84490870844820
:2028C00005600421824801F09BFA82490870794866214056012828D17F48874221DB00202F
:2028E0007E49087000F03AFD7D480078401C7C4908703B007A4802787A497B4801F09CFA18
:2029000077480078012801D101F0E0FF7448007805281CD17548674908600020744908703D
:2029200015E000206E49087011E0624866214056022809D16F496C4801F07EFA00F00AFDCB
:2029400001206B49087002E00020654908706A48874219DA61480078002811D13A0067497F
:20296000614801F069FA00206549087002206049087064484F49086601205849087006E0FF
:202980005A484C49086602E058484A490866F1BDBE0E0010A0020010DE0E0010A80200101D
:2029A00024030010500B0010580B00105C0B00105FEA0000F0B583B03E4C53480090534F13
:2029C000534D02F011F872B65248066800205149086062B6002001900EE0002008600120AA
:2029E000A188002901D1002802D0E07900F0CBF80198401C0190083401980D280DD200201E
:202A00002100002EECD00A68002AE9D00A689642E3D20A68921B0A60E2E7002008E00022DB
:202A20000A600121009A1171401C0099083100910A280CD20099002EF6D00A68002AF3D033
:202A40000A689642EBD20A68921B0A60ECE7002005E000220A6001212971401C08350A28FB
:202A60000CD22900002EF8D00A68002AF5D00A689642EED20A68921B0A60EEE7002005E08B
:202A800000220A6001213971401C08370A280CD23900002EF8D00A68002AF5D00A68964259
:202AA000EED20A68921B0A60EEE70F4802F014F8F7BD000024030010280B00102C0B00102E
:202AC000100C0010140C0010180C00101C0C0010200C0010240C00101D250000101A001036
:202AE0000F1A00106C6800007C040010E70300008A0300107C68000028230000AC6800006F
:202B0000111A00102F75000000190010501900108C030010001A00102C482D490978415C63
:202B20002A482C4AC9B2525C805CC9B2C900C0B208182949087029482749097804225143CC
:202B4000405827490860704700B52249C0B2C210895C244AC0B243075B0FD25C91431D4A08
:202B6000C0B2C310D1541B49C0B2C210895C002908D1174909781B4AC0B2C010105C8143A4
:202B80001348017000BD12490978164AC0B2C310D25C0A430E490A700E49C0B2C210895C5F
:202BA000104AC0B243075B0FD25C0A430949C0B2C0100A5470470C49C0B20422424389581E
:202BC000064AC0B204235843115070477C6300000D1A0010F41900100E1A0010DC030010FF
:202BE000FC1900106C6900001404001000B5BFF34F8F9948B3490860BFF34F8F00BFFDE7F6
:202C0000F8B505000F00954E01207070FFE77078002832D09949280001F080FF0400002871
:202C20002BD03078002801D1032C24D10E2C02D3012093498880032C13D202236A460620B0
:202C4000011B280001F096FF2100A1408842DED1009800F04BFA00900028D8D00098401E0C
:202C60000090009A390028000500B24B042060431B5828009847072CC9D3F1BD70B582B0B2
:202C80000600914C754D0020009000E0641C6946300001F045F9207800998842F6D0009818
:202CA0003B280DD1002068702078002808D12878002800D100BF0120287084487049086044
:202CC00073BD80B508001100B34A01F091FF01BDF7B58AB001AD0A9800680A998988405C4C
:202CE00020283DD194480C990C2251434018476801784907490F00918678761E009C083418
:202D000001A90A9801F00CF90098002800D11F24009B2A0021000A9801F02CFF05281FD2DB
:202D20000024E443052E04D204203100401AC000C4402868844213D33100280001F060F8EE
:202D4000B85503E0287838706D1C7F1C3000461E0028F7D1914A0C990B9801F049FF03E054
:202D60008F490B9801F068F80DB0F0BD70B506000C00002500E06D1C0A2D12D289480088E4
:202D80000121A9400842F6D0220029006A4800F021FA0028EFD100222100300000F050F87D
:202DA00003E08149200001F047F870BD38B50C002100002001F065FF002500E06D1C0A2D95
:202DC00011D2784800880121A9400842F6D022002900594800F02EFA0028EFD173492000E5
:202DE00001F02AF803E0C049200001F025F831BD80B508006E4AC74901F01EF801BD80B5B9
:202E000008006C4901F018F80120C349087001BD80B50220684908600521674800F0F0FF6D
:202E20006649087001201649886501BD80B56449C54801F001F801BD80B5FFF7D7FE01BDEB
:202E400010B50C002100FF2000F0A0F9BF49200000F0F2FF10BD00000400FA05041A0010D1
:202E600080B50800AD49AE4A9278002A00D0091D0A68C44900F0E0FF01BD00008865000004
:202E80002403001038B50C00B14DAF49002001F0F8FEAD49012001F0F4FEAB49032001F003
:202EA000F0FE2100032001F00EFF002803D001209B4988702D1D2A68C249200000F0BCFF38
:202EC00031BD00000CED00E05E0D001060EA0000F8B506000F00924C00256946300001F0D1
:202EE0001FF809E068460178A74801F029F86D1C6946300001F014F8684600783B2802D0EA
:202F0000EDB2FE2DEED1684600783B2811D1AE49380000F091FF00206070EDB22900AB4863
:202F200001F00EF8FD21AA4801F00AF80120BF498861F1BDCC65000030500000F0B585B04C
:202F40000400774F6E4600253100200000F0E8FF05E06D1C761C3100200000F0E1FFEDB2E6
:202F60000F2D0BDA30783B28F3D1002030706A46AF49754800F060FF0020787078780028CD
:202F800007D0A088401E61890140A180E088401CE08005B0F0BD0000AC6900005469000030
:202FA000CC670000B4690000E067000048670000D0200000CC660000580B00105C0B0010BF
:202FC0009C680000F7B5C6B0B34F03AC241D03AD534EB2482860012348AA0821469801F0F8
:202FE000C9FD082818D1489800BA2060082310226946C91D489800F06FFF2A68082168463F
:2030000000F0E4FE286020000400241D03A98422520089188842DED13620009028684899DC
:20302000884258D1049800BA4890082310226946C91D489800F050FF99480290B07800289B
:2030400049D04898002811D103A896494418964D02E0B078401CB07020000400241D290090
:203060000D002D1D006809688842F2D0B07803282EDB4898602827D24898F17888421FD1D4
:20308000822292004898C02189004018010203A801F0D4FD00280FD0F078401CF0703F1F5F
:2030A0000020029081486149086048985F2812D101205E4908600EE03120694648720AE077
:2030C00034206946487206E032206946487202E03320694648726B463A687549479800F014
:2030E000ABFE49B0F0BD0000F467000000B50100704A01200C234343D35A9BB2DB089BB236
:20310000994204D0401CCA28F4D3002000E0401C00BD00008C680000111A001064680000D7
:20312000041A001038B5634C002501E06D1C0C34CA2D07D2A178606800F062FE0028F5D008
:20314000012000E0002032BD7C040010086800005868000010B5040057480068401C5649D4
:20316000086055480068554948600421524800F047FE51490871002221000020FFF716FE28
:2031800010BD0000606700001803001030B54949002209E08C68E45C4D68EC541C00631E28
:2031A000002CF7D1521C0C31CA2A09D2FF2801D1CB7800E00300CC789C42F3D18B78EDE7C5
:2031C00030BD00001C680000306800000C0300100003001070B5C2B005006C460834CEB2AA
:2031E000374A0902684601F029FD2C4A80214900200000F0EBFD002801D0002013E00020FA
:2032000009E022786B685A54641C491CAA789142F7D3401C0C35CA2804D2E978B142F8D184
:203220000021F3E7012042B070BD0000240300104468000030B5C3B00C006A460832E1B28F
:2032400008E04568ED5C15705B1C521C8578AB42F7D30C30C378994204D3C3788B42F8D178
:203260000023F3E70D4AFE216846083000F0AEFD80B240BA69468322520088528222920078
:203280002102684601F0DAFC002801D1002000E0012043B030BD000060680000FFFF0000D5
:2032A0002C300000C8000000E0200000911300007867000030500000900A0010EC19001028
:2032C000090200000121C006C00E814036480160704780B535480068082101433348016073
:2032E0000020334908603348006801210143314801600020304908602C4800682B490860EE
:2033000000202E49086000202D49086000202D4908602D4800688021C90001432A48016054
:203320001D20FFF7CFFF01BD2849016070470168264A4A40026070471E480068082101438E
:203340001C48016000202249086070471F4821490860704700202049086070471B481E499C
:203360000860704711201D490860704780B51C480068400509D501201A49087001211948D5
:2033800000F03EFD1849087008E00020154908700121144800F034FD134908701348006815
:2033A0001349086001BD000000E100E0008002508C40044000800350844004400480025037
:2033C0000C8002501080025008800250FF0F0000AC40044020000350040003505081044036
:2033E000FC3F0250300D0010310D0010148002501C8002502C482D49096808220A432B498B
:203400000A602B490968802292020A4328490A60412101600221C022520081502549C16085
:20342000002181610B2101608020800122490860402022490870802080012149086070471B
:2034400000B5194801680122914301600178C907FCD400BD0EB470B51A4904AC124A002346
:203460001BE00D7A2668B54201D160680834F02555628D889562CD88D5620D8805431563B6
:203480004D88060C2E4356630F4D95630D7A1562156A2D04FCD40C315B1C1B2BE1D3039800
:2034A00070BC04B000470000000005400480044080800440833A000080E200E00DE400E0C4
:2034C00000E100E0F860000088140000F8B5454F454C46480090464E19E0062030560028E6
:2034E00015D1A089A8210902884210D1607A4149097888420BD16079B07120000C380078DD
:203500003D49087000203D4908700120B0803869002800D190E3202808D22F218422B95010
:2035200080217850802179580904FBD400990968009A5268D204D20C15040D4310285FD0F2
:2035400000D26FE3122800D1EEE000D2A2E0142800D1A3E100D231E1162800D132E200D2B0
:20356000E6E1182800D1C9E200D275E21A28B4D000D20DE31B2800D054E3062030560028F9
:203580002ED01D48017820000C380078814227D10120B080012500E0ED1C102D0FD2615D7C
:2035A000AB4800F0CDFC605D3B2804D113480078401C12490870E807EED46D1CEDE7B07931
:2035C000401EB07106203056002809D1B0890B4909784018B081084801789E4800F0B0FCDC
:2035E00095E700BF000005409C0005409000054034030010380C00100B1A00100C1A00108F
:203600002200954801789548007800F0B7FC944908600421924800F0F3FB924908709248EB
:203620000078924901438D422FD120786178090201432079000408436179090601438C487B
:203640004160207A617A09020143207B00040843617B090601438648016020786178090241
:20366000014320790004084361790906014381480160207A617A09020143207B0004084319
:20368000617B090601437C4801602100280001F001F83CE72200794801787948007800F0FB
:2036A0006DFC784908600421764800F0A9FB764908706D4800786D4901438D422FD120783C
:2036C00061780902014320790004084361790906014367484160207A617A09020143207BFE
:2036E00000040843617B0906014361480160207861780902014320790004084361790906B1
:2037000001435C480160207A617A09020143207B00040843617B0906014357480160210062
:20372000280000F0B7FFF2E62200584801785848007800F023FC574908600421554800F0C7
:203740005FFB5549087048480078484901438D422FD12078617809020143207900040843A5
:2037600061790906014342484160207A617A09020143207B00040843617B090601433C4890
:203780000160207861780902014320790004084361790906014337480160207A617A090293
:2037A0000143207B00040843617B09060143324801602100280000F06DFFA8E62200CB4869
:2037C0000178CB48007800F0D9FBCA4908600421C84800F015FBC849087023480078234999
:2037E00001438D422FD120786178090201432079000408436179090601431D484160207A41
:20380000617A09020143207B00040843617B0906014317480160207861780902014320794C
:203820000004084361790906014312480160207A617A09020143207B00040843617B0906B8
:2038400001430D4801602100280000F023FF5EE6F4020010000300104C0C00104E0C0010E4
:20386000300B0010340B00103C0C001000F3FE18E4190010180B0010200B0010600C001056
:20388000620C0010380B00103C0B0010740C0010760C0010400B0010440B00102200E748D3
:2038A0000178E748007800F069FBE64908600421E44800F0A5FAE4490870E4480078E449A7
:2038C00001438D422FD12078617809020143207900040843617909060143DE484160207A9F
:2038E000617A09020143207B00040843617B09060143D848016020786178090201432079AB
:2039000000040843617909060143E1480160207A617A09020143207B00040843617B090608
:203920000143DC4801602100280000F0B3FEEEE52200C9480178C948007800F01FFBC849B1
:2039400008600421C64800F05BFAC6490870BF480078BF4901438D422FD1207861780902EA
:203960000143207900040843617909060143B9484160207A617A09020143207B000408439E
:20398000617B09060143B34801602078617809020143207900040843617909060143BC48C3
:2039A0000160207A617A09020143207B00040843617B09060143B74801602100280000F030
:2039C00069FEA4E52200B4480178B448007800F0D5FAB34908600421B14800F011FAB149B6
:2039E00008709A4800789A4901438D422FD12078617809020143207900040843617909066E
:203A0000014394484160207A617A09020143207B00040843617B090601438E480160207839
:203A200061780902014320790004084361790906014397480160207A617A09020143207BAA
:203A400000040843617B09060143924801602100280000F01FFE5AE52200A5480178A548A3
:203A6000007800F08BFAA44908600421A24800F0C7F9A249087075480078754901438D42DC
:203A80002FD120786178090201432079000408436179090601436F484160207A617A090279
:203AA0000143207B00040843617B09060143694801602078617809020143207900040843EF
:203AC00061790906014372480160207A617A09020143207B00040843617B090601436D480C
:203AE00001602100280000F0D5FD10E5880C00108A0C0010480B00104C0B00102200A24845
:203B00000178A248007800F039FAA149086004219F4800F075F99F4908704C4800784C49EA
:203B200001438D422FD1207861780902014320790004084361790906014346484160207AD4
:203B4000617A09020143207B00040843617B090601434048016020786178090201432079E0
:203B60000004084361790906014349480160207A617A09020143207B00040843617B09063E
:203B80000143444801602100280000F083FDBEE42200814801788148007800F0EFF9804953
:203BA000086004217E4800F02BF97E49087027480078274901438D422FD120786178090279
:203BC000014320790004084361790906014321484160207A617A09020143207B00040843D4
:203BE000617B090601431B4801602078617809020143207900040843617909060143244891
:203C00000160207A617A09020143207B00040843617B090601431F4801602100280000F065
:203C200039FD74E43879A0210140002903D038680121014339606AE4F1BD00BF9C0C001035
:203C40009E0C0010D80B0010DC0B00103C0C001000F3FE18E4190010C40C0010C60C001090
:203C6000E00B0010E40B00101CB54F4C4F48006800904E48006901900121684600F014F8F3
:203C80000221200000F010F82068401D206013BD180B0010200B0010D80C0010DA0C00105C
:203CA000E80B0010EC0B001030B5414A13003C33404C15796D076D0F002D10D1042403E0E5
:203CC00005881D60801C1B1D25006C1E002DF7D1872050621162106A0004FCD407E006203B
:203CE0002056002801D1012020600320A07130BDEC0C0010EE0C0010F00B0010F40B001066
:203D00007CB56C462C4E3068002821D131002B4800F006F9012070603068000220210143F1
:203D200021603068072100F0EBFFE0703068072100F0E6FF002902D0E078401CE07020481C
:203D40006060641D21001F4800F0EAF8032116E070680100491C7160207001250CE0FF20DE
:203D600060553068002806D06119174800F0D8F83068401E30606D1C082DF0D30421684685
:203D8000FFF792FF73BD0000000D0010020D0010F80B0010FC0B0010140D0010160D0010A2
:203DA000000C0010040C0010EC190010C0200000000005402C030010DC1900100C0300102A
:203DC000FF0000A8000300101803001010B5030010000A00511E002A10D00200187800020F
:203DE00050405B1C002201E04000521C082AF0D20404F9D544000F486040F6E780B210BD2A
:203E000010B50200FF200B00591E002B0FD0030010785840521C002301E040005B1C082BB1
:203E2000F1D20406F9D5440031206040F6E7C0B210BD0000211000000EB47EB5060000204A
:203E4000029007AD2D1DFFE70798007800283ED0002200236C460A34079800782070079824
:203E6000007825282CD105E00A204343079800781B18303B0798401C079007980078303825
:203E80000A28F1D307980078732804D0752804D0782804D0D8E72C6802E00A2200E010224E
:203EA000002A06D069460A31286800F015F8401E241A2D1D04E02178300000F041F8641C4F
:203EC00020780028F7D10798401C0790BCE703B0039870BC04B00047FCB504000D001600D8
:203EE00000270E4800902000310000F009FF0098405C28706D1E7F1C2000310000F000FF3A
:203F00000400002CEDD10198874204D2302028706D1E7F1CF7E73800F6BD0000B867000085
:203F20001EB572B6C288002A24D0521EC2808288531C44891C4084800023048900680EE0C0
:203F40001EB572B6C2884489A24213D8511CC18083889B1823400022048901686846A74400
:203F600000BF805CC85403E052005B00805AC852012000E0002062B61EBD000070B50400C9
:203F80000B001078517809020143107905040D43507900062843117A557A2D020D43117BF5
:203FA0000E042E43517B090631434022D21A121B00F0FEFE4022121B00F00CFF70BD70B5EC
:203FC00014000E000500B0690078002806D0012825D0022844D007286CD0C3E003CD083DAC
:203FE000726812680023994215D301D8904212D330680268002303CD083D8B420BD301D839
:20400000824208D3287C012801D10220ABE0012028740120A7E0002028740020A3E003CD21
:20402000083D72681268002399420CD301D8904209D330680268002303CD083D8B420BD899
:2040400001D3824208D2287C012801D102208AE001202874012086E000202874002082E041
:2040600003CD083D72681268002399420CD301D8904209D330680268002303CD083D8B426C
:204080000DD801D382420AD2287C012805D10020607100202874012065E0022063E0287C08
:2040A000012801D102205EE00020607101202874012058E0280020300CC8083803CD083DFD
:2040C0008B4223D801D3824220D203CD083D20350CCD083D801A9941326812680023994280
:2040E0000DD301D890420AD36079022803DA00206071012037E002206071022033E060794E
:2041000002282FDB0320607103202CE0280020300CC8083803CD083D8B4223D301D8824247
:2041200020D32800203003C80CCD083D801A994132681268002399420DD301D890420AD33D
:204140006079022803DA0020607101200BE002206071022007E06079022803DB03206071B1
:20416000032000E0642070BD70B50C001E00BB49E4B228236343C9184969002900D115E12E
:20418000B749C0B2022358430818D4214900405C002800D10AE1B148E4B22821614340183B
:2041A0004069001FAD49E4B228236343C9184861AB4892B2022151434018D4214900405C10
:2041C000FA2189004843A7494018A749E4B2082262438850A548E4B2082161434218A448A5
:2041E000E4B22021614341189C48E4B228236343C018FFF7E4FE049DC0B2002851D002284A
:2042000000D19BE000D3D1E09848E4B20821614340184079002834D102209049E4B2282272
:2042200062438918087693499348FFF705FE8C48ADB2022169434018D4214900405C0028AE
:2042400006D101208949E4B208226243885010E08348ADB2022169434018D4214900405C3C
:20426000FA2189004843401E8049E4B208226243885002207D49E4B2082254430919487191
:204280000EE07A48E4B20821614340184079032806D102207549E4B20822544309194871E6
:2042A00084E07248E4B20821614340184079012834D172497048FFF7BFFD03206749E4B2B0
:2042C00028226243891808766548ADB2022169434018D4214900405C002806D101206349F7
:2042E000E4B208226243885010E05D48ADB2022169434018D4214900405CFA21890048435D
:20430000401E5A49E4B208226243885003205749E4B208225443091948710EE05348E4B24B
:204320000821614340184079022806D103204F49E4B2082254430919487137E0D348E4B2E9
:20434000082161434018407900282ED14448B6B2042171434018B049405A01280DD1012078
:20436000CA49E4B20822624388500120C749E4B2082254430919487117E03948B6B2042185
:2043800071434018A449405AFA218900414335480818BE49E4B20822624388500120BB495C
:2043A000E4B20822544309194871FFE770BD38B504002D48E4B208256543401900790028ED
:2043C0004BD0DBB200932648D2B202235A438018D4225200835C2248C9B20222514340183A
:2043E000D4214900425CAA492348FFF725FD00201D49E4B2082262438918087100201749E6
:20440000E4B2282262438918087400209F49E4B2082262438918087101209C49E4B20822AD
:2044200062438918487100209849E4B20822624388500020CF49E4B2082262438918487148
:204440000020CC49E4B208226243891808710020C849E4B208225443085131BDD0000010F9
:20446000900A001017FCFFFF50190010001900103C620000906700007C040010A4670000AF
:20448000F8B582B004000F001600BA48E4B20821614340180079002800D1BBE00020B5492C
:2044A000E4B20822624389180871089DB148E4B2082161434018407902284DD1AE48E4B297
:2044C000282161434018007E02283DD16846007A0090AA48F6B202214E438019D421490004
:2044E000435CA648FFB202214F43C019D4214900425C6749A248FFF79FFC9F48E4B2282123
:204500006143401803C89C4AE4B228236343D218203203C2083A01209849EDB202226A43B2
:204520008918D422520088549D209449EDB2022255434919FF22AA32885400205349E4B234
:20454000082262438918487101208A49E4B208225443091948715DE08648E4B2082161439E
:2045600040184079032855D186498548FFF764FC6846007A00908148F6B202214E43801971
:20458000D4214900435C7D48FFB202214F43C019D4214900425C7C497948FFF74DFC7648DB
:2045A000E4B228216143401803C8734AE4B228236343D218203203C2083A00206F49EDB257
:2045C00002226A438918D42252008854AC206B49EDB2022255434919FF22AA32885400200F
:2045E0006449E4B2082262438918487100202749E4B2082262438918487100202349E4B2DE
:20460000082262438918087100202049E4B2082254430851F7BD0000A202000070B582B0C9
:204620001A4CC0B20825454364192479002C2BD0164CC0B20825454364196479012C23D1A8
:204640000024124DC0B208264643AD192C7100240E4DC0B20826704328184471DBB2009364
:204660004648D2B202235A438018D4225200835C4248C9B2022251434018D4214900425CB6
:2046800003493F48FFF7D8FB73BD00008C0300109466000070B506000D003C480078002859
:2046A00066D000242FE0344828216143401803C8314A28236343D218083203C2083A2A0044
:2046C000334820216143401880680178304820236343C018C0680078FFF750FC264A2823EB
:2046E0006343D21803C2083A23482821614340184069001D204928226243891848610120EA
:2047000024498887641C0A2C32DA21482021614340184069006800021D49202262438918B4
:204720000969097801438E42ECD11348282161434018407E0028B6D02A001548202161433D
:20474000401880680178124820236343C018C0680078FFF713FC084A28236343D21803C2EE
:20476000083A002004492822624389184876BBE770BD000000190010D0000010900A0010BA
:204780007C04001030670000B0660000111A00103C6200002403001030B583B06B460024DF
:2047A000002530C3083B002308E004006D46DBB2EC54000A0C062043090A5B1CDBB2072B47
:2047C000F3DBD2B211006846FFF76EFA37BD10B50400002000210BE00A22002300F00AFB3D
:2047E00002000B0020783038C11780185941641C2278002AF0D110BD0220254908600220B6
:20480000244908600220244908600220234908600220234908600220224908602248006819
:204820008021890101432048016020480068102188431E4908601E481E49086020480068A0
:204840001F490860704780B51B4800681B498842FAD31948006880098005800D00F0E4FAA4
:2048600018A20CCA00F0F8FA00F0B8FB02BD00B51149042242438958104A9142F8D30E497A
:2048800004225043085880098005800D00BD000074400440784004407C40044080400440AF
:2048A000944004409840044080800440388204400F0B010000C0014010C00140FFFFFF7FD9
:2048C0000CC0014052B81E85EB313E4080B52F48D0212F4A11602F4909688022D2000A4353
:2048E0002C490A602C492D4A116001212C4A116001212C4A116001212B4A11602B4909687D
:2049000001220A4329490A6029490968802212010A4327490A600121264A116000214160C7
:20492000022141600168FF22C8320A43026002214160FFE7017B4907FCD400F0BBF901BDD8
:20494000F0B51D4A1D4B0400072901D20D0000E007250026114F3E6002E006781E60401C65
:204960002E00751E002EF8D115786D07FCD5082902D305781D60401C1D682570641C491E50
:204980000029F1D1044805490860F0BD000004406C40044000800150FF0F00000010015009
:2049A0006040044064400440704004400480044080800440948004400C0004400800044037
:2049C00080B505206946087002216846FFF7B8FF6846407802BD80B506206946087001210F
:2049E0006846FFF7ADFF01BD034872B6AA2101605521016062B670470840004000B53B48A4
:204A00003B49D1223B4B1A60D1223B4B1A60D1223A4B1A60D1223A4B1A6001229823CA5050
:204A200080228A5880235B01134380310B608021C1600021416017210160F2218162072146
:204A400081600321C160017A06220A40002AFAD143214160802080032A49086080202A4938
:204A60000870802080032949086000BD38B51F4C207A0E210140022904D004290ED00C2963
:204A80000CD024E00F252800451E002805D021001F48FFF745FA0028F5D11CE01D484089A5
:204AA0001C49C988884203D269461A48FFF738FA2068009000991748FFF742FA00983B282B
:204AC00004D11548808E401C1349888603E0606900902068009031BD80B504490A7D52062D
:204AE00001D5FFF71DFA01BD000000000080004000800440A8400440A44004405040044069
:204B0000A040044080E200E015E400E000E100E07C0400107004001024030010FCB582888F
:204B200000273B00002400260568AD5C002C02D10CB43B2E17D0CE59365D002E09D1002C56
:204B40000ED10CBC00275B1C521C468932402E00EAE7AE4202D00CBC3F1DE3E7641CF2E759
:204B6000BF087F1C00E00027C188CB1AC38082800097FFBDF0B5868847890025156002B433
:204B800006E01470521C00241470002923D0C0BC0468345D761C3E40491EC0B43B2C13D0CB
:204BA000002BEED0303C0A2C05D3022B0AD0113C052C07D80A340C4FFF5C16687E433419AE
:204BC0001460E2E7042506E0002900D1AD1E2D1F064C002262701CBC611AC488611AC180D7
:204BE000828008352800F0BDC0690000041A0010FFB513000F4A0C2461435618B478641E3A
:204C00006408A4003188CA08766849074F0F06D0A74400BF367802E0368800E036680649D2
:204C2000CC19E47FCC730C76029601920096FFF703F9FFBD305000004C040010F8B504006B
:204C40000F0015000026002600E0761CFFF7B8FEC00705D5802040028642F6D300200FE0A3
:204C6000E80701D5032602E00226FFF7B4FE38BA606026716908241D2000FFF761FE012003
:204C8000F2BD10B582B00400FFF7A5FE2004D7210143009104216846FFF752FEFFF790FE43
:204CA000C00705D5002015498842F7D2401CFAE7012016BD80B5AB2069460870012168461A
:204CC000FFF73EFE01BD10B582B00400FFF783FE2002D8210143009104216846FFF730FE8B
:204CE000FFF76EFEC00705D5002004498842F7D2401CFAE7012016BD00000000FF0F000072
:204D00000022030A8B420BD203098B4219D243088B422ED2411A00D20146524110467047CA
:204D2000FF2209023FD012068B4205D3121209028B4201D31212090203098B4219D300E0D7
:204D4000090AC3098B4201D3CB01C01A524183098B4201D38B01C01A524143098B4201D387
:204D60004B01C01A524103098B4201D30B01C01A5241C3088B4201D3CB00C01A5241830825
:204D80008B4201D38B00C01A524143088B4201D34B00C01A5241884200D3401A5241CFD2AB
:204DA00001461046704708B500F040F908BD0000D2B2203A03D30100914000207047524203
:204DC000D0415242203291404140D0409040414070470000D2B2203A03D30800D040002185
:204DE00070472032D141D04048409140D14048407047000030B4434351435D18010C0C0053
:204E0000130C5C432D1980B2434392B251430024C918644124040B04090C09195043C0187B
:204E2000694130BC70470000010007D5F446404200F004F80122D207114360474222120132
:204E4000D21E004207D002D4521E0018FCD5C10A4005120589187047F0B50E005E40012524
:204E6000ED072E40B446AE0ADF184C18F44208D2F7420ED2640D01D07F0D12D10020614622
:204E8000F0BD05D1F74201D87F0D05D10020C143F0BDFBD1640DF9D00020C1434905490881
:204EA0008FE0E419C902DB0229432B43DB0A460DC00231438E4630B487B295B27D432E0C64
:204EC000ADB2140C7C43A419260C240425439CB27C43A419190C7943270CC919A4B20F04EC
:204EE0003C43090C000C97B247432E0CBE193543ADB2170C4743360CBF19A6B2BF193E041E
:204F00003543240C3E0C36199FB24743BF19BCB23E0C89191F0C47437F183E043443390CF9
:204F2000704680B297B247432E0CBE193543ADB2170C4743360CBF19A6B2BF193E0435431D
:204F4000240C3E0C36199FB24743BF19BCB23E0C89191F0C47437F183E043443390C774674
:204F60003F0C90B278432E0C80190604ADB22E43050CA0B22D18120C7A435019020C80B210
:204F8000240CA4189AB27A43121914042043120C89181B0C7B43C91830BCEF0A394203D1BD
:204FA000B61940414941641E6F12BF0DE41B0BDBFF19BC4211DA240500274208AE41784120
:204FC000614166463143F0BD641C05D1401C6141CF0201D34908F4E750E75DE7F4464A1826
:204FE00005D200F00DF801D580174008604700F007F80121C907884200D9080040426047D4
:20500000400DC90208430121C9070843520D40210901521A521C06D452421F3201D4D040A8
:205020007047C01770470020704700007047000082030500900A0010A8590000420602021C
:20504000380C0010505B00004A0602023A0C0010525B0000520602023C0C0010545B000097
:20506000429C02023E0C0010565B00004A9C0202400C0010585B0000629C0202420C0010EA
:205080005A5B00006A9C0202440C00105C5B00007A9C0202460C00105E5B0000C2DA020265
:2050A000480C0010605B000002E102024A0C0010625B000042E702024C0C0010645B000073
:2050C00082ED02024E0C0010665B000002FA0202500C0010685B0000929C0202520C001063
:2050E0006A5B00009A9C0202540C00106C5B0000B29C0202560C00106E5B0000BA9C020293
:20510000580C0010705B0000CA9C02025A0C0010725B0000CADA02025C0C0010745B0000B4
:205120000AE102025E0C0010765B00004AE70202600C0010785B00008AED0202620C0010B8
:205140007A5B00000AFA0202640C00107C5B0000E29C0202660C00107E5B0000EA9C0202B4
:20516000680C0010805B0000029D02026A0C0010825B00000A9D02026C0C0010845B0000B8
:205180001A9D02026E0C0010865B0000D2DA0202700C0010885B000012E10202720C001045
:2051A0008A5B000052E70202740C00108C5B000092ED0202760C00108E5B000012FA020248
:2051C000780C0010905B0000329D02027A0C0010925B00003A9D02027C0C0010945B000098
:2051E000529D02027E0C0010965B00005A9D0202800C0010985B00006A9D0202820C0010FE
:205200009A5B0000DADA0202840C00109C5B00001AE10202860C00109E5B00005AE702026B
:20522000880C0010A05B00009AED02028A0C0010A25B00001AFA02028C0C0010A45B0000E2
:20524000829D02028E0C0010A65B00008A9D0202900C0010A85B0000A29D0202920C0010B5
:20526000AA5B0000AA9D0202940C0010AC5B0000BA9D0202960C0010AE5B0000E2DA020251
:20528000980C0010B05B000022E102029A0C0010B25B000062E702029C0C0010B45B000071
:2052A000A2ED02029E0C0010B65B000022FA0202A00C0010B85B0000CA5D0202A20C0010B8
:2052C000BA5B0000D25D0202A40C0010BC5B0000DA5D0202A60C0010BE5B0000E25D020256
:2052E000A80C0010C05B0000EA5D0202AA0C0010C25B00001A5E0202AC0C0010C45B00003E
:20530000225E0202AE0C0010C65B00002A5E0202B00C0010C85B0000325E0202B20C001041
:20532000CA5B00003A5E0202B40C0010CC5B0000D29D0202B60C0010CE5B0000DA9D0202CC
:20534000B80C0010D05B0000F29D0202BA0C0010D25B0000FA9D0202BC0C0010D45B000016
:205360000A9E0202BE0C0010D65B0000EADA0202C00C0010D85B00002AE10202C20C0010B2
:20538000DA5B00006AE70202C40C0010DC5B0000AAED0202C60C0010DE5B00002AFA02028E
:2053A000C80C0010E05B0000229E0202CA0C0010E25B00002A9E0202CC0C0010E45B0000F4
:2053C000429E0202CE0C0010E65B00004A9E0202D00C0010E85B00005A9E0202D20C0010B9
:2053E000EA5B0000F2DA0202D40C0010EC5B000032E10202D60C0010EE5B000072E70202B2
:20540000D80C0010F05B0000B2ED0202DA0C0010F25B000032FA0202DC0C0010F45B0000F0
:20542000729E0202DE0C0010F65B00007A9E0202680C0010F85B0000929E0202E20C0010E8
:20544000FA5B00009A9E0202E40C0010FC5B0000AA9E0202E60C0010FE5B0000FADA0202E5
:20546000E80C0010005C00003AE10202EA0C0010025C00007AE70202EC0C0010045C00007C
:20548000BAED0202EE0C0010065C00003AFA0202F00C0010085C0000C29E0202F20C0010DB
:2054A0000A5C0000CA9E0202F40C00100C5C0000E29E0202F60C00100E5C0000EA9E020216
:2054C000F80C0010105C0000FA9E0202FA0C0010125C000002DB0202FC0C0010145C0000C3
:2054E00042E10202FE0C0010165C000082E70202000D0010185C0000C2ED0202020D001029
:205500001A5C000042FA0202040D00101C5C0000129F0202060D00101E5C00001A9F02022D
:20552000080D0010205C0000329F02020A0D0010225C00003A9F02020C0D0010245C0000CA
:205540004A9F02020E0D0010265C00000ADB0202100D0010285C00004AE10202120D0010B9
:205560002A5C00008AE70202140D00102C5C0000CAED0202160D00102E5C00004AFA0202B7
:20558000180D0010305C0000F25D02021A0D0010325C0000FA5D02021C0D0010345C00000E
:2055A000025E02021E0D0010365C00000A5E0202200D0010385C0000125E0202220D0010CA
:2055C0003A5C0000425E0202240D00103C5C00004A5E0202260D00103E5C0000525E02027B
:2055E000280D0010405C00005A5E02022A0D0010425C0000625E02022C0D0010445C00007C
:20560000A20F02022E0D0010465C0000B2320202300D0010485C0000E2150304320D0010C2
:205620004A5C0000729C0304360D00104E5C0000C29C03043A0D0010525C0000129D030492
:205640003E0D0010565C0000629D0304420D00105A5C0000B29D0304460D00105E5C0000AF
:20566000029E03044A0D0010625C0000529E03044E0D0010665C0000A29E0304520D001084
:205680006A5C0000F29E0304560D00106E5C0000429F03045A0D0010725C0000C1F3050684
:2056A000980A0010B0590000C9F30506A00A0010B8590000D1F30506A80A0010C0590000F3
:2056C000D9F30506B00A0010C8590000E1F30506B80A0010D0590000529C0506C00A00105B
:2056E000D85900005A9C0506C80A0010E0590000A29C0506D00A0010E8590000AA9C050698
:20570000D80A0010F0590000F29C0506E00A0010F8590000FA9C0506E80A0010005A00006D
:20572000429D0506F00A0010085A00004A9D0506F80A0010105A0000929D0506000B001050
:20574000185A00009A9D0506080B0010205A000002320506100B0010285A00000A320506C5
:20576000180B0010305A000012320506200B0010385A00001A320506280B0010405A00001C
:2057800022320506300B0010485A00002A320506380B0010505A000032320506400B00108F
:2057A000585A00003A320506480B0010605A0000E9F30506600B0010785A0000F1F3050680
:2057C000680B0010805A0000F9F30506700B0010885A000001F40506780B0010905A00008B
:2057E00009F40506800B0010985A0000E29D0506880B0010A05A0000EA9D0506900B0010B0
:20580000A85A0000329E0506980B0010B05A00003A9E0506A00B0010B85A0000829E050613
:20582000A80B0010C05A00008A9E0506B00B0010C85A0000D29E0506B80B0010D05A0000F3
:20584000DA9E0506C00B0010D85A0000229F0506C80B0010E05A00002A9F0506D00B001010
:20586000E85A000042320506D80B0010F05A00004A320506E00B0010F85A000052320506C7
:20588000E80B0010005B00005A320506F00B0010085B000062320506F80B0010105B000088
:2058A0006A320506000C0010185B000072320506500B0010685A00007A320506580B0010AC
:2058C000705A000082320506080C0010205B00008A320507100C0010285B00009232050759
:2058E000180C0010305B00009A320507200C0010385B0000A2320507280C0010405B000083
:20590000AA320507300C0010485B0000701C20085E0D0010765C0000C01C20089E0D0010F0
:20592000B65C0000F00F20087E0D0010965C000000192008BE0D0010D65C0000081920080A
:20594000DE0D0010F65C000010192008FE0D0010165D0000181920081E0E0010365D0000F3
:20596000201920093E0E0010565D0000281920095E0E0010765D0000301920097E0E0010EF
:20598000965D0000381920099E0E0010B65D000040192009BE0E0010D65D000048192009B0
:2059A000DE0E0010F65D000000000000D700000001F718000C00000002F718009000000004
:2059C00003F718000B00000004F718009900000005F718000200000000000000D700000011
:2059E00000000000D700000000000000D700000000000000D700000000000000D70000004B
:205A000000000000D700000000000000D700000000000000D700000000000000D70000002A
:205A200000000000D700000000000000D700000000000000D700000000000000D70000000A
:205A400000000000D700000000000000D700000000000000D700000000000000D7000000EA
:205A600000000000D700000000000000D700000000000000D700000001F718000C00000085
:205A800002F718009000000003F718000B00000004F718009900000005F718000200000086
:205AA00000000000D700000000000000D700000000000000D700000000000000D70000008A
:205AC00000000000D700000000000000D700000000000000D700000000000000D70000006A
:205AE00000000000D700000000000000D700000000000000D700000000000000D70000004A
:205B000000000000D700000000000000D700000000000000D700000000000000D700000029
:205B200000000000D700000000000000D7000000000000000000000000000000D7000000E0
:205B400000000000D700000000000000D700000004680468046800AC00AC019D019D019D21
:205B6000019D019D00AC08150A7700AC00AC019D019D019D019D019D00AC08150A7700AC3B
:205B800000AC019D019D019D019D019D00AC08150A7700AC00AC019D019D019D019D019D8B
:205BA00000AC08150A7700AC00AC019D019D019D019D019D00AC08150A77019D019D019D09
:205BC000019D019D00AC00AC00AC00AC00AC00AC00AC019D019D019D019D019D00AC0815F6
:205BE0000A7700AC00AC019D019D019D019D019D00AC08150A7700AC00AC019D019D019D3A
:205C0000019D019D00AC08150A7700AC00AC019D019D019D019D019D00AC08150A7700AC9A
:205C200000AC019D019D019D019D019D00AC08150A77019D019D019D019D019D00AC00ACEA
:205C400000AC00AC00AC00AC019DE90367000000810000008100000081000000810000009F
:205C6000810000008100000081000000810000008100000081003131313131000000000029
:205C800000000000000000000000000000000000000000000026564D3032203031303100F7
:205CA00000000000000000000000000000000000000000000081313131313100000000006E
:205CC0000000000000000000000000000000000000000000002631313131310000000000A9
:205CE000000000000000000000000000000000000000000000263131313131000000000089
:205D0000000000000000000000000000000000000000000000263131313131000000000068
:205D2000000000000000000000000000000000000000000000263131313131000000000048
:205D4000000000000000000000000000000000000000000000263131313131000000000028
:205D6000000000000000000000000000000000000000000000263131313131000000000008
:205D80000000000000000000000000000000000000000000002631313131310000000000E8
:205DA0000000000000000000000000000000000000000000002631313131310000000000C8
:205DC0000000000000000000000000000000000000000000002631313131310000000000A8
:205DE000000000000000000000000000000000000000000000263131313131000000000088
:205E000000000000000000000000000000000000000000000026000080B59B4800689A49F9
:205E20000860012800D029E198480078022845D10020974800680068F021490088420CD18F
:205E400000F049F99248006800688E49086090480068001D8E49086029E08D4800680068DD
:205E600046280CD100F030F98948006800688549086087480068001D8549086017E084489A
:205E800000680068CD214900884210D181480068C00AC0B200280AD07D480068006879498A
:205EA00008607D487A490860012078490870022073490860012072490860DFE073480078B4
:205EC00001285FD1754800680068402810D100F0FBF87248006800686A49086070480078DB
:205EE000C0B240086E4908706E486C49086042E06D48006800680A2810D100F0E5F86A48AD
:205F0000006800685F49086065480078C0B24008634908706548644908602CE064480078AC
:205F2000411E634A1170C0B200281BD000F0D3F85B480078C0070AD55848006800685149C9
:205F4000086056480068001D5449086013E05648006800684B49086053480068001D524999
:205F6000086008E0002049490870082050490870012044490860022041490860012040499A
:205F800008607BE041480078002876D1002049480068006809280CD100F096F845480068CC
:205FA00000683849086043480068001D414908605CE040480068006837281AD135480068CB
:205FC000C00A3D490978C9B249083B4A1170C0B2002805D0384800788021014336480170E3
:205FE000344800680068274908603448314908603CE02F480078411E2D4A1170C0B2002823
:206000000CD000F068F82B48006800681D49086028480068001D2749086027E02848007887
:20602000401C2749087026480078072806D164201649087000202249087014E00020134962
:20604000087001200F4908601E4840891D49C988884203D218491B48FDF762FF1648017872
:206060001848FDF76DFF08201149087002200449086001200249086000E000BF01BD00005E
:2060800004400140184001400040014088040010F002001000200250E4020010D002001079
:2060A000081A0010C4020010CC020010BC02001089040010E0020010091A0010D402001084
:2060C0000A1A0010B002001008480068084901400648016070470548006880210901014376
:2060E00002480160002003490860704700800250FFF7FFFF002002500000ECD800FFFFDF91
:206100001A0000000000EBD800FFFFDF1B0000000013F7F8FFFFFFDF010000000012F7F8CA
:20612000FFFFFFDF020000000000ECF8FFFFFFDF030000000000EBF8FFFFFFDF04000000FB
:2061400000E1F7F8FFFFFFDF0500000000E2F7F8FFFFFFDF0600000000E3F7F8FFFFFFDF2D
:206160000700000000E4F7F8FFFFFFDF0800000000E5F7F8FFFFFFDF0900000000E6F7F8D3
:20618000FFFFFFDF0A00000000E7F7F8FFFFFFDF0B00000000E8F7F8FFFFFFDF0C0000009D
:2061A00000E9F7F8FFFFFFDF0D00000000EAF7F8FFFFFFDF0E00000000CFF7F8FFFFFFDFC1
:2061C0000F000000000000C0FFFFFFDF10000000000000C0FFFFFFDF11000000000000C097
:2061E000FFFFFFDF12000000000000C0FFFFFFDF13000000000000C0FFFFFFDF1400000052
:20620000000000C0FFFFFFDF15000000000000C0FFFFFFDF16000000000000C0FFFFFFDF7F
:2062200017000000000000C0FFFFFFDF18000000000000C0FFFFFFDF19000000C00A001004
:20624000C80A00104C0C00104E0C00104A0C0010980A0010420C0010440C0010D00A0010CA
:20626000D80A0010600C0010620C00105E0C0010A00A0010560C0010580C0010E00A00101E
:20628000E80A0010740C0010760C0010720C0010A80A00106A0C00106C0C0010F00A001072
:2062A000F80A0010880C00108A0C0010860C0010B00A00107E0C0010800C0010000B0010C5
:2062C000080B00109C0C00109E0C00109A0C0010B80A0010920C0010940C0010880B0010A0
:2062E000900B0010C40C0010C60C0010C20C0010600B0010BA0C0010BC0C0010980B001077
:20630000A00B0010D80C0010DA0C0010D60C0010680B0010CE0C0010D00C0010A80B0010CA
:20632000B00B0010EC0C0010EE0C0010EA0C0010700B0010E20C0010E40C0010B80B00101E
:20634000C00B0010000D0010020D0010FE0C0010780B0010F60C0010F80C0010C80B001070
:20636000D00B0010140D0010160D0010120D0010800B00100A0D00100C0D001000000100B3
:206380000200010003000100020001000400010002000100030001000200010005000100DE
:2063A0000200010003000100020001000400010002000100030001000200010006000100BD
:2063C00002000100030001000200010004000100020001000300010002000100050001009E
:2063E00002000100030001000200010004000100020001000300010002000100070001007C
:2064000002000100030001000200010004000100020001000300010002000100050001005D
:2064200002000100030001000200010004000100020001000300010002000100060001003C
:2064400002000100030001000200010004000100020001000300010002000100050001001D
:2064600002000100030001000200010004000100020001000300010002000100F8B40168EE
:2064800042184468610851188368E40701D54C461B190C3000908A422BD01578521C0326FB
:2064A0002E4002D11678F61C521C28090F2807D110780F30521C03E01778521C1F705B1C32
:2064C000761EF9D10028E6D01678521CAF0803253D40032D01D11578521C2D0275195D1BF6
:2064E000801CD8D02E786D1C1E705B1C401ED2D0F8E70098F2BC704710B5FEF77FFAFCF722
:2065000079FFFCF719FFFCF721FFFCF7E2FEFEF773F9FCF727FF002408E02000C0B2FCF707
:206520004AFB2000C0B2FCF70FFB641C0E2CF4D30D20FCF728FB00F009F8FCF7EDFA0248AE
:2065400000688047F9E700BFFC19001009480021016009494160002181600849084A11606C
:2065600007210160704707480068401C054908607047000010E000E07FBB00000000C0C0D1
:2065800020ED00E0001A0010B8680000C46800007C690000D068000084690000DC6800004A
:2065A0008C690000E8680000F4680000006900000C690000186900002469000030690000B5
:2065C0003C690000486900007A3F000000000000C32C0000D12C00007D2C0000D12E000018
:2065E0003D2F0000C52F0000F12D00002D2E0000FF2D0000112E0000392E0000852E00003D
:20660000612E00006D2D0000AD2D0000412E000070B40121002313E00468001D0C4202D003
:206620004D466D1E64192360241D121F042AFAD22500960701D52380AD1C0A4000D02B7017
:206640000268001D002AE7D170BC704710B5074979441831064C7C44163404E0081D0A68FC
:20666000891888470100A142F8D110BD08000000240000009DFFFFFF840F0000900A00102D
:2066800000000000F9FDFFFF3E030000F4010000D0000010736574706172616D20313430DE
:2066A000302025752C25752C312C25753B0D0A00736574706172616D2031343030202575B9
:2066C0002C25752C302C25753B0D0A006F7069737461727472656365697665203131323241
:2066E000333334343B0D0A0000F00BF8002801D0FFF7ACFF0020C046C046FFF7FDFE00F0E0
:2067000002F80120704780B500F002F801BD00000746384600F002F8FBE7000080B5C046F8
:20672000C046024A11001820ABBEFBE7260002004D6164652064726562657A67206E656777
:2067400061746976650D0A003C466C617368205772697465204572726F723E0D0A0D0A001E
:206760003C626F6F747374617475733A2025733E0D0A0D0A000000003C626F6F74777269E5
:2067800074653A2025732C25733E0D0A0D0A000044726562657A6720506F736974697665C8
:2067A0000D0A000044726562657A67204E656761746976650D0A00003031323334353637F9
:2067C0003839414243444546000000003C57524F4E4720494E5055543E0D0A0D0A000000CE
:2067E0003C4C4F414420504152414D3E0D0A0D0A000000003C5341564520504152414D3E06
:206800000D0A0D0A000000003C44454641554C5420504152414D3E0D0A0D0A003C626F6F90
:206820007465726173653A2025733E0D0A0D0A005B2E2E2E5D2048595045524C494E4B0D51
:206840000A000000736574706172616D20313430302025733B0D0A0094690000B8690000C4
:20686000BC6900009C690000A4690000415244203C25752C2025753E0D0A00007377697412
:206880006368206F66663B0D0A0000003C5645523A2025733E0D0A0D0A0000006D616B655B
:2068A00070686F746F3B0D0A0000000073687574646F776E3B0D0A00676574706172616D3D
:2068C00020000000736574706172616D2000000068797065726C696E6B200000626F6F7471
:2068E00077726974652000006D616B6570686F746F3B00006F706973746172743B00000099
:206900006F70697374617475733B000063707572657365743B000000626F6F74657261734B
:20692000653B0000626F6F747374617475733B006C6F6164706172616D3B00007361766589
:20694000706172616D3B0000727374616C6C70726F663B00204E65772056616C3A20000080
:20696000C046C046C046C046FFF7BEFE01020408102040800D0A0D0A0000000054504153E8
:20698000533A20006D616B65200000006765747665723B004552522C3000000046554C4C4C
:2069A00000000000454D5054590000002056616C3A200000D50300004F4B00004552520050
:2069C00000100A0AFEE7D20001620311F30C010001F1FF286101F12F2843672B10F137088D
:2069E0004002BC1900100A100117003C09120A041206041240041003BC020010C40421108D
:206A000012090412370412D41012E09412460C129A0812E41063000F447001FF03D45050D3
:206A2000010700A00C12060C83001324410871D9610952020861FB520408520508520608F2
:206A4000520708520808520908520A08420B5143010C075116F132081003012100004F049D
:206A6000100399220000BF04100307230000290412B50412F1041010CD2400006D250000A6
:206A80003D260000A52700005D281CF22929381011506172616D2049443A25347525732526
:206AA000240D0A3C0A240B2025243E0D0A0D0A0073787569B7655880010000180C03640800
:206AC000FFFFFFFFFFFFFFFFFFFFFFFFFFFFFFFFFFFFFFFFFFFFFFFFFFFFFFFFFFFFFFFFD6
:206AE000FFFFFFFFFFFFFFFFFFFFFFFFFFFFFFFFFFFFFFFFFFFFFFFFFFFFFFFFFFFFFFFFB6
:206B0000FFFFFFFFFFFFFFFFFFFFFFFFFFFFFFFFFFFFFFFFFFFFFFFFFFFFFFFFFFFFFFFF95
:206B2000FFFFFFFFFFFFFFFFFFFFFFFFFFFFFFFFFFFFFFFFFFFFFFFFFFFFFFFFFFFFFFFF75
:207FE000FFFFFFFFFFFFFFFFFFFFFFFFFFFFFFFFFFFFFFFFFFFFFFFFFFFFFFFF9782E9019A
:00000001FF
